:040000000C943A0121
:100004000C9400000C9400000C9400000C9400006C
:100014000C9400000C9400000C9400000C9400005C
:100024000C9400000C9400000C9400000C9400004C
:100034000C9400000C9400000C9400000C9400003C
:100044000C9400000C9400000C9400000C9400002C
:1000540005072060000000000000005F00000007AA
:10006400000700147F147F14242A7F2A1223130804
:10007400646236495522500005030000001C2241E9
:10008400000041221C00082A1C2A0808083E08080F
:100094000050300000080808080800303000002034
:1000A400100804023E5149453E00427F400042612F
:1000B4005149462141454B311814127F10274545BB
:1000C40045393C4A494930017109050336494949D2
:1000D40036064949291E003636000000563600000F
:1000E40000081422411414141414412214080002A8
:1000F40001510906324979413E7E1111117E7F4931
:100104004949363E414141227F4141221C7F4949B0
:1001140049417F090901013E414151327F080808E4
:100124007F00417F41002040413F017F081422416C
:100134007F404040407F0204027F7F0408107F3EDE
:100144004141413E7F090909063E4151215E7F0933
:10015400192946464949493101017F01013F40407F
:10016400403F1F2040201F7F2018207F6314081465
:10017400630304780403615149454300007F41410E
:10018400020408102041417F0000040201020440DF
:1001940040404040000102040020545454787F48F9
:1001A4004444383844444420384444487F38545400
:1001B4005418087E090102081454543C7F080404AE
:1001C4007800447D40002040443D00007F102844D6
:1001D40000417F40007C041804787C0804047838CB
:1001E400444444387C14141408081414187C7C08FF
:1001F4000404084854545420043F4440203C4040E4
:10020400207C1C2040201C3C4030403C44281028CA
:10021400440C5050503C4464544C44000836410053
:1002240000007F0000004136080002010204027F42
:100234004141417F000103070F1F3F7FFF0010274B
:10024400E80364000A00010000100001100001002E
:10025400434D503A000001002D4E414E00494E4698
:1002640000000500600154020100FA035A02000074
:10027400F894EE27ECBBF1E0FBBFEBBFE5BF8DE0EC
:10028400A2E0BB27ED938A95E9F780E094E0A0E62D
:10029400ED930197E9F7E6E6F2E0859195910097F1
:1002A40061F0A591B59105901590BF01F0010590FD
:1002B4000D920197E1F7FB01F0CFEFE5EDBFE4E02C
:1002C400EEBFC0E6D1E00C94C803AA931A930E942F
:1002D4009A0AAB810E94CE0AAA810E94CE0A0E9489
:1002E4009A0AAB81AF5F0E94CE0A8BE18A95F1F73F
:1002F400A9810E94B30A1E2F0E94A90AE12F188126
:1003040024960895AA930E949A0AAA810E94CE0A6A
:10031400A9810E94CE0AA8810E94CE0A0E94A90A3D
:1003240023960895E0EDEA93E9E1EA93A4E00E94BC
:100334003C09EAE1EA93A3E00E943C09EBE1EA9379
:10034400A8E10E943C09ECE10E944109E3E20E9419
:100354004109EDE10E944109EEE10E944109EFE10A
:100364000E944109E0E20E944109E1E20E94410940
:10037400E2E20E944109E4E20E944109E5E20E94AE
:100384004109E6E20E944109E7E20E944109E8E2EC
:100394000E944109E9E20E944109EAE20E944109FE
:1003A400EBE20E944109ECE20E944109EDE20E9465
:1003B4004109EEE20E944109EFE20E944109E0E3B3
:1003C4000E944109E1E30E944109E2E30E944109DC
:1003D400E3E30E944109E4E30E944109E5E30E944A
:1003E4004109E7E30E944109E8E30E944109E3E689
:1003F4000E944109E4E60E944109E5E60E944109A0
:10040400E6E60E944109E7E60E944109E8E60E9407
:100414004109E9E60E944109EAE60E944109EBE646
:10042400EA93A1E00E943C09ECE60E944109E4E75A
:10043400EA93A0E067DF08950E944409E12F115078
:10044400E03011F1E0EDEA93EBE30E944D09FE2F59
:10045400E0E0FF93EF93E0EDEA93ECE30E944D09B3
:10046400AF91BF91F0E0EA2BFB2BA6EAB1E00E942A
:100474005109A091A601B091A7018091A801909182
:10048400A9010E945809DACF0E946C09E093A601E1
:10049400F093A7016093A8017093A9010E947109C8
:1004A400E12F1150E03011F1E0EDEA93EDE30E9409
:1004B4004D09FE2FE0E0FF93EF93E0EDEA93EEE3C6
:1004C4000E944D09AF91BF91F0E0EA2BFB2BAAEA01
:1004D400B1E00E945109A091AA01B091AB018091B1
:1004E400AC019091AD010E945809DACF0E946C09C9
:1004F400E093AA01F093AB016093AC017093AD015A
:100504000E947109E12F1150E03011F1E0EDEA93FE
:10051400EFE30E944D09FE2FE0E0FF93EF93E0ED3F
:10052400EA93E0E40E944D09AF91BF91F0E0EA2B19
:10053400FB2BAEEAB1E00E945109A091AE01B0914B
:10054400AF018091B0019091B1010E945809DACFB6
:100554000E946C09E093AE01F093AF016093B00187
:100564007093B1017CC00E944409E0E0F0E060E0D7
:1005740070E00E9478090E9481090E948A09E12F93
:100584001150E030E1F0E0EDEA93E3E40E944D091C
:10059400FE2FE0E0FF93EF93E0EDEA93E4E40E94A2
:1005A4004D09AF91BF91F0E0EA2BFB2BA6EDB1E032
:1005B4000E9451090E9493090E949C09E0CF0E9465
:1005C4006C090E948A090E947109E12F1150E030E0
:1005D400E1F0E0EDEA93E5E40E944D09FE2FE0E04E
:1005E400FF93EF93E0EDEA93E6E40E944D09AF91A7
:1005F400BF91F0E0EA2BFB2BAAEDB1E00E94510978
:100604000E94B0090E949C09E0CF0E946C090E94DC
:1006140081090E947109E12F1150E030E1F0E0ED11
:10062400EA93E7E40E944D09FE2FE0E0FF93EF9385
:10063400E0EDEA93E8E40E944D09AF91BF91F0E048
:10064400EA2BFB2BAEEDB1E00E9451090E94B909DF
:100654000E949C09E0CF0E946C090E9478091881CD
:1006640025960895E0EDEA93E3E40E944D09FE2FF8
:10067400E0E0FF93EF93E0EDEA93E4E40E944D0998
:10068400AF91BF91F0E0EA2BFB2BAEEBB1E00E94FF
:100694005109E0EDEA93E5E40E944D09FE2FE0E004
:1006A400FF93EF93E0EDEA93E6E40E944D09AF91E6
:1006B400BF91F0E0EA2BFB2BA2ECB1E00E945109C0
:1006C400E0EDEA93E7E40E944D09FE2FE0E0FF939A
:1006D400EF93E0EDEA93E8E40E944D09AF91BF91F6
:1006E400F0E0EA2BFB2BA6ECB1E00E9451090E943A
:1006F4009309E091BE01F091BF016091C001709136
:10070400C1010E94890B0E94C209E091C201F091CB
:10071400C3016091C4017091C5010E94B0090E9497
:10072400890B0E94CB09E091C601F091C701609149
:10073400C8017091C9010E94B9090E94890B0E94E5
:10074400D409A091E201B091E3018091E401909178
:10075400E5010E94DD090E94C209A091E601B09161
:10076400E7018091E8019091E9010E94DD090E946E
:10077400CB09A091EA01B091EB018091EC01909139
:10078400ED010E94DD090E94D40908952897E0E054
:10079400EABBEBBBE7BBE8BBE4BBE5BBEFEFE1BB0C
:1007A400E0E0E2BBE3BFE2BFECBFEFBDEEBDEDBDF9
:1007B400ECBDE7BDE6BDEBBDEABDE9BDE8BDE2BD0C
:1007C400E5BDE4BDE3BDE9BFE5BFE4BFEAB9E0E8E8
:1007D400E8B9E0E4E7B9E7E8E6B9E0E0E0BFEDB99D
:1007E400E6BF0E94950AE4E5F0E0E883F983E0E0DF
:1007F400EA83EB83EC83ED83EE81EC7FEE83E37E8F
:10080400EC60EE83EF81E078E263EF83DE01C1D038
:1008140089DD12DEA8DE26DFA091C601B091C701F2
:100824008091C8019091C901E0E0F0E06AE774E4C6
:100834000E94E00B0E941F0B3F010E94E409EA0F93
:10084400FB1F0E94E9090E94E409A030E1E0BE0711
:1008540024F0EFEFF0E00E94E9090E94E409A130DE
:10086400EFEFBE0724F4E1E0FFEF0E94E909E0E0C6
:10087400EA93EAE0EA93A0E6B1E00E949908A09125
:10088400FF01AA2382F0ABE20E94EE090E94F10963
:100894000E94EE090E94FD090E94EE090E94090AC5
:1008A4000E94EE090FC0ADE20E94150A0E94F109F0
:1008B4000E94150A0E94FD090E94150A0E94090A55
:1008C4000E94150AEAE0F0E00E94660CE05DAE2F9B
:1008D4000E943708A0CFFFCF0895AA931A93AB982C
:1008E40018E0FADFE981E07811F0A89A01C0A8982D
:1008F400E981EE0FE983F0DFA99AEEDFA9981150A0
:1009040081F7AB9A18810C94D408AA93AA98A88169
:10091400E4DFC6C0AA93AA9AA881DFDFC1C0AA9364
:100924001A93E981E695E695E6951E2FE4E5E19FA5
:10093400F001DF01EA81F0E0EA0FFB1FE09300021F
:10094400F0930102E12F18810C941B09AA93E98109
:10095400E068AE2FDADFE981EA93A981E0DFE064A1
:10096400AE2FD3DF0C94D408AA93E981EA93A9812A
:10097400EDDFE0910002F0910102EE5FFD4FE081B6
:100984000C94D408AA930E941F0AA881A083C2DFF2
:1009940087C0BA93AA930E94AE0CA39AAB9AA19A69
:1009A400A998A09AA29AA49AAC98AAE0B0E00E944E
:1009B400E60AAC9AEC81FD81309721F1E681E3707F
:1009C4001E2FEC81FD81E681E695E695E7700E2FFA
:1009D400EC81FD81E781EF773E2FAC81BD810E94E0
:1009E400820CE0936901F0936A0112960E94820CD2
:1009F400E0937E01F0937F01AC81BD8114960E9447
:100A0400820C0DC010E003E032E3E0E0F0E0E0939C
:100A14006901F0936A01E0937E01F0937F01E09312
:100A24008001F0938101A1E270DFE12FE460AE2F39
:100A34006CDFE02FE061AE2F68DFE32FE068AE2FBC
:100A440064DFA0E262DFA1E022D0E1E0E09365018F
:100A5400E0E0E0936601E1E0E0936B01E0936C0178
:100A6400E0936D01EFEFE0936E01E1E0E093750137
:100A7400E6E7F1E0FA93EA93EFEFEA93A8E0B0E057
:100A84000E94BB080FD0E1E00E94B50C60C0AA939D
:100A9400E881E03011F0ECE001C0E8E0AE2F35DF92
:100AA400219608950E94AE0C30E0E0916601E0309A
:100AB40009F03FEFE0E0EA93A0E048DF08EF11E03F
:100AC400F80101501040309719F0A32F5BDFF8CFE5
:100AD400E0E0EA93A0E040D30E94B50C0C943A09FC
:100AE400AA931A93ED81EA93AD813EDF1E2FE9812B
:100AF400E73011F0E83039F4EB81EA93AA810E94DF
:100B0400D608EB8308C0E33021F4EB81E095EB8356
:100B140002C0E03021F4EA81E0951E2302C0E230F5
:100B240029F4EA81AB81EA231E2B0EC0E13029F4BB
:100B3400EA81AB81EA231E2707C0E43029F4EA8165
:100B4400E095AB81EA2B1E23A12F1CDF188126968A
:100B54000895AA9323970E94AC0CA889A43548F45D
:100B6400AF85A03330F4AE85A03019F0AD85A03048
:100B740009F4CCC1EE85E887A889BB27EE85F0E0AF
:100B8400AE0FBF1FA535E0E0BE0720F0A889E4E55D
:100B9400EA1BEE872D85AF85BB27ED85F0E0AE0F10
:100BA400BF1FD19720F0AF85E0E3EA1BED87A9854D
:100BB400A63009F05BC0EC85E13009F4A7C1E3304D
:100BC40039F4E0918001F0918101309709F49EC1DC
:100BD4000885ED85E695E695E6953E2FE22FE770CC
:100BE40019F4AD852A17E9F0A02FBB27E32FF0E015
:100BF4000E94460CAA85BB850E942A0A2695269542
:100C04002695532F5F935F5FE22FAF91EA1748F069
:100C1400102FE12F1150E03019F00E942F0AF9CF64
:100C2400F1CFAE850A1711F1EE85AA85BB85F0E0F8
:100C34000E942A0AED85E77009F03F5F20E02F93B8
:100C44002F5FE32FAF91AE1788F41E851F931F5FAC
:100C5400E02FAF91AE1718F40E942F0AF7CFEE855C
:100C6400AE81BF81F0E00E942A0AE9CFEF85E770E8
:100C74003E2FED85E03009F449C1EA85FB85EE831A
:100C8400FF8310E00889303009F063C0AD85A830D7
:100C940008F45AC0E985E03011F0E33009F402C0E9
:100CA400E73009F402C0E83009F402C0E93009F47D
:100CB40002C0EA3021F40A93A88948DE04C0E63071
:100CC40011F40E943C0A1F931F5FEE85AF91AE178B
:100CD400A0F5A985A63051F40E94400AFA93EA933C
:100CE4000E941F0AA0810E941D0926C0E985E930DF
:100CF40011F450E00EC0EA3011F45FEF0AC00E9414
:100D0400400A0E94490A5E2FE985E73011F0E83075
:100D140021F40E944F0A5E2F06C0E33011F450956F
:100D240002C0E03019F4A52FF5DD06C00E94530A75
:100D3400EFEFEA93AD85D4DEC6CFEF85E85FEF87AA
:100D4400ED85E850ED87D9C05D8520E0E0E0ED87D2
:100D54007EC0E32FAD85AE0FA93020F42D85E0E0F1
:100D6400ED8703C0E8E0E31B2E2F3A93A22F0E94E5
:100D7400CB084E2FE985E63011F50E943C0A1F93FB
:100D84001F5FEE85AF91AE17C8F40E941F0AE08181
:100D9400E423AE2FE32F0E94390C0E94590AE32F5B
:100DA400A42F0E94390CE095E1215E2B0E94400A99
:100DB400FA93EA93A52F0E941D09E1CF2CC0E930D4
:100DC40011F450E003C0EA30A9F45FEF0E944F0A27
:100DD400AE2FE32F0E94310C5E2F1F931F5FEE8511
:100DE400AF91AE1730F40E94530A4A93A0E078DE24
:100DF400F4CF11C01F931F5FEE85AF91AE1758F467
:100E04000E94640AAE2FE32F0E94310CEA934A93A6
:100E1400AD8566DEEFCFED85E03009F477C0AD85B2
:100E2400A83028F4ED85E21B5E2FE0E003C0532FC9
:100E3400ED85E850ED8710E0EF85E85FEF87E8E0A7
:100E4400E31B2E2F0889EA85FB85EE83FF83E52FBC
:100E5400F0E0E85CFD4F4491E985E63011F50E942D
:100E64003C0A1F931F5FEE85AF91AE17C8F40E9432
:100E74001F0AE081E423AE2FE22F0E94310C0E946E
:100E8400590AE22FA42F0E94310CE095E1215E2B38
:100E94000E94400AFA93EA93A52F0E941D09E1CF0C
:100EA4002CC0E93011F450E003C0EA30A9F45FEF3C
:100EB4000E944F0AAE2FE22F0E94390C5E2F1F931F
:100EC4001F5FEE85AF91AE1730F40E94530A4A9328
:100ED400A0E006DEF4CF11C01F931F5FEE85AF9133
:100EE400AE1758F40E94640AAE2FE22F0E94390C08
:100EF400EA934A93AD85F4DDEFCFE885AA85BB85F7
:100F0400F0E0EA0FFB1FEA87FB87B3CE0E94B30C25
:100F1400619608950E94710A24F0E0E0F0E00C94D8
:100F2400D408A881B981A435E0E0BE0724F0E3E544
:100F3400F0E00C94D408E881F9810C94D4080E9460
:100F4400710A24F0E0E0F0E00C94D408A881B9819F
:100F5400D09724F0EFE2F0E00C94D408E881F98112
:100F64000C94D408BA93AA9323970E94780A8F0109
:100F7400002E012A19F4E0E0F0E05FC00E947F0A2D
:100F84000F820E947F0A0E820E947F0A0886EB85E8
:100F9400A885EA1718F4E0E0F0E04FC0F8010F5F0D
:100FA4001F4F5491A885BB27EE27A50FBE1FEB85C5
:100FB400F0E0EA17FB0718F0E0E0F0E03EC0EE8155
:100FC400E695E695E6954E2FEE81E77009F04F5FC2
:100FD400EF81E030A1F0A985BA85EC93A885EB8573
:100FE400EA1BF0E0DF01EF81F0E00E94460CDF0134
:100FF400E42FF0E00E94460CE00FF11F1EC09801A0
:10100400E52FF0E00E0F1F1FA885AF5FA887A15042
:10101400EB85AE1760F4F9012F5F3F4FA491B0E068
:10102400E42FF0E00E94460C0E0F1F1FEDCFF901D4
:10103400E491A985BA85EC93F8010E94B30C2C962F
:101044000895E0E0E0936701A0916801BB270E9446
:10105400840AF0E0AE0FBF1FE0916C01F0E0AE0F28
:10106400BF1F6DDFE09368010895AA9321970E9442
:10107400780A309709F455C0AF81AA3009F44FC0FB
:10108400EF81EA93DE0117966DDFAF01309709F423
:101094004AC0E0916B01AE81EA0F3E2FA091670137
:1010A400BB27F0E0EA0FFB1F8F010535E0E01E07C8
:1010B40018F0032F1127C5DFE0916701EA93E0914F
:1010C4006801EA93E885EA930E94840AEA93E1E0DE
:1010D400EA935A934A93A7E03CDDE0916701AE811D
:1010E400EA0FEA93E0916801EA93E0916B01EA93D5
:1010F4000E94840A0E948B0AE0916701EA93A091FE
:1011040068010E94840AEA0FEA933A93E0916C0121
:101114000E948B0AE4E5F0E0E017F10711F491DF97
:1011240002C0009367010E94B30C28960895BA93F5
:10113400AA931A93EC81EA93AC810ED0A981BA8167
:10114400ED91A983BA831E2FE03019F0A12F8DDF12
:10115400F5CF18810C94C908AA93A981BB27DADEBC
:10116400E0936701A881BB27EADEE09368010C9451
:10117400D408BA93AA93B981A881109631F0FC815E
:10118400EB816A8161931197E9F7EB81FC812596E4
:101194000895AA93E881F0E0E85CFD4FA491E98109
:1011A4000E94310C22960895AA931A93E981E7309C
:1011B40011F0EA3019F41091650109C0E93019F40D
:1011C4001091660104C0E830A1F410917501E0911A
:1011D4006601E03049F0103019F0EFEF188129C0B2
:1011E400EA81E095188125C0103019F4E0E01881F7
:1011F40020C0EA8118811DC0BA93AA93EA81E13024
:1012040021F4E881F981E49114C0E23029F4A88141
:10121400B9810E948B0C0DC0E33041F4A881B981DF
:10122400E0917E01F0917F01099503C0A881B98105
:10123400EC9123960895AA93EB81E03029F4E88198
:10124400A981BA81EC9314C0E23031F4E881A98118
:10125400BA810E94970C0CC0E33051F4E981FA8101
:10126400FA93EA93AA81E0918001F09181010995B2
:10127400249608950E948401E0EDEA930895EA9388
:10128400A0E0F8CF2497E0E0E883E983EA83EB83E6
:101294001A9314E60895EA93A0E00C9467010E945F
:1012A400410C0E94560B0E94860C0895E0E0F0E089
:1012B40068EC72E40E94E00BA981BA818B819C8165
:1012C4000E94900BE983FA836B837C838BE18A957C
:1012D400F1F70895E981FA816B817C810895E0E05A
:1012E400E983EA83EB83EC8314E60895E093DE015B
:1012F400F093DF016093E0017093E1010895E093BE
:10130400DA01F093DB016093DC017093DD01089551
:10131400E093D601F093D7016093D8017093D9017B
:101324000895A091D601B091D7018091D8019091F0
:10133400D9010895E0E0F0E068EC72E40E94E00B6B
:10134400A981BA818B819C810E94900BE983FA83E5
:101354006B837C8383E08A95F1F70895A091DA0189
:10136400B091DB018091DC019091DD010895A091A1
:10137400DE01B091DF018091E0019091E1010895D7
:10138400E093E201F093E3016093E4017093E501DB
:101394000895E093E601F093E7016093E801709308
:1013A400E9010895E093EA01F093EB016093EC0105
:1013B4007093ED010895E3E3F3E363E871E40E94BD
:1013C400E00B0895A091FE01B091FF010895E09310
:1013D400FE01F093FF0108950E943708F3CFE8EE71
:1013E400F3E00E94610CDF01EAE0F0E00E94660C89
:1013F400E05DAE2F0895E4E6F0E00E94610CDF01A9
:10140400EAE0F0E00E94660CE05DAE2F0895EAE0A9
:10141400F0E00E94610CDF01EAE0F0E00E94660C5B
:10142400E05DAE2F08950E943708E091FE01F0912F
:10143400FF010E94250CDF010895A0E0B2E0ED91C8
:10144400FD913196FE93EE933197EE5FFD4F089533
:10145400EA0FFB1FEE83FF830895EC85EA93EF8187
:10146400F8853196EF83F8873197FA93EA93A0E0F1
:101474000C941D090A93A8890C949104EC85EA93B1
:10148400EF81F8853196EF83F887319708956627C1
:101494007727DF01CB010C94FE085A93AA850C949C
:1014A400D6080A930395E889EA935A9308955E2F20
:1014B400EC85EA93AF81B885882799270E94FE08B6
:1014C4001E2E08950A930395E889EA93EE85EA931C
:1014D400E985FA853196E987FA873197D8CFBA93A7
:1014E400AA93A881B9810E94A80C08950E94AC0C0B
:1014F400E0916901F0916A010895F8010F5F1F4FAF
:1015040004900895E0916901F0916A013196E491A3
:101514000895EA93E0E0EA93E0E0F0E0FA93EA93D6
:10152400A9E00C94AB05C098C198B89AB99815C0B5
:10153400B998B898EE270000B19B0895B09B089520
:1015440004D0B99A02D0B89AE1E06DE007C0B99A24
:10155400B89A03D0B898F9DFB9986BE16A95F1F7B6
:10156400089578E0B898F1DFB09BFECFEEDF889461
:10157400B1990894B89AF1DFEE1F7A9599F77A2F0A
:10158400772311F4B99801C0B99ADFDFB898E5DF81
:10159400B89ADBDFB998D9CF78E0AA0F10F4B998DC
:1015A40001C0B99ADADFB898D0DFB09BFECFCDDFA7
:1015B400B89A7A9591F7B998C8DFB898CEDFE1E088
:1015C400B199EE27B89AC1CF109639F080ED97E023
:1015D4000197F1F7A8951197C9F70895552342F497
:1015E400503811F4E0FF04C03196691F791F6BF085
:1015F40050E8572711F45F93CFC05F3F31F0660F77
:10160400000C57956795752F08955F9300200AF095
:10161400CFC0C8C050E8192E1522880F991F9527EE
:10162400550F879550E8072E0522660F771F7527FB
:10163400550F67950895689401C0E8945F93F2DFAD
:10164400703818F07F3F08F4A7C056E1571BAAF47E
:10165400519558300EF4593030F0EFEFFFEF6FEF43
:101664007FE777F91AC077275523B9F0EE0FFF1FEC
:10167400661F771F5A95D1F710C07727583028F086
:10168400EF2FF62F672F5850F9CF552331F0769569
:101694006795F795E7955A95D1F700200AF4D7D0C6
:1016A4005F910895689401C0E89430976040704059
:1016B400B1F0002426F0772312F40094C8D0172E3A
:1016C4007EE1112032F07A95EE0FFF1F661F111C88
:1016D400F9CFEF2FF62F612D5F938ADF5F91089585
:1016E4004F93AF01FD01DA01AB01BC01CA01402DEA
:1016F400012C142E4F910895EA0FFB1F681F0895C3
:10170400E095F0956095EF5FFF4F6F4F08955F93FD
:1017140081DF903871F150E8152604C05F937ADFB9
:10172400903839F1703821F1572F591B2BF112F4ED
:10173400D7DFFACF583118F0AA27BB2788275830AB
:1017440028F0AB2FB82F88275850F9CF552329F00C
:101754008695B795A7955A95D9F7502D512572F0CE
:10176400CBDF38F46795F795E795739513F420C0AC
:10177400B7DF3EDF5F910895D8F7FBCFEA1BFB0B81
:10178400680B51F010F40094BBDF662392F3EE0F64
:10179400FF1F661F7A95CBF7EE27FF27662777276B
:1017A4005F910895EFEFFFEF6FE77FEF5F9108958B
:1017B400EFEFFFEF6FE77FE75F9108955F932ADF15
:1017C400703821F411200AF4EDCFF2CF903809F4E7
:1017D400E3CF01240894970B1BF4D4F30020F3CF38
:1017E400792F1F932F933F934F931124112722276F
:1017F40033274427552790E2AE17BF0786074107D2
:1018040030F0AE1BBF0B860B410B089401C08894CB
:10181400551F221F331F111CAA1FBB1F881F441FE3
:101824009A9551F7F901612D4F913F912F911F9195
:10183400662332F0550FEE1FFF1F661F7A9543F2A1
:10184400CDDE5F910895F195E195F0400895F0950E
:1018540060957095E195FF4F6F4F7F4F0895EE238C
:101864000E2EEA2F19F0EE0F0A94E9F70895EE23ED
:101874000E2EEA2F19F0E6950A94E9F708956F2FD2
:10188400660F660B762F0895FA9FF02DEB9FF00DEF
:10189400EA9FE02DF10D08950024112490E1AA0F90
:1018A400BB1F001C111C0E1A1F0A18F40E0E1F1E5B
:1018B40001C0A1609A9599F7FD01D001089512D055
:1018C400EBDF0EF4C0DF0895E894B7FF04C0A095E1
:1018D400B09511966894F7FDB6DFDEDFFD010EF4D6
:1018E400B2DF0895E894F7FF02C0ADDF6894B7FF54
:1018F40006C0A095B095119600F8039400FA0895D7
:10190400ED91FC9111970895ED93FD936D937C9364
:101914000895E199FECFFF93FFB7F894AEBBBFBB28
:10192400E09AEDB3FFBFFF910895E19B02C0A89533
:10193400FCCF9FB7F894AEBBBFBBE09A8DB3E8175A
:1019440019F0EDBBE29AE19A9FBF089500240A16AC
:101954000B0608955A934A933A932A931A930A9337
:1019640008955D814C813B812A8119810881089504
:00000001FF
