:020000000C945E
:1000020038000C9400000C9400000C9400000C9436
:1000120000000C9400000C9400000C9400000C945E
:1000220000000C9400000C9400000C9400000C944E
:1000320000000C9400000C9400000C9400000C943E
:1000420000000C9400000C9400000C9400000C942E
:100052000000000000000000423A00523A0080C056
:100062000600060054000200640160000000F894DB
:10007200EE27ECBBF1E0FBBFEBBFE5BF8DE0A2E0FA
:10008200BB27ED938A95E9F780E094E0A0E6ED9333
:100092000197E9F7E2E6F0E085919591009761F02A
:1000A200A591B59105901590BF01F00105900D92B3
:1000B2000197E1F7FB01F0CFEFE5EDBFE4E0EEBF22
:1000C200C0E6D1E00C940B02AA931A930E94E104B9
:1000D200A0EC0E941505A9810E9415050E94E10469
:1000E200A1EC0E941505A0E00E94FA041E2F0E94B6
:1000F200F004E12F18810C94F303AA93E881E064E1
:10010200E7B98BE18A95F1F7369A349BFECF349AA0
:10011200E4B1F5B10C945E04BA93AA93AE81BF81A7
:10012200A030E1E0BE0724F0EFEFF0E0EE83FF83C2
:10013200AC81BD81A030E1E0BE0724F0EFEFF0E03A
:10014200EC83FD83A881B981A030E1E0BE0724F0F1
:10015200EFEFF0E0E883F983AA81BB81A030E1E010
:10016200BE0724F0EFEFF0E0EA83FB83AE81BF81AC
:10017200A130EFEFBE0724F4E1E0FFEFEE83FF834F
:10018200AC81BD81A130EFEFBE0724F4E1E0FFEFC7
:10019200EC83FD83A881B981A130EFEFBE0724F47F
:1001A200E1E0FFEFE883F983AA81BB81A130EFEFA1
:1001B200BE0724F4E1E0FFEFEA83FB83A981AA23CF
:1001C20022F0C29AC498E88107C0A981AA232AF41E
:1001D200C298C49AE881E195ECBFAB81AA232AF0C8
:1001E200909A9198EA81FB8109C0AB81AA2342F4DB
:1001F2009098919AEA81FB810E943705F9BDE8BD8A
:10020200AD81AA232AF0929A9398EC81FD8109C0CC
:10021200AD81AA2342F49298939AEC81FD810E94C7
:100222003705FBBDEABDAF81AA2322F0969AAB98AF
:10023200EE8107C0AF81AA232AF49698AB9AEE8189
:10024200E195E3BD28960895EFEFF3E04F01AA246C
:10025200BB24E0E1F0E0AE16BF0694F5D501E8E07C
:10026200F0E00E94600411F4C79801C0C79AD5015A
:10027200E4E0F0E00E94600411F4C69801C0C69A5E
:10028200D501E2E0F0E00E94600411F4DF9801C0C1
:10029200DF9AF501A1E0B0E00E946105E03011F4BF
:1002A200DE9801C0DE9AA0E028DFE815F90520F407
:1002B2006501A0E022DF4F01F50131965F01C9CF50
:1002C200E0E00E946804D6010E946B04D6010E94FD
:1002D2007704ADE30E940104D401E8EEF3E00E944A
:1002E2007E04D4010E948204D4010E946B04D401D2
:1002F2008CC0A1E0E9DEF0E0E619F7092F01002445
:10030200401450040CF42201E0E8F0E0E415F50595
:1003120024F4EFEFF0E04E1A5F0AE0E8FFEF4E162A
:100322005F0624F4F201E150FF4F2F01F2010E9417
:1003320037052F0100244014500474F0E8E00E94B5
:100342006804ABE20E940104D2010E948204D2013D
:100352000E946B04D20114C0002440145004A4F47F
:10036200E8E00E946804ADE20E9401040E94850454
:100372000E9482040E9485040E946B040E948504EC
:10038200EAE0F0E00E948A04ECEEFFEF4E165F0610
:100392002CF0E4E1F0E0E415F5050CF402C0440CA5
:1003A200551CA1E0AADEE0936201F0936301E0E054
:1003B200EA93A1E00E94E403AAE5B0E00E942104CE
:1003C2000E948F040E9482040E948F040E946B0488
:1003D2000E948F040E947704A2E08FDEE093600106
:1003E200F0936101E5E0EA93A1E00E94E403ADE548
:1003F200B0E00E9421040E9494040E9482040E94A0
:1004020094040E946B040E949404EAE0F0E00E94CB
:100412008A040895E0ECEABBE0E0EBBBECEFE7BB5B
:10042200E0E0E8BBE8E0E4BBE0E0E5BBEFEFE1BB26
:10043200E0E0E2BBEBE6E3BFE0E0E2BFECBFE1EA13
:10044200EFBDEBE0EEBDE0E0EDBDECBDE7BDE6BD2E
:10045200EBBDEABDE9BDE8BDE2BDECE6E5BDE0E02D
:10046200E4BDE3BDE9BFE5BFE4BFEAB9E0E8E8B94E
:10047200E0E4E7B9E7E8E6B9E0E0E0BFEDB9E6BFFE
:100482000E94DC04A0E10E943404A8EBBBE00E94BD
:100492002D05A1E019DE6E2E7724D6DE2ADFE4EFE9
:1004A200F1E08E169F060CF057C10E949404AF35FE
:1004B200E1E0BE070CF48FC0C7DE1BDF0E9494048C
:1004C200A139E1E0BE075CF00E9499040E94A004F9
:1004D200F2010E94A004D201A058BF4F7AC0E8E006
:1004E200F0E0EC15FD0539F40E94A5040E94A00479
:1004F2000E94AC046EC0E9E0F0E0EC15FD0539F4B1
:100502000E94B5040E94A5040E94BA0462C0EAE0F7
:10051200F0E0EC15FD0559F40E9499040E94C10413
:10052200F2010E94A004D201AF5FB04052C0EBE0E2
:10053200F0E0EC15FD0559F4F2010E94C1040E949D
:1005420099040E94C604D201A058B04042C0ECE017
:10055200F0E0EC15FD0539F40E94A5040E94CB04DD
:10056200EF5FF04032C0EDE0F0E0EC15FD0539F44C
:100572000E94A5040E94A0040E94AC042AC0EEE0DE
:10058200F0E0EC15FD0559F40E94A5040E94C60492
:10059200F2010E94C604D201A150BF4F1AC0EFE07F
:1005A200F0E0EC15FD0559F40E9499040E94C6047E
:1005B200F2010E94A004D201A150BF4F0AC00E94C2
:1005C200B5040E94B504F2013096FA93EA93D2017F
:1005D2001096A2DD6ACF0C2C0D2849F4F2010E947C
:1005E200C604FA93EA93F201E150FF4FAEC0E1E094
:1005F200F0E0EC15FD0549F4F2010E94C60498D121
:10060200BFD1D201A058B040A5C0E2E0F0E0EC15A5
:10061200FD0541F4F201B9D197D1B2D1D201AF5F58
:10062200B04098C0E3E0F0E0EC15FD0559F4F201AA
:1006320086D18AD1E058FF4FFA93EA93D201AF5F95
:10064200B04088C0E4E0F0E0EC15FD0521F48CD167
:100652007BD18FD17FC0E5E0F0E0EC15FD0541F4E0
:1006620067D18ED1F2016BD1D201AF5FB04072C0BF
:10067200E6E0F0E0EC15FD0541F4F20181D158D13C
:1006820084D1D201A058B04065C0E7E0F0E0EC159B
:10069200FD0531F459D17ED178D1D20110965AC0DC
:1006A200E8E0F0E0EC15FD0521F44ED148D153D13C
:1006B20051C0E9E0F0E0EC15FD0521F455D144D13B
:1006C20058D148C0EAE0F0E0EC15FD0541F430D124
:1006D20057D1F20134D1D201AF5FB0403BC0EBE061
:1006E200F0E0EC15FD0541F4F2014AD121D14DD1E2
:1006F200D201A058B0402EC0ECE0F0E0EC15FD05B0
:1007020031F422D147D141D1D201109623C0EDE07C
:10071200F0E0EC15FD0521F417D111D11CD11AC05E
:10072200EEE0F0E0EC15FD0531F40ED12ED1F20130
:10073200EF5FF0400AC0EFE0F0E0EC15FD0559F480
:10074200F7D023D1F201E058F040FA93EA93D201B4
:10075200A150BF4FE1DC15C0E1D0A639E0E0BE07F1
:1007620054F4F2010DD1FA93EA93F2010ED1D201BF
:10077200AF5FB04005C0F8D0F7D0F6D0D2011096E6
:10078200CBDC8BCEFFCFAA93E5B3EF70AE2FE8811F
:10079200E07FEA2BE5BB8DE08A95F1F7AA9A8DE01E
:1007A2008A95F1F7AA988DE08A95F1F786C0AA9307
:1007B200A881E9DFE881E295E883A881E4DF85E8A2
:1007C2008A95F1F77AC0AA93E881F0E0EC59FE4FDE
:1007D200E081A981AE0FEBDFE981E0936801E88156
:1007E200E093690122960895A2E0D9D0ACE0DFDF60
:1007F200A1E0D5D0E0E0E0936901E09368010895BB
:10080200AA93A881AA3031F0E0916A01A09168010F
:10081200AE1760F0E0E0EA93A0916901AF5FA093A8
:100822006901D1DFA881AA3009F447C0E0916801CB
:10083200EF5FE0936801A89AA881B9DFA8983DC04C
:10084200BA93AA931A93E981FA813196E983FA83DA
:100852003197E4911E2FE03019F0A12FD1DFF3CFB1
:10086200188123960895AA93E4B3E06FE4BBA29A99
:10087200A09AA19AAA98A898A998E881E0936A01F7
:10088200E058E0936601E881E054E0936701A4E157
:10089200B0E00E942D0588D087D086D0A0E273DF19
:1008A20088EC90E00197F1F7A8E281DFA4E07FDF16
:1008B200A5E87DDFA6E07BDF97DF219608950E9401
:1008C2004E05A1E0B0E00E946105E0300895EA9390
:1008D200A0E079CFEAE0F0E00E944E05DF01EAE015
:1008E200F0E00E945305E05DAE2F8ACFEAE0F0E02F
:1008F2000E945305E05DAE2F83CF0E944E05DF01BB
:10090200F5CFE4E6F0E0F9CFF2010E943705DF010E
:1009120008950E945305E05DAE2F72CFA09162014F
:10092200B09163010895A0916001B09161010895B1
:10093200F201E058FF4FFA93EA93F2010895E0586A
:10094200F040FA93EA930895F201E150FF4FFA93CF
:10095200EA93F2010895F201EF5FF040FA93EA930D
:10096200D201A058BF4F0895F2013096FA93EA934C
:1009720008953096FA93EA93D201AF5FB04008959A
:10098200E150FF4FFA93EA930895EF5FF040FA9334
:10099200EA9308953096FA93EA93F201089507DFF5
:1009A200A3E0B0E00C942D05A0E3EDDE88EC90E02E
:1009B2000197F1F70895C098C198B89AB99815C0EF
:1009C200B998B898EE270000B19B0895B09B08959E
:1009D20004D0B99A02D0B89AE1E06DE007C0B99AA2
:1009E200B89A03D0B898F9DFB9986BE16A95F1F734
:1009F200089578E0B898F1DFB09BFECFEEDF8894DF
:100A0200B1990894B89AF1DFEE1F7A9599F77A2F87
:100A1200772311F4B99801C0B99ADFDFB898E5DFFE
:100A2200B89ADBDFB998D9CF78E0AA0F10F4B99859
:100A320001C0B99ADADFB898D0DFB09BFECFCDDF24
:100A4200B89A7A9591F7B998C8DFB898CEDFE1E005
:100A5200B199EE27B89AC1CF109639F080ED97E0A0
:100A62000197F1F7A8951197C9F70895F195E195C6
:100A7200F04008950024112490E1AA0FBB1F001C2E
:100A8200111C0E1A1F0A18F40E0E1F1E01C0A160BF
:100A92009A9599F7FD01D00108951CD0EBDF0EF471
:100AA200E5DF0895E894B7FF04C0A095B0951196CC
:100AB2006894F7FDDBDFDEDFFD010EF4D7DF08957A
:100AC200E894F7FF02C0D2DF6894EA23FB230EF416
:100AD200CDDF0895E894F7FF02C0C8DF6894B7FF3E
:100AE20006C0A095B095119600F8039400FA0895F7
:00000001FF
