:0E0000000C942F000C9400000C9400000C9443
:10000E0000000C9400000C9400000C9400000C9462
:10001E0000000C9400000C9400000C9400000C9452
:10002E0000000C9400000C9400000C9400000C9442
:10003E0000000C9400000C9400000C9400000C9432
:10004E0000000C94000000000200040054000000A8
:10005E00F894EE27ECBBF1E0FBBFEBBFE5BF8DE004
:10006E00A2E0BB27ED938A95E9F780E094E0A0E645
:10007E00ED930197E9F7E6E5F0E08591959100970C
:10008E0061F0A591B59105901590BF01F001059015
:10009E000D920197E1F7FB01F0CFEFE5EDBFE4E044
:1000AE00EEBFC0E6D1E00C945C00E0E0EABBEBBB37
:1000BE00E7BBE8BBE4BBE5BBEFEFE1BBE0E0E2BBD7
:1000CE00E3BFE2BFECBFE1EAEFBDEBE0EEBDE0E087
:1000DE00EDBDECBDE7BDE6BDEBBDEABDE9BDE8BDDE
:1000EE00E2BDE5BDE4BDE3BDE9BFE5BFE4BFEAB9EE
:1000FE00E0E8E8B9E0E0E0BFE6B9EDB9E6BF4424D8
:10010E00552427D03CF4909AA1E028D0F2013196E4
:10011E002F01F7CF442455241CD074F4909A88EB09
:10012E009BE00197F1F79098A3E0B0E00E94BD002C
:10013E00F20131962F01F0CF442455240AD03CF41D
:10014E00909AA3E00BD0F20131962F01F7CFD7CFC3
:10015E00FFCFE8EEF3E04E165F060895B0E00E9482
:10016E00BD009098A3E0B0E00C94BD00109639F05D
:10017E0080ED97E00197F1F7A8951197C9F70895CB
:00000001FF
