:1000000047C0FECFFDCFFCCFFBCFFACFF9CFF8CF63
:10001000F7CFF6CFF5CF68C0F3CFF2CFF1CFF0CF67
:10002000EFCFEECFEDCF1027E80364000A00010008
:100030000010000110000100000000000000583A0C
:10004000005F593A005F5F5F5F5F5F5F5F5F5F5FA9
:100050005F5F5F5F5F5F5F5F5F5F5F5F000001002B
:100060002D4E414E00494E4600000100020038006E
:10007000040004003A00030060013E000400630134
:1000800041001800670145000100F9015E00000011
:10009000F894EE27ECBBF1E0FBBFEBBFE5BF8DE0D2
:1000A000A2E0BB27ED938A95E9F780E094E0A0E613
:1000B000ED930197E9F7EAE6F0E0859195910097D5
:1000C00061F0A591B59105901590BF01F0010590E3
:1000D0000D920197E1F7FB01F0CFEFE5EDBFE4E012
:1000E000EEBFC0E6D1E0DAC1EA93FA93EFB7EA9344
:1000F000E4D41BB10CB1E12FEC71B1F4E52D5394B4
:10010000F0E0E158FE4F0083E8E0E51509F45524DE
:100110007394E8E0E71519F47724689420F80F3613
:1001200011F4929A01C0929809911991E991EFBF47
:10013000F991E9911895AA931A9322D3AB8154D3DC
:10014000AA8152D31DD3AB81AF5F4ED348D2A981D0
:1001500030D31E2F24D3E12F188124960895AA931B
:100160000FD3AA8141D3A9813FD3A8813DD317D30F
:100170002396089538D2E9E1EA93A4E037D2EAE180
:10018000EA93A3E033D2EBE1EA93A8E12FD2ECE1CA
:100190002FD2E3E22DD2EDE12BD2EEE129D2EFE135
:1001A00027D2E0E225D2E1E223D2E2E221D2E4E268
:1001B0001FD2E5E21DD2E6E21BD2E7E219D2E8E265
:1001C00017D2E9E215D2EAE213D2EBE211D2ECE265
:1001D0000FD2EDE20DD2EEE20BD2EFE209D2E0E374
:1001E00007D2E1E305D2E2E303D2E3E301D2E4E3A1
:1001F000FFD1E5E3FDD1E7E3FBD1E8E3F9D1E3E6A5
:10020000F7D1E4E6F5D1E5E6F3D1E6E6F1D1E7E6AC
:10021000EFD1E8E6EDD1E9E6EBD1EAE6E9D1EBE6AC
:10022000EA93A1E0E3D1ECE6E3D1E4E7E4D197DFA0
:100230000895E4D1ECD199F0D6D1EBE3DCD1EBD148
:10024000FF93EF93D0D1ECE3D6D175DFAF91BF919F
:10025000E6D1ABEAB1E0E7D1EAD1F2D1EBCFFFD101
:10026000E093AB01F093AC016093AD017093AE01EC
:10027000FBD1CDD199F0B7D1EDE3BDD1CCD1FF9376
:10028000EF93B1D1EEE3B7D156DFAF91BF91C7D1B4
:10029000AFEAB1E0C8D1EFD1D3D1EBCFE0D1E09359
:1002A000AF01F093B0016093B1017093B201DCD162
:1002B000AED199F098D1EFE39ED1ADD1FF93EF93FA
:1002C00092D1E0E498D137DFAF91BF91A8D1A3EBF1
:1002D000B1E0A9D1D9D1B4D1EBCFC1D1E093B30171
:1002E000F093B4016093B5017093B601D4C07BD193
:1002F000EBE381D190D1FF93EF9375D1ECE37BD108
:100300001ADFAF91BF918BD1A7E8B1E08CD16BD14F
:10031000EDE371D180D1FF93EF9365D1EEE36BD123
:100320000ADFAF91BF917BD1ABE8B1E07CD15BD16B
:10033000EFE361D170D1FF93EF9355D1E0E45BD14E
:10034000FADEAF91BF916BD1AFE8B1E06CD16FD164
:10035000E0918701F09188016091890170918A0193
:10036000FED29BD1E0918B01F0918C0160918D01C7
:1003700070918E0180D1F3D299D1E0918F01F091EB
:10038000900160919101709192017ED1E8D297D154
:10039000A0919F01B091A0018091A1019091A20133
:1003A00097D17BD1A091A301B091A4018091A50127
:1003B0009091A6018DD17AD1A091A701B091A80109
:1003C0008091A9019091AA0183D179D1089516D184
:1003D000E0E0F0E060E070E081D189D191D117D107
:1003E000D1F001D1E3E407D116D1FF93EF93FBD015
:1003F000E4E401D1A0DEAF91BF9111D1ABEDB1E04A
:1004000012D1A091DB01B091DC018091DD019091CE
:10041000DE017FD1E4CF23D173D126D1F8D0D1F042
:10042000E2D0E5E4E8D0F7D0FF93EF93DCD0E6E448
:10043000E2D081DEAF91BF91F2D0AFEDB1E0F3D069
:10044000A091DF01B091E0018091E1019091E20182
:1004500060D1E4CF04D14BD107D1D9D0D1F0C3D0F2
:10046000E7E4C9D0D8D0FF93EF93BDD0E8E4C3D080
:1004700062DEAF91BF91D3D0A3EEB1E0D4D0A09112
:10048000E301B091E4018091E5019091E60141D151
:10049000E4CFE5D023D1188125960895E0E0E7BBAD
:1004A000E8BBE4BBE5BBE4E0E1BBE0E0E2BBE3BF0B
:1004B000E2BFEFBDEEBDEDBDECBDE7BDE6BDEBBD02
:1004C000EABDE9BDE8BDE2BDE5BDE4BDE3BDE9BF10
:1004D000E5BFEBB9E8E9EAB9E6E8E0BDE0E0E0BD98
:1004E000E3E3E9B9E0E8E8B9E0E0E0BFE6B9EDB997
:1004F000E6BF41D178941FD11ED13CDE9ADE67DF82
:10050000F6DEA0918701B0918801809189019091D8
:100510008A0119D15F01A0918B01B0918C0180916A
:100520008D0190918E010FD16F0114D1EA15FB0559
:10053000B4F413D11CF0E1E5F0E00CC00ED114F4DA
:1005400010D10CF403C0E6E4F0E004C00AD134F4A6
:10055000E5E4F0E0E093F701F093F80134C0FAD05D
:10056000AE16BF0614F402D10CF416C0F6D01CF07F
:10057000ECE4F0E00CC0F1D014F4F3D00CF403C0C0
:10058000E3E5F0E004C0EDD034F4E2E5F0E0E09320
:10059000F701F093F80117C0E9D0ACF4DED01CF0FD
:1005A000EAE5F0E00CC0D9D014F4DBD00CF403C0C1
:1005B000E7E4F0E004C0D5D034F4E3E4F0E0E09305
:1005C000F701F093F801A091F70102D099CFFFCF86
:1005D000AA935D9BFECFE881ECB9219608958BE14B
:1005E0008A95F1F70895E0EDEA930895B8DDFBCF21
:1005F000EA93A0E0FBCFEA93A0E008952497E0E01F
:10060000E883E983EA83EB831A9314E60895E12FE4
:100610001150E03008958FDDFE2FE0E00895F0E006
:10062000EA2BFB2B08953FD267D142D20895A091C7
:10063000AB01B091AC018091AD019091AE010895F4
:10064000E0E0F0E068EC72E4E1D1A981BA818B814D
:100650009C818CD1E983FA836B837C83C0CFE98151
:10066000FA816B817C810895E0E0E983EA83EB8382
:10067000EC8314E60895A091AF01B091B001809190
:10068000B1019091B2010895A091B301B091B4016C
:100690008091B5019091B6010895E0939F01F09388
:1006A000A0016093A1017093A2010895E093A301BA
:1006B000F093A4016093A5017093A6010895E093BF
:1006C000A701F093A8016093A9017093AA0108956E
:1006D000E0E0F0E060E876E499D10895E093E3018A
:1006E000F093E4016093E5017093E6010895E093CF
:1006F000DF01F093E0016093E1017093E20108955E
:10070000E093DB01F093DC016093DD017093DE0187
:100710000895E0E0F0E068EC72E478D1A981BA8154
:100720008B819C8123D1E983FA836B837C8383E073
:100730008A95F1F70895929AA4E6B0E06DD0929868
:10074000A4E6B0E069C0E0E0F0E068EC72E45ED1FD
:100750009CD00895E0E5F0E00895FCDFCE16DF06BA
:100760000895E0EBFFEFCE16DF060895E0EBFFEF14
:10077000AE16BF060895AA98AB98A29AA39815C082
:10078000A398A298EE2700009B9B08959A9B08953A
:1007900004D0A39A02D0A29AE1E06DE007C0A39A28
:1007A000A29A03D0A298F9DFA3986BE16A95F1F7BA
:1007B000089578E0A298F1DF9A9BFECFEEDF88944F
:1007C0009B990894A29AF1DFEE1F7A9599F77A2FF8
:1007D000772311F4A39801C0A39ADFDFA298E5DF85
:1007E000A29ADBDFA398D9CF78E0AA0F10F4A398E0
:1007F00001C0A39ADADFA298D0DF9A9BFECFCDDFAB
:10080000A29A7A9591F7A398C8DFA298CEDFE1E08B
:100810009B99EE27A29AC1CF109639F080ED97E010
:100820000197F1F7A8951197C9F70895552342F458
:10083000503811F4E0FF04C03196691F791F6BF046
:1008400050E8572711F45F93CFC05F3F31F0660F38
:10085000000C57956795752F08955F9300200AF057
:10086000CFC0C8C050E8192E1522880F991F9527B0
:10087000550F879550E8072E0522660F771F7527BD
:10088000550F67950895689401C0E8945F93F2DF6F
:10089000703818F07F3F08F4A7C056E1571BAAF440
:1008A000519558300EF4593030F0EFEFFFEF6FEF05
:1008B0007FE777F91AC077275523B9F0EE0FFF1FAE
:1008C000661F771F5A95D1F710C07727583028F048
:1008D000EF2FF62F672F5850F9CF552331F076952B
:1008E0006795F795E7955A95D1F700200AF4D3D08C
:1008F0005F910895689401C0E8943097604070401B
:10090000B1F0002426F0772312F40094C4D0172EFF
:100910007EE1112032F07A95EE0FFF1F661F111C49
:10092000F9CFEF2FF62F612D5F938ADF5F91089546
:100930004F93AF01FD01DA01AB01BC01CA01402DAB
:10094000012C142E4F910895EA0FFB1F681F089584
:10095000E095F0956095EF5FFF4F6F4F08955F93BF
:1009600081DF903871F150E8152604C05F937ADF7B
:10097000903839F1703821F1572F591B2BF112F4AF
:10098000D7DFFACF583118F0AA27BB27882758306D
:1009900028F0AB2FB82F88275850F9CF552329F0CE
:1009A0008695B795A7955A95D9F7502D512572F090
:1009B000CBDF38F46795F795E795739513F420C06E
:1009C000B7DF3EDF5F910895D8F7FBCFEA1BFB0B43
:1009D000680B51F010F40094BBDF662392F3EE0F26
:1009E000FF1F661F7A95CBF7EE27FF27662777272D
:1009F0005F910895EFEFFFEF6FE77FEF5F9108954D
:100A0000EFEFFFEF6FE77FE75F9108955F932ADFD6
:100A1000703821F411200AF4EDCFF2CF903809F4A8
:100A2000E3CF01240894970B1BF4D4F30020F3CFF9
:100A3000792F1F932F933F934F9311241127222730
:100A400033274427552790E2AE17BF078607410793
:100A500030F0AE1BBF0B860B410B089401C088948D
:100A6000551F221F331F111CAA1FBB1F881F441FA5
:100A70009A9551F7F901612D4F913F912F911F9157
:100A8000662332F0550FEE1FFF1F661F7A9543F263
:100A9000CDDE5F910895F09560957095E195FF4FDB
:100AA0006F4F7F4F08956F2F660F660B762F089557
:100AB000ED93FD936D937C9308951A930A93089593
:00000001FF
