:080000000C9434010C94000083
:100008000C9400000C9400000C9400000C94000068
:100018000C9400000C9400000C9400000C94000058
:100028000C9400000C9400000C9400000C94000048
:100038000C9400000C9400000C9400000C94000038
:100048000C9400000C9400000C940000050720603C
:10005800000000000000005F000000070007001417
:100068007F147F14242A7F2A1223130864623649D6
:100078005522500005030000001C224100004122C7
:100088001C00082A1C2A0808083E080800503000EE
:100098000008080808080030300000201008040292
:1000A8003E5149453E00427F400042615149462148
:1000B80041454B311814127F1027454545393C4AB4
:1000C8004949300171090503364949493606494904
:1000D800291E00363600000056360000000814229B
:1000E8004114141414144122140800020151090681
:1000F800324979413E7E1111117E7F494949363E88
:10010800414141227F4141221C7F494949417F09A0
:100118000901013E414151327F0808087F00417FB3
:1001280041002040413F017F081422417F40404068
:10013800407F0204027F7F0408107F3E4141413E18
:100148007F090909063E4151215E7F091929464662
:100158004949493101017F01013F4040403F1F208B
:1001680040201F7F2018207F63140814630304783D
:100178000403615149454300007F414102040810CE
:100188002041417F000004020102044040404040F9
:10019800000102040020545454787F4844443838FD
:1001A80044444420384444487F3854545418087E02
:1001B800090102081454543C7F0804047800447D63
:1001C80040002040443D00007F10284400417F400B
:1001D800007C041804787C080404783844444438C3
:1001E8007C14141408081414187C7C0804040848A7
:1001F80054545420043F4440203C4040207C1C2060
:1002080040201C3C4030403C44281028440C5050AE
:10021800503C4464544C44000836410000007F00C0
:1002280000004136080002010204027F4141417F7B
:10023800000103070F1F3F7FFF001027E80364003A
:100248000A000100001000011000010001002D4EFD
:10025800414E00494E4600000100F70354020000D9
:10026800F894EE27ECBBF1E0FBBFEBBFE5BF8DE0F8
:10027800A2E0BB27ED938A95E9F780E094E0A0E639
:10028800ED930197E9F7E0E6F2E085919591009703
:1002980061F0A591B59105901590BF01F001059009
:1002A8000D920197E1F7FB01F0CFEFE5EDBFE4E038
:1002B800EEBFC0E6D1E00C94D404AA931A930E942E
:1002C8001F0FAB810E94530FAA810E94530F0E94F7
:1002D8001F0FAB81AF5F0E94530F8BE18A95F1F737
:1002E800A9810E94380F1E2F0E942E0FE12F18811E
:1002F80024960895AA930E941F0FAA810E94530F63
:10030800A9810E94530FA8810E94530F0E942E0FAB
:1003180023960895E0EDEA93E9E1EA93A4E00E94C8
:10032800590CEAE1EA93A3E00E94590CEBE1EA9345
:10033800A8E10E94590CECE10E945E0CE3E20E94E5
:100348005E0CEDE10E945E0CEEE10E945E0CEFE1B6
:100358000E945E0CE0E20E945E0CE1E20E945E0CEC
:10036800E2E20E945E0CE4E20E945E0CE5E20E947A
:100378005E0CE6E20E945E0CE7E20E945E0CE8E298
:100388000E945E0CE9E20E945E0CEAE20E945E0CAA
:10039800EBE20E945E0CECE20E945E0CEDE20E9431
:1003A8005E0CEEE20E945E0CEFE20E945E0CE0E35F
:1003B8000E945E0CE1E30E945E0CE2E30E945E0C88
:1003C800E3E30E945E0CE4E30E945E0CE5E30E9416
:1003D8005E0CE7E30E945E0CE8E30E945E0CE3E635
:1003E8000E945E0CE4E60E945E0CE5E60E945E0C4C
:1003F800E6E60E945E0CE7E60E945E0CE8E60E94D4
:100408005E0CE9E60E945E0CEAE60E945E0CEBE6F2
:10041800EA93A1E00E94590CECE60E945E0CE4E726
:10042800EA93A0E067DF08950E94610C14E6E12FCB
:100438001150E030A1F00E94690CFF93EF930E94E5
:10044800730CAF91BF91F0E0EA2BFB2BA1EAB1E06E
:100458000E947A0C0E94810C0E948A0CE8CF0E94AC
:100468009E0CE093A101F093A2016093A301709305
:10047800A4010E94A30CE12F1150E030A1F00E94CA
:10048800AA0CFF93EF930E94B40CAF91BF91F0E0D8
:10049800EA2BFB2BA5EAB1E00E947A0C0E94BB0C68
:1004A8000E948A0CE8CF0E949E0CE093A501F0936D
:1004B800A6016093A7017093A8010E94A30CE12FE5
:1004C8001150E030A1F00E94C40CFF93EF930E94FA
:1004D800CE0CAF91BF91F0E0EA2BFB2BA9EAB1E07B
:1004E8000E947A0C0E94D50C0E948A0CE8CF0E94C8
:1004F8009E0CE093A901F093AA016093AB0170935D
:10050800AC01A9C10E94610C12E3E12F1150E03047
:10051800A1F00E94690CFF93EF930E94730CAF91B6
:10052800BF91F0E0EA2BFB2BA9E8B1E00E947A0C1E
:100538000E94DE0C0E94E70CE8CF0E949E0CE0931C
:100548008901F0938A0160938B0170938C010E945A
:10055800FB0CE12F1150E030D1F00E94AA0CFF9360
:10056800EF930E94B40CAF91BF91F0E0EA2BFB2B04
:10057800ADE8B1E00E947A0CA0918D01B0918E0196
:1005880080918F01909190010E94E70CE2CF0E9428
:100598009E0CE0938D01F0938E0160938F01709310
:1005A80090010E94FB0CE12F1150E030D1F00E9425
:1005B800C40CFF93EF930E94CE0CAF91BF91F0E073
:1005C800EA2BFB2BA1E9B1E00E947A0CA0919101E2
:1005D800B091920180919301909194010E94E70C4F
:1005E800E2CF0E949E0CE0939101F09392016093F8
:1005F8009301709394010E94810C0E94020D0E9445
:1006080031100E940B0D0E94140D0E94BB0C0E9419
:1006180031100E941D0D0E94260D0E94D50C0E94CB
:1006280031100E942F0DA0919501B09196018091F3
:100638009701909198010E94380D0E940B0DA0918E
:100648009901B0919A0180919B0190919C010E941F
:10065800380D0E941D0DA0919D01B0919E018091C1
:100668009F019091A0010E94380D0E942F0DF3C0A8
:1006780049DF0E94260D0E943F0D7F936F93FF93E1
:10068800EF930E94140D0E943F0DAF91BF918F917F
:100698009F910E94470D0E94DE0C0E944D0DE09331
:1006A800AD01F093AE016093AF017093B0010E9469
:1006B800140D7F936F93FF93EF930E94260D0E9472
:1006C8003F0D7F936F93FF93EF930E94020D0E945B
:1006D8003F0DAF91BF918F919F910E94470DAF91B0
:1006E800BF918F919F910E944D0DE093B101F093BE
:1006F800B2016093B3017093B4010E94020D0E948D
:100708003F0D7F936F93FF93EF930E94140D0E9408
:100718003F0DAF91BF918F919F910E94470DDF01CF
:10072800CB010E94260D0E944D0DE093B501F09378
:10073800B6016093B7017093B80108950E94610CE7
:1007480014E60E945A0D0E945F0D0E94680D0E94D7
:10075800710DE12F1150E03011F1E0EDEA93E3E47F
:100768000E947A0DFE2FE0E0FF93EF93E0EDEA930D
:10077800E4E40E947A0DAF91BF91F0E0EA2BFB2BE5
:10078800A1EDB1E00E947A0CA091D101B091D20103
:100798008091D3019091D4010E947E0DDACF0E94FE
:1007A8009E0C0E94710D0E94A30CE12F1150E030A5
:1007B80011F1E0EDEA93E5E40E947A0DFE2FE0E006
:1007C800FF93EF93E0EDEA93E6E40E947A0DAF9190
:1007D800BF91F0E0EA2BFB2BA5EDB1E00E947A0C6B
:1007E800A091D501B091D6018091D7019091D801FF
:1007F8000E947E0DDACF0E949E0C0E94680D0E9416
:10080800A30CE12F1150E03011F1E0EDEA93E7E499
:100818000E947A0DFE2FE0E0FF93EF93E0EDEA935C
:10082800E8E40E947A0DAF91BF91F0E0EA2BFB2B30
:10083800A9EDB1E00E947A0CA091D901B091DA013A
:100848008091DB019091DC010E947E0DDACF0E943D
:100858009E0C0E945F0D18812596089509DFE0918E
:10086800AD01F091AE016091AF017091B0010E94AD
:10087800C70F3F016092F3017092F40100246014E5
:10088800700464F00E94920DE0E00E949C0DE0E08C
:100898000E94AE0DE0E0EA93D30113C00024601477
:1008A80070049CF4E7E0EA93E0E00E94C00D0E9427
:1008B800C70D0E94CE0D0E94C70D0E94DE0D0E943A
:1008C800C70DEAE0F0E00E94EE0DA091B101B091F1
:1008D800B2018091B3019091B4010E94F40D60922D
:1008E800F5017092F60100246014700464F00E940F
:1008F800920DEAE00E949C0DEAE00E94AE0DEAE04B
:10090800EA93D30113C00024601470049CF4E7E058
:10091800EA93EAE00E94C00D0E94000E0E94CE0DEC
:100928000E94000E0E94DE0D0E94000EEAE0F0E038
:100938000E94EE0DA091B501B091B6018091B7016A
:100948009091B8010E94F40D6092F7017092F8013D
:1009580000246014700464F00E94920DE4E10E9487
:100968009C0DE4E10E94AE0DE4E1EA93D30113C0CB
:100978000024601470049CF4E7E0EA93E4E10E9428
:10098800C00D0E94070E0E94CE0D0E94070E0E9405
:10099800DE0D0E94070EEAE0F0E00E94EE0D0895D9
:1009A8002897E0E0EABBEBBBE7BBE8BBE4BBE5BBF1
:1009B800EFEFE1BBE0E0E2BBE3BFE2BFECBFEFBDBE
:1009C800EEBDEDBDECBDE7BDE6BDEBBDEABDE9BDE5
:1009D800E8BDE2BDE5BDE4BDE3BDE9BFE5BFE4BFF9
:1009E800EAB9E0E8E8B9E0E4E7B9E7E8E6B9E0E061
:1009F800E0BFEDB9E6BF0E941A0FE4E5F0E0E88336
:100A0800F983E0E0EA83EB83EC83ED83EE81EC7F0E
:100A1800EE83E37EEC60EE83EF81E078E263EF83C0
:100A2800DE019DD077DC00DD89DE18DFA091F301BF
:100A3800B091F4010E94A3090E940E0EEA0FFB1F59
:100A4800E093F901F093FA01E8E2EA93E0E0EA932F
:100A58000E940E0E0E94130E0E940E0E0E941B0E84
:100A68000E940E0E0E94280EA091F501B091F60189
:100A78000E94A3090E94300EEA0FFB1FE093FB01BE
:100A8800F093FC01E8E2EA93EAE0EA930E94300E70
:100A98000E94130E0E94300E0E941B0E0E94300E00
:100AA8000E94280EC2CFFFCF0895AA931A93AB983D
:100AB80018E0FADFE981E07811F0A89A01C0A89857
:100AC800E981EE0FE983F0DFA99AEEDFA9981150CA
:100AD80081F7AB9A18813AC0AA93AA98A881E5DF52
:100AE800C5C0AA93AA9AA881E0DFC0C0AA931A93A6
:100AF800E981E695E695E6951E2FE4E5E19FF0018C
:100B0800DF01EA81F0E0EA0FFB1FE093FD01F093BB
:100B1800FE01E12F188123960895AA93E981E068E0
:100B2800AE2FDADFE981EA93A981E0DFE064AE2F36
:100B3800D3DF0CC0AA93E981EA93A981EEDFE091A3
:100B4800FD01F091FE01E150FE4FE08122960895EB
:100B5800AA930E94350EA881A083C3DF87C0BA93E9
:100B6800AA930E943012A39AAB9AA19AA998A09A24
:100B7800A29AA49AAC98AAE0B0E00E946B0FAC9A33
:100B8800EC81FD81309721F1E681E3701E2FEC8125
:100B9800FD81E681E695E695E7700E2FEC81FD81F3
:100BA800E781EF773E2FAC81BD810E94CF11E093A2
:100BB8006401F093650112960E94CF11E0937901C8
:100BC800F0937A01AC81BD8114960E94CF110DC0BB
:100BD80010E003E032E3E0E0F0E0E0936401F0933A
:100BE8006501E0937901F0937A01E0937B01F0933A
:100BF8007C01A1E271DFE12FE460AE2F6DDFE02F11
:100C0800E061AE2F69DFE32FE068AE2F65DFA0E279
:100C180063DFA1E022D0E1E0E0936001E0E0E0934F
:100C28006101E1E0E0936601E0936701E093680108
:100C3800EFEFE0936901E1E0E0937001E1E7F1E0B3
:100C4800FA93EA93EFEFEA93A8E0B0E00E94D80B9A
:100C58000FD0E1E00E94371260C0AA93E881E0302B
:100C680011F0ECE001C0E8E0AE2F36DF21960895E0
:100C78000E94301230E0E0916101E03009F03FEF6E
:100C8800E0E0EA93A0E049DF08EF11E0F801015045
:100C98001040309719F0A32F5BDFF8CFE0E0EA931C
:100CA800A0E040D30E94371224960895AA931A937D
:100CB800ED81EA93AD813EDF1E2FE981E73011F027
:100CC800E83039F4EB81EA93AA810E94F30BEB83B5
:100CD80008C0E33021F4EB81E095EB8302C0E030FB
:100CE80021F4EA81E0951E2302C0E23029F4EA816A
:100CF800AB81EA231E2B0EC0E13029F4EA81AB81D7
:100D0800EA231E2707C0E43029F4EA81E095AB8185
:100D1800EA2B1E23A12F1CDF188126960895AA937B
:100D280023970E942E12A889A43548F4AF85A033D2
:100D380030F4AE85A03019F0AD85A03009F4CCC1EF
:100D4800EE85E887A889BB27EE85F0E0AE0FBF1FC8
:100D5800A535E0E0BE0720F0A889E4E5EA1BEE87A8
:100D68002D85AF85BB27ED85F0E0AE0FBF1FD1976E
:100D780020F0AF85E0E3EA1BED87A985A63009F0EE
:100D88005BC0EC85E13009F4A7C1E33039F4E091A8
:100D98007B01F0917C01309709F49EC10885ED85AF
:100DA800E695E695E6953E2FE22FE77019F4AD85B6
:100DB8002A17E9F0A02FBB27E32FF0E00E94931138
:100DC800AA85BB850E94400E269526952695532F09
:100DD8005F935F5FE22FAF91EA1748F0102FE12F82
:100DE8001150E03019F00E94450EF9CFF1CFAE85D1
:100DF8000A1711F1EE85AA85BB85F0E00E94400E26
:100E0800ED85E77009F03F5F20E02F932F5FE32F18
:100E1800AF91AE1788F41E851F931F5FE02FAF9127
:100E2800AE1718F40E94450EF7CFEE85AE81BF814C
:100E3800F0E00E94400EE9CFEF85E7703E2FED8588
:100E4800E03009F449C1EA85FB85EE83FF8310E0B1
:100E58000889303009F063C0AD85A83008F45AC05D
:100E6800E985E03011F0E33009F402C0E73009F415
:100E780002C0E83009F402C0E93009F402C0EA30DF
:100E880021F40A93A88949DE04C0E63011F40E94CF
:100E9800520E1F931F5FEE85AF91AE17A0F5A9857F
:100EA800A63051F40E94560EFA93EA930E94350E2A
:100EB800A0810E943A0C26C0E985E93011F450E07F
:100EC8000EC0EA3011F45FEF0AC00E94560E0E946D
:100ED8005F0E5E2FE985E73011F0E83021F40E94BB
:100EE800650E5E2F06C0E33011F4509502C0E03065
:100EF80019F4A52FF6DD06C00E94690EEFEFEA93FC
:100F0800AD85D4DEC6CFEF85E85FEF87ED85E85085
:100F1800ED87D9C05D8520E0E0E0ED877EC0E32F56
:100F2800AD85AE0FA93020F42D85E0E0ED8703C034
:100F3800E8E0E31B2E2F3A93A22F0E94E80B4E2FD6
:100F4800E985E63011F50E94520E1F931F5FEE856A
:100F5800AF91AE17C8F40E94350EE081E423AE2F9E
:100F6800E32F0E9486110E946F0EE32FA42F0E9488
:100F78008611E095E1215E2B0E94560EFA93EA93C2
:100F8800A52F0E943A0CE1CF2CC0E93011F450E0B3
:100F980003C0EA30A9F45FEF0E94650EAE2FE32F7D
:100FA8000E947E115E2F1F931F5FEE85AF91AE17D3
:100FB80030F40E94690E4A93A0E078DEF4CF11C0A5
:100FC8001F931F5FEE85AF91AE1758F40E947A0EFB
:100FD800AE2FE32F0E947E11EA934A93AD8566DE19
:100FE800EFCFED85E03009F477C0AD85A83028F45F
:100FF800ED85E21B5E2FE0E003C0532FED85E8503E
:10100800ED8710E0EF85E85FEF87E8E0E31B2E2F20
:101018000889EA85FB85EE83FF83E52FF0E0E85C2D
:10102800FD4F4491E985E63011F50E94520E1F9359
:101038001F5FEE85AF91AE17C8F40E94350EE081B0
:10104800E423AE2FE22F0E947E110E946F0EE22F42
:10105800A42F0E947E11E095E1215E2B0E94560E7E
:10106800FA93EA93A52F0E943A0CE1CF2CC0E930FD
:1010780011F450E003C0EA30A9F45FEF0E94650E56
:10108800AE2FE22F0E9486115E2F1F931F5FEE8501
:10109800AF91AE1730F40E94690E4A93A0E006DEC5
:1010A800F4CF11C01F931F5FEE85AF91AE1758F4B0
:1010B8000E947A0EAE2FE22F0E948611EA934A937D
:1010C800AD85F4DDEFCFE885AA85BB85F0E0EA0FB2
:1010D800FB1FEA87FB87B3CE0E94351261960895FD
:1010E8000E94870E24F0E0E0F0E00C94F10BA88158
:1010F800B981A435E0E0BE0724F0E3E5F0E00C9404
:10110800F10BE881F9810C94F10B0E94870E24F011
:10111800E0E0F0E00C94F10BA881B981D09724F0BD
:10112800EFE2F0E00C94F10BE881F9810C94F10BFB
:10113800BA93AA9323970E948E0E8F01002E012A3C
:1011480021F40E94950E0C945C0B0E949A0E0F825B
:101158000E949A0E0E820E949A0E0886EB85A88538
:10116800EA1720F40E94950E0C945C0BF8010F5FAF
:101178001F4F5491A885BB27EE27A50FBE1FEB85EF
:10118800F0E0EA17FB0720F00E94950E0C945C0B28
:10119800EE81E695E695E6954E2FEE81E77009F02B
:1011A8004F5FEF81E030B9F0A985BA85EC93A88547
:1011B800EB85EA1BF0E0DF01EF81F0E00E9493117C
:1011C800DF01E42FF0E00E949311E00FF11F0E946D
:1011D80035120C945C0B9801E52FF0E00E0F1F1FE1
:1011E800A885AF5FA887A150EB85AE1760F4F90119
:1011F8002F5F3F4FA491B0E0E42FF0E00E949311DD
:101208000E0F1F1FEDCFF901E491A985BA85EC9364
:10121800F8010E9435120C945C0BE0E0E093620147
:10122800A0916301BB270E949F0EF0E0AE0FBF1F85
:10123800E0916701F0E0AE0FBF1F67DFE093630145
:101248000895AA9321970E948E0E309709F45BC0E7
:10125800AF81AA3009F452C0EF81EA93DE011796F4
:1012680067DFAF01309721F40E9435120C94870B89
:10127800E0916601AE81EA0F3E2FA0916201BB2783
:10128800F0E0EA0FFB1F8F010535E0E01E0718F0BC
:10129800032F1127C2DFE0916201EA93E091630115
:1012A800EA93E885EA930E949F0EEA93E1E0EA93C5
:1012B8005A934A93A7E033DDE0916201AE81EA0FC9
:1012C800EA93E0916301EA93E0916601EA930E9450
:1012D8009F0E0E94A60EE0916201EA93A09163011D
:1012E8000E949F0EEA0FEA933A93E09167010E94E9
:1012F800A60EE4E5F0E0E017F10729F48EDF0E947E
:1013080035120C94870B009362010E9435120C94DD
:10131800870BAA93EA81EA93AA8104D0A88191DF76
:101328000C94380CAA93A981BB27DADEE0936201FA
:10133800A881BB27EADEE09363010C94F10BBA9312
:10134800AA93E991F99130971AF4E095F0953196BE
:1013580008950E94EC117B816A81F981E88177FB0D
:10136800770F67FD7160972F9E5781F078F098315D
:1013780090F4AA27BB27882708948795B795A7953F
:101388009A95D1F7EA23FB23682305C0E8947727C9
:10139800EE27FF2766276F77769508F4606877F958
:1013A800A991B99189919991EA17FB07680779077B
:1013B80097FB08950E94B00E0E94AD090E94E211A9
:1013C80021F40E94B50E0C94570CDEF70E94B80E5B
:1013D8000E9431100C94570C0E94EC1124971A9318
:1013E8000A930E94BE0E0E9423122CF0EFEFFFEF2B
:1013F8006FE77FEF6FC00E94C30E0E94E711ADB781
:10140800BEB711971F930F930E94750F0F911F91ED
:101418000E94C80E0E94BE0EE3EFF4E065E37FE38E
:101428000E941B1140F40E94CD0E0E9438100E94A9
:10143800C80E015010400E94CF0E0E9431107F93B9
:101448006F93FF93EF930E94CF0E0E943810AF91D5
:10145800BF918F919F910E94D6100E94C80E0E9442
:10146800CD0E0E94D50EA6E2B2E485E69FE30E9467
:10147800DC0EEEE4F1E164E570E40E94E10E0E9406
:10148800BE0E0E9488107F936F93FF93EF930E9484
:10149800E60EADE4B1E184ED9FE30E943110AF9117
:1014A800BF918F919F910E94D6107F936F93FF9366
:1014B800EF93F8010E948E110E94FE0FA8E1B2E797
:1014C80081E39FE30E948810AF91BF918F919F9114
:1014D8000E943810198108812A9608950E94EC11FB
:1014E80028971A930A930E94EB0EE0E5FCEA6EEA4D
:1014F80072EC0E941B1118F40E945A0D85C0EA85EF
:10150800FB856C857D850E941B1229F4E0E0F0E0E4
:1015180060E87FE379C00E94EB0EE8E1F2E761EB57
:1015280072E40E941B1109F008F405C0EFEFFFEF09
:101538006FE77FE769C00E94EB0EEBE3FAEA68EB1E
:101548007FE30E948810EA87FB876C877D870E946B
:10155800EB0E30DF0E94C70F8F010E94EB0E0E9436
:101568008E110E94FE0F0E94E10EDF01CB01E0E028
:10157800F0E060E07FE30E94E10E0E94C80E0E9446
:10158800CD0E0E94D50EADE6BCE48CE69DE30E942C
:101598008810A6EAB3EE86EE90E40E9438100E9406
:1015A800BE0E0E9488100E94C80E0E94E60EA8E295
:1015B800BDE886EA91E40E943810EA83FB836C83D5
:1015C8007D830E94C30EAA81BB818C819D810E946C
:1015D8003810A3EFB4E085EB9FE30E9488107F9357
:1015E8006F93FF93EF930E94BE0E0E94E60E0E9437
:1015F8003110AF91BF918F919F910E94D6100E9498
:10160800E711D8010E94860F198108812E96089546
:101618000E94EC1124970E94F00E0E941B1219F4EC
:101628000E945A0D45C0A885B9858A859B850E9468
:10163800231294F40E94F50E0E941B1229F4E0E094
:10164800F0E060E87FE334C0A885B9858A859B858A
:101658000E94FA0E43DF2CC00E94F50EDE010E94A4
:10166800C70F0E94D3110E94B50E0E94FE0FDF0122
:10167800CB010E94F50E0E94291219F00E945A0D02
:1016880017C00E94F00E0E94920FDF01CB010E944A
:10169800FA0E24DFE887F9876A877B87E881E1709B
:1016A80019F40E94F00E04C00E94F00E0E94920FDE
:1016B8002C9608950E94EC1124970E94F50E0E9422
:1016C800010F0E94E2110E94B50EA5E6B0ED8BEC69
:1016D80090E40E94080F0E94010F7F936F93FF937D
:1016E800EF930E94B50EA0E0BDE689E291E40E9466
:1016F80038100E94110F0E94080FAF91BF918F916F
:101708009F910E94D610289608950E94B00EEDEC85
:10171800F3E164ED7EE30E941B1120F40E94110F97
:10172800C9DFC1C00E94110FEAE7F2E86AE170E47C
:101738000E941B1109F008F40BC00E94B80E0E9409
:10174800140FABEDBFE089EC9FE30E94E10EABC044
:101758000E94B80E0E9431107F936F93FF93EF930E
:101768000E94B80E0E943810AF91BF918F919F913F
:101778000E94140FABEDBFE089E49FE30E9438108C
:1017880092C00E94EC11AB81AA2322F00E94110F93
:10179800BCDF89C00E94B50E0E94920FDF01CB0109
:1017A800B4DF0E94920F7FC0BA93AA93B981A8812F
:1017B800109631F0FC81EB816A8161931197E9F70A
:1017C800EB81FC8125960895AA93E881F0E0E85C16
:1017D800FD4FA491E9810E947E1122960895AA9353
:1017E8001A93E981E73011F0EA3019F41091600199
:1017F80009C0E93019F41091610104C0E830A1F47E
:1018080010917001E0916101E03049F0103019F059
:10181800EFEF188129C0EA81E095188125C01030C2
:1018280019F4E0E0188120C0EA8118811DC0BA933C
:10183800AA93EA81E13021F4E881F981E49114C0A6
:10184800E23029F4A881B9810E94FE110DC0E3306D
:1018580041F4A881B981E0917901F0917A01099563
:1018680003C0A881B981EC9123960895AA93EB81CE
:10187800E03029F4E881A981BA81EC9314C0E23000
:1018880031F4E881A981BA810E940A120CC0E330C0
:1018980051F4E981FA81FA93EA93AA81E0917B01F4
:1018A800F0917C010995249608950E947E01E0ED4F
:1018B800EA930895EA93A0E0F8CF2497E0E0E8835C
:1018C800E983EA83EB831A930895E0EDEA93EBE367
:1018D800EA93A0E00E946101FE2FE0E00895E0EDA8
:1018E800EA93ECE3EA93A0E00C9461010E948E1164
:1018F8000E94FE0F0E94D3110895A091A101B091FA
:10190800A2018091A3019091A4010895E0E0F0E084
:1019180068EC72E40E94D610A981BA818B819C81FF
:101928000E943810E983FA836B837C838BE18A9564
:10193800F1F70895E981FA816B817C810895E0E0EF
:10194800E983EA83EB83EC8314E60895E0EDEA93F8
:10195800EDE3EA93A0E00E946101FE2FE0E0089524
:10196800E0EDEA93EEE3EA93A0E00C946101A09124
:10197800A501B091A6018091A7019091A8010895B1
:10198800E0EDEA93EFE3EA93A0E00E946101FE2F05
:10199800E0E00895E0EDEA93E0E4EA93A0E00C9437
:1019A8006101A091A901B091AA018091AB01909128
:1019B800AC010895A0918901B0918A0180918B01B1
:1019C80090918C010895E0E0F0E068E472E40E94F0
:1019D800D610A981BA818B819C810E943810E98335
:1019E800FA836B837C838BE18A95F1F70895E0E0B5
:1019F800E983EA83EB83EC8312E30895E09189019C
:101A0800F0918A0160918B0170918C010895E093A7
:101A18009501F0939601609397017093980108954A
:101A2800E0918D01F0918E0160918F01709190018C
:101A38000895E0939901F0939A0160939B01709344
:101A48009C010895E0919101F091920160919301B8
:101A5800709194010895E0939D01F0939E01609325
:101A68009F017093A0010895E0E0F0E060E876E45B
:101A78000E94D61008950E94E711A0E0B0E080E02F
:101A880090E40C940C0B0E943810DF01CB010C94ED
:101A98003B110E94D610DF01CB010E94C50BA4E1C7
:101AA800BEE285E692E40E9488100895E0E0F0E046
:101AB80060E070E00895E093D901F093DA01609353
:101AC800DB017093DC010895E093D501F093D60112
:101AD8006093D7017093D8010895E093D101F093F2
:101AE800D2016093D3017093D4010895EA93A0E0E2
:101AF8000C946101E0E0F0E068EC72E40E94D6101A
:101B0800A981BA818B819C810E943810E983FA836C
:101B18006B837C8383E08A95F1F70895E7E0EA9385
:101B2800EAE0EA93ABE20E948D09EDE0EA930895BA
:101B3800EA93D301E4E6F0E00E94AE11DF01EAE0A7
:101B4800F0E00E94B311E05DAE2F0E948D09E4E140
:101B5800EA930895EA93D301EAE0F0E00E94AE1117
:101B6800DF01EAE0F0E00E94B311E05DAE2F0E94D1
:101B78008D09EBE1EA930895EA93ADE20E948D099D
:101B8800EDE0EA930895E0E0EA93F3010E94721110
:101B9800DF010895E4E6F0E00E94AE11DF01EAE01B
:101BA800F0E00E94B311E05DAE2F0E948D09E4E1E0
:101BB800EA930895EAE0F0E00E94AE11DF01EAE05E
:101BC800F0E00E94B311E05DAE2F0E948D09EBE1B9
:101BD800EA9308950E94B311E05DAE2F0C948D092D
:101BE800E0E0F0E060E87FE30E94F1110E9431102C
:101BF8000E94C70F3F010895EAE0EA93F3010E94AB
:101C08007211DF010895E4E1EA93F3010E94721171
:101C1800DF010895A091F901B091FA010895E4E671
:101C2800F0E00E94AE11DF01EAE0F0E0D3CFEAE095
:101C3800F0E00E94AE11DF01EAE0F0E00E94B3118B
:101C4800E05DAE2F0C942509EAE0F0E00E94B311A4
:101C5800E05DAE2F0C942509A091FB01B091FC0129
:101C68000895ADEFB1E0ED91FD913196FE93EE93BD
:101C78003197E150FE4F0895EA0FFB1FEE83FF8373
:101C88000895EC85EA93EF81F8853196EF83F8871C
:101C98003197FA93EA93A0E00C943A0C0A93A88936
:101CA8000C947A05EC85EA93EF81F8853196EF83F9
:101CB800F8873197089566277727DF01CB010C94C1
:101CC8001B0C5A93AA850C94F30B0A930395E88985
:101CD800EA935A9308955E2FEC85EA93AF81B8850D
:101CE800882799270E941B0C1E2E08950A93039596
:101CF800E889EA93EE85EA93E985FA853196E987DA
:101D0800FA873197D8CFBA93AA93A881B9810E944C
:101D18001F1208950E942E12E0916401F09165014E
:101D28000895E0E0F0E00E9435120895F8010F5F91
:101D38001F4F04900895E0916401F0916501319678
:101D4800E4910895EA93E0E0EA93E0E0F0E0FA93A2
:101D5800EA93A9E00C9493060E94EC110E94DD110D
:101D680008950E94D8110895FCDFA0E0B0E080E853
:101D78009FE30895AE81BF81888599850895EE8196
:101D8800FF81688579850895EE83FF836887798761
:101D98000895F5DFEFCFF3DFA0E0B0E080E89FE340
:101DA80008950E948810EA83FB836C837D830895DD
:101DB8000E948810DF01CB0108950E94F1110E9452
:101DC80031100895EA81FB816C817D810895AA858F
:101DD800BB858C859D850895E885F9856A857B8511
:101DE8000895EC81FD816E817F8108950E94F0093C
:101DF800AC81BD818E819F81DBCFAC81BD818E811D
:101E08009F810E94881008950E948810AEE4BFE860
:101E18008AE491E40E94381008950E94DD11089523
:101E28000E94D610DF01CB010C945E0BC098C198BC
:101E3800B89AB99815C0B998B898EE270000B19B20
:101E48000895B09B089504D0B99A02D0B89AE1E0F9
:101E58006DE007C0B99AB89A03D0B898F9DFB99875
:101E68006BE16A95F1F7089578E0B898F1DFB09BD7
:101E7800FECFEEDF8894B1990894B89AF1DFEE1F8F
:101E88007A9599F77A2F772311F4B99801C0B99AFE
:101E9800DFDFB898E5DFB89ADBDFB998D9CF78E00B
:101EA800AA0F10F4B99801C0B99ADADFB898D0DF50
:101EB800B09BFECFCDDFB89A7A9591F7B998C8DF75
:101EC800B898CEDFE1E0B199EE27B89AC1CF109665
:101ED80039F080ED97E00197F1F7A8951197C9F7C8
:101EE8000895E991F9916991799177FB660F771FC8
:101EF80088277E57880B7D938C937EE77695679528
:101F08006EF00895E991F9916991799177FB660FDF
:101F1800771F7A0F769567950EF008953097604091
:101F2800704009F070580895552342F4503811F460
:101F3800E0FF04C03196691F791F6BF050E85727FE
:101F480011F45F93CFC05F3F31F0660F000C5795D7
:101F58006795752F08955F9300200AF0CFC0C8C019
:101F680050E8192E1522880F991F9527550F879528
:101F780050E8072E0522660F771F7527550F6795BE
:101F88000895689401C0E8945F93F2DF703818F000
:101F98007F3F08F4A7C056E1571BAAF45195583063
:101FA8000EF4593030F0EFEFFFEF6FEF7FE777F97E
:101FB8001AC077275523B9F0EE0FFF1F661F771F4A
:101FC8005A95D1F710C07727583028F0EF2FF62F01
:101FD800672F5850F9CF552331F076956795F795C7
:101FE800E7955A95D1F700200AF47CD15F910895BE
:101FF800689401C0E894309760407040B1F00024C4
:1020080026F0772312F400946DD1172E7EE111206B
:1020180032F07A95EE0FFF1F661F111CF9CFEF2FD4
:10202800F62F612D5F938ADF5F9108954F93AF017B
:10203800FD01DA01AB01BC01CA01402D012C142EAF
:102048004F910895EA0FFB1F681F0895E095F095DA
:102058006095EF5FFF4F6F4F08955F9381DF903872
:1020680071F150E8152604C05F937ADF903839F192
:10207800703821F1572F591B2BF112F4D7DFFACF03
:10208800583118F0AA27BB278827583028F0AB2FDB
:10209800B82F88275850F9CF552329F08695B7953A
:1020A800A7955A95D9F7502D512572F0CBDF38F402
:1020B8006795F795E795739513F420C0B7DF3EDF72
:1020C8005F910895D8F7FBCFEA1BFB0B680B51F023
:1020D80010F40094BBDF662392F3EE0FFF1F661F18
:1020E8007A95CBF7EE27FF27662777275F91089524
:1020F800EFEFFFEF6FE77FEF5F910895EFEFFFEFEF
:102108006FE77FE75F9108955F932ADF703851F397
:10211800903841F301240894791F23F41CF300201C
:102128003AF3ECCF0F921F932F933F934F931127BE
:1021380022279927689FA0018F9F302D410D591F95
:102148006B9F300D411D591F8E9F27D0BF9F25D0F3
:102158006A9F23D0BE9F1DD0AF9F1BD0AE9F110D8D
:10216800291F391F491F591FE32FF42F652F522F9D
:102178004F913F912F911F910F9066232AF0550F91
:10218800EE1FFF1F661F02C073954BF2CDDE5F91F5
:102198000895100D211D391F02C0200D311D491F42
:1021A800591F08955F93DCDE703821F411200AF47A
:1021B8009FCFA4CF903809F495CF01240894970BAA
:1021C8001BF4D4F30020F3CF792F1F932F933F9361
:1021D8004F9311241127222733274427552790E2AC
:1021E800AE17BF078607410730F0AE1BBF0B860B43
:1021F800410B089401C08894551F221F331F111CDE
:10220800AA1FBB1F881F441F9A9551F7F901612D1A
:102218004F913F912F911F91662332F0550FEE1F7A
:10222800FF1F661F7A9543F27FDE5F910895992319
:102238009AF0772342F0971748F029F4AE17BF07B2
:10224800860720F031F0989488940895989408941B
:1022580008951894889408957723C2F7971798F3E8
:10226800A9F7EA17FB07680788F399F3ECCFB0D012
:1022780024975F939F81992311F4289633CF12F402
:1022880028963CCF4F9342E48E81BD81AC818883F0
:102298009983AA83BB83FD01BC01AC81BD818E817A
:1022A8009F8180DF88819981AA81BB81DDDE60DE24
:1022B8007A9544DE88819981AA81BB81AE27A87F5F
:1022C80021F4BF178607970729F04A9519F0DF010F
:1022D800CB01DDCF4F915F9128960895F195E19557
:1022E800F0400895F09560957095E195FF4F6F4F18
:1022F8007F4F0895EE230E2EEA2F19F0EE0F0A9461
:10230800E9F70895EE230E2EEA2F19F0E6950A94C0
:10231800E9F708956F2F660F660B762F0895FA9FD9
:10232800F02DEB9FF00DEA9FE02DF10D08950024AC
:10233800112490E1AA0FBB1F001C111C0E1A1F0AC2
:1023480018F40E0E1F1E01C0A1609A9599F7FD01A1
:10235800D001089512D0EBDF0EF4C0DF0895E894A1
:10236800B7FF04C0A095B09511966894F7FDB6DF45
:10237800DEDFFD010EF4B2DF0895E894F7FF02C036
:10238800ADDF6894B7FF06C0A095B095119600F828
:10239800039400FA0895ED91FC9111970895ED9337
:1023A800FD936D937C930895E881F9816A817B811F
:1023B8000895A881B9818A819B810895E883F9836A
:1023C8006A837B8308957A936A93FA93EA930895CC
:1023D8009A938A93BA93AA930895182E862F612DFB
:1023E800192E972F712D1B2EBF2FF12D1A2EAE2FC0
:1023F800E12D0895E199FECFFF93FFB7F894AEBBA6
:10240800BFBBE09AEDB3FFBFFF910895E19B02C007
:10241800A895FCCF9FB7F894AEBBBFBBE09A8DB32D
:10242800E81719F0EDBBE29AE19A9FBF089530973B
:1024380060407040089500240A160B060895002491
:102448000A160B06080609060895EA17FB07680727
:10245800790708955A934A933A932A931A930A93B9
:1024680008955D814C813B812A81198108810895F5
:00000001FF
