:0E00000058C1FECFFDCFFCCFFBCFFACFF9CF1A
:10000E00F8CFF7CFF6CFF5CFF4CFF3CFF2CFF1CFC6
:10001E00F0CFEFCFEECFEDCF050720600000000050
:10002E000000005F00000007000700147F147F141B
:10003E00242A7F2A1223130864623649552250005F
:10004E0005030000001C2241000041221C00082A6A
:10005E001C2A0808083E080800503000000808084E
:10006E000808003030000020100804023E514945B7
:10007E003E00427F400042615149462141454B318D
:10008E001814127F1027454545393C4A494930011D
:10009E00710905033649494936064949291E003674
:1000AE0036000000563600000008142241141414C5
:1000BE0014144122140800020151090632497941F3
:1000CE003E7E1111117E7F494949363E4141412202
:1000DE007F4141221C7F494949417F090901013E67
:1000EE00414151327F0808087F00417F4100204086
:1000FE00413F017F081422417F404040407F02046F
:10010E00027F7F0408107F3E4141413E7F0909096D
:10011E00063E4151215E7F0919294646494949311A
:10012E0001017F01013F4040403F1F2040201F7FC3
:10013E002018207F631408146303047804036151AC
:10014E0049454300007F4141020408102041417F90
:10015E00000004020102044040404040000102043D
:10016E000020545454787F48444438384444442042
:10017E00384444487F3854545418087E0901020804
:10018E001454543C7F0804047800447D4000204001
:10019E00443D00007F10284400417F40007C04183D
:1001AE0004787C0804047838444444387C141414CD
:1001BE0008081414187C7C0804040848545454206D
:1001CE00043F4440203C4040207C1C2040201C3CEE
:1001DE004030403C44281028440C5050503C44645D
:1001EE00544C44000836410000007F0000004136A8
:1001FE00080002010204027F4141417F0001030712
:10020E000F1F3F7FFF001027E80364000A00010064
:10021E00001000011000010057656C636F6D6500E2
:10022E0050414952003C3D202020207C7C20202043
:10023E00203D3E00636F6E74696E7565004D73747C
:10024E0020202020747374202020536C76003E41B1
:10025E005420200041540D0A000001002D4E414E45
:10026E0000494E46000008006001260205006801A4
:10027E002E020F006D01330209007C0142020F00B5
:10028E0085013302110094014B020F00A5013302C8
:10029E000600B4015C020500BA0162020100D60339
:1002AE0068020000F894EE27ECBBF1E0FBBFEBBF59
:1002BE00E5BF8DE0A2E0BB27ED938A95E9F780E0DC
:1002CE0094E0A0E6ED930197E9F7E4E7F2E085917B
:1002DE009591009761F0A591B59105901590BF018C
:1002EE00F00105900D920197E1F7FB01F0CFEFE5DC
:1002FE00EDBFE4E0EEBFC0E6D1E000C02897E0E03D
:10030E00E7BBE8BBE4BBE5BBE0E8E1BBE0E0E2BB9A
:10031E00E3BFE2BFEFBDEEBDEDBDECBDE7BDE6BD9B
:10032E00EBBDEABDE9BDE8BDE2BDE5BDE4BDE3BDA3
:10033E00E9BFE5BFEBB9E8E1EAB9E6E8E0BDE0E028
:10034E00E0BDECE0E9B9E0E8E8B9E0E0E0BFE6B92D
:10035E00EDB9E6BFE6E2F0E0E883F983E0E0EA8398
:10036E00EB83EC83ED83EE81EC7FEE83E37EEC603A
:10037E00EE83EF81E078E263EF83DE0199D0E4E172
:10038E00EA93EA93A0E6B1E0D6D3A8EEB3E079D42F
:10039E00A8E6B1E07CD4ADE6B1E0CDD3989BFECF1C
:1003AE007CD431D5979A7CD4ACE7B1E070D4A5E873
:1003BE00B1E0C1D3989BFECF70D463D4A4E9B1E071
:1003CE0066D4A5EAB1E0B7D3989904C0999902C052
:1003DE009A9B01C001C0F8CF999B07C061D4A4EBD2
:1003EE00B1E0A9D3AAEBB1E0CAD357D40CD59899F2
:1003FE0004C0999902C09A9B01C001C0F8CF4DD498
:10040E0002D5C6D052D451D4AFD3AE2F8CD3FACF9F
:10041E00FFCF08954DD4C39818E0FBDFE981E07853
:10042E0011F0C09A01C0C098E981EE0FE983F1DFA7
:10043E00C19AEFDFC198115081F7C39A1881C1C3D9
:10044E00AA93C298A881E6DF98C3AA93C29AA881FC
:10045E00E1DF93C32DD4E9812ED41E2FE4E5E19F75
:10046E00F001DF01EA812BD4E093DC01F093DD0192
:10047E00E12F1881E7C3AA93E981E06824D4E981CA
:10048E00EA93A981E7DFE0641ED49BC3AA93E981B6
:10049E00EA93A981F0DFE091DC01F091DD0115D442
:1004AE00E0818FC3AA9314D4A881A083CEDF65C345
:1004BE0018D4F2D4BB9AC39AB99AC198B89ABA9A78
:1004CE00BC9AC498AAE0B0E09ED4C49A0DD43097DA
:1004DE00E1F00AD4E681E3701E2F06D4E681E6959C
:1004EE00E695E7700E2F00D4E781EF773E2FAC81B3
:1004FE00BD81ABD4FCD3AC81BD811296A6D4FCD306
:10050E00AC81BD811496A1D408C010E003E032E3A3
:10051E00F8D3EDD3F6D3F0D3F4D3E093DA01F0931E
:10052E00DB01A1E28DDFE12FE460CDD3E02FE061AE
:10053E00CAD3E32FE068C7D3A0E282DFA1E01FD0C9
:10054E00E1E0E093BF01E0E0E093C001E1E0E09381
:10055E00C501E093C601E093C701EFEFE093C80138
:10056E00E1E0E093CF01E0EDF1E0CED3EFEFEA93DF
:10057E00A8E0B0E00FD30CD0E1E095D457C0AA9319
:10058E00E881E03011F0ECE001C0E8E09CD3F5C268
:10059E0083D430E0E091C001E03009F03FEF85D325
:1005AE00A0E069DF08EF11E0F8010150104030972C
:1005BE0019F0A32F77DFF8CF78D3A0E0C9D273D488
:1005CE005EC376D3ED81EA93AD8160DF1E2FE981A4
:1005DE00E73011F0E83031F4EB81EA93AA81F3D2DF
:1005EE00EB8308C0E33021F4EB81E095EB8302C08E
:1005FE00E03021F4EA81E0951E2302C0E23029F4B6
:10060E00EA81AB81EA231E2B0EC0E13029F4EA8188
:10061E00AB81EA231E2707C0E43029F4EA81E09576
:10062E00AB81EA2B1E23A12F3DDF1881269608955C
:10063E00AA9323972FD4A889A43548F4AF85A03365
:10064E0030F4AE85A03019F0AD85A03009F488C124
:10065E00EE85E887A889BB27EE8559D3A535E0E05E
:10066E00BE0720F0A889E4E5EA1BEE872D85AF854D
:10067E00BB27ED854CD3D19720F0AF85E0E3EA1B85
:10068E00ED87A985A63009F054C0EC85E13009F458
:10069E0067C1E33039F4E091DA01F091DB01309774
:1006AE0009F45EC10885ED8506D33E2FE22FE77073
:1006BE0019F4AD852A17D9F0A02FBB27E32F2BD322
:1006CE00AA85BB85EA0FFB1F29D32695269526956D
:1006DE00532F5F935F5FE22FAF91EA1740F0102F19
:1006EE00E12F1150E03011F01CD3FACFF2CFAE85CE
:1006FE000A17F9F0EE85AA85BB85E1D20FD3ED85F9
:10070E00E77009F03F5F20E02F932F5FE32FAF914B
:10071E00AE1778F41E851F931F5FE02FAF91AE17B3
:10072E0010F4FFD2F8CFEE85AE81BF81C8D2F6D2DB
:10073E00EBCFEF85E7703E2FED85E03009F410C169
:10074E00EA85FB85EBD210E00889303009F059C0FC
:10075E00AD85A83008F450C0E985E03011F0E330E3
:10076E0009F402C0E73009F402C0E83009F402C00F
:10077E00E93009F402C0EA3019F4DED27CDE04C09E
:10078E00E63011F4D9D266DE1F93D9D2AF91AE17EF
:10079E0060F5A985A63031F4D5D2B6D299D2A08112
:1007AE0053D222C0E985E93011F450E00CC0EA3092
:1007BE0011F45FEF08C0C6D2CED25E2FE985E730C6
:1007CE0011F0E83019F4CCD25E2F06C0E33011F4EC
:1007DE00509502C0E03019F4A52F37DE05C0C3D204
:1007EE00EFEFEA93AD85EDDECFCFEF85E85FEF87D4
:1007FE00ED85E850ED87ADC05D8520E0E0E0ED874A
:10080E0067C0E32FAD85AE0FA93020F42D85E0E053
:10081E00ED8703C0E8E0E31B2E2F3A93A22FC9D138
:10082E004E2FE985E630B9F487D214DE1F9387D2B6
:10083E00AF91AE1778F44CD2E081E423AE2FE32FC4
:10084E00F4D297D2E32FA42FF0D29DD25DD2A52F52
:10085E00FBD1ECCF22C0E93011F450E003C0EA30F6
:10086E0089F45FEF7DD2AE2FE32FD7D25E2F1F9389
:10087E0066D2AF91AE1728F476D24A93A0E0A1DEED
:10088E00F6CF0BC01F935BD2AF91AE1730F47FD271
:10089E00AE2FE32FC2D288D2F5CFED85E03009F42A
:1008AE005FC0AD85A83028F4ED85E21B5E2FE0E039
:1008BE0003C0532FED85E850ED8710E0EF85E85F1C
:1008CE00EF87E8E0E31B2E2F0889EA85FB8526D209
:1008DE00E52FF0E0E65FFD4F4491E985E630B9F48F
:1008EE002BD2B8DD1F932BD2AF91AE1778F4F0D187
:1008FE00E081E423AE2FE22F90D23BD2E22FA42F41
:10090E008CD241D201D2A52F9FD1ECCF22C0E9309B
:10091E0011F450E003C0EA3089F45FEF21D2AE2F1C
:10092E00E22F83D25E2F1F930AD2AF91AE1728F417
:10093E001AD24A93A0E045DEF6CF0BC01F93FFD12B
:10094E00AF91AE1730F423D2AE2FE22F6ED22CD24F
:10095E00F5CFE885AA85BB85B2D1EA87FB87ECCEB9
:10096E00A0D26196089524D214F0CBD12AC125D2FB
:10097E00A435E0E0BE071CF0E3E5F0E022C1E8811B
:10098E00F9811FC115D214F0BCD11BC116D2D0975C
:10099E001CF0EFE2F0E015C1E881F98112C1A1D19E
:1009AE0023970ED28F01002E012A11F4AAD152C024
:1009BE000DD20F820BD20E8209D20886EB85A88546
:1009CE00EA1710F49ED146C0F8010F5F1F4F5491E5
:1009DE00A885BB27EE27A50FBE1FEB85F0E0EA1713
:1009EE00FB0710F08ED136C0EE8165D14E2FEE8111
:1009FE00E77009F04F5FEF81E03081F0A985BA858D
:100A0E00EC93A885EB85EA1BF0E0DF01EF8183D143
:100A1E00DF01E42F80D1E00FF11F1CC09801E52FFC
:100A2E00F0E00E0F1F1FA885AF5FA887A150EB85C2
:100A3E00AE1750F4F9012F5F3F4FA491B0E0E42FB1
:100A4E006AD10E0F1F1FEFCFF901E491A985BA8568
:100A5E00EC93F80126D22C960895E0E0E093C101C4
:100A6E00A091C201BB27B7D152D1E091C6014FD19F
:100A7E0089DFE093C2010895AA932197A1D13097FF
:100A8E0009F44CC0AF81AA3009F446C0EF81EA9355
:100A9E00DE01179684DFAF01309709F441C0E09173
:100AAE00C501AE81EA0F3E2FA091C101BB2707D130
:100ABE008F010535E0E01E0718F0032F1127CDDF5B
:100ACE00E091C1018FD1E885EA9385D1EA93E1E007
:100ADE00EA935A934A93A7E0ABDDE091C101AE8150
:100AEE00EA0F80D1E091C501EA9375D1EA93DDD08A
:100AFE007ED1E091C101EA93A091C2016CD1EA0FBF
:100B0E00EA933A93E091C601EA93CFD070D1E4E52F
:100B1E00F0E0E017F10711F4A0DF02C00093C1016D
:100B2E00C0D128960895AA93EA81EA93AA8110D09B
:100B3E00A881A2DF87C0D5D01A93EC81EA93AC814D
:100B4E0007D059D119F0A12F97DFFBCF18812FC0F5
:100B5E00AA93A981BB2707DFE093C101A881BB2718
:100B6E0011DFE093C2012DC05F9BFECFECB1089563
:100B7E00AA935D9BFECFE881ECB921960895B1D082
:100B8E001A9339D119F0A12FF3DFFBCFAAE0F0DFD2
:100B9E00188158C0A6D0B981A881109631F0FC8179
:100BAE00EB816A8161931197E9F7EB81FC812596C0
:100BBE000895AA93E881F0E0E65FFD4FA491E981E4
:100BCE002CD12296089574D0E981E73011F0EA30E5
:100BDE0019F41091BF0109C0E93019F41091C00148
:100BEE0004C0E830A1F41091CF01E091C001E030D3
:100BFE0049F0103019F0EFEF188124C0EA81E0952A
:100C0E00188120C0103019F4E0E018811BC0EA8171
:100C1E00188118C066D0EA81E13021F4E881F981AB
:100C2E00E49110C0E23019F4C8D013D10BC0E330F8
:100C3E0039F4C3D0E091D801F091D901099502C0E1
:100C4E00BCD0EC9123960895AA93EB81E03029F461
:100C5E00E881A981BA81EC9312C0E23029F4E881CF
:100C6E00A981BA8102D10BC0E33049F4E981FA813E
:100C7E004BD0AA81E091DA01F091DB01099524961F
:100C8E000895C1D085DCE0E0EA93EA93089553DF3E
:100C9E00E0E0EA93EAE0EA930895A4EFB1E0089564
:100CAE0077DCE0E0EA93EA930895E0E0EA930895B2
:100CBE00AA931A930895E695E695E6950895F0E0C1
:100CCE00EA0FFB1F0895AE2FBBCBE252FE4F0895E5
:100CDE00ACEDB1E0ED91FD913196FE93EE9331972F
:100CEE00F4CFBA93AA930895EC81FD810895E09311
:100CFE00C301F093C4010895E093D801F093D90194
:100D0E000895E0E0F0E00895FA93EA930895F0E094
:100D1E00AE0FBF1F0895F0E090D00895EE83FF83CD
:100D2E000895EC85EA93EF81F8853196EF83F88785
:100D3E003197EADFA0E088CF0A93A88908951F5F54
:100D4E00EE850895EC85EA93EF81F8853196EF8371
:100D5E00F8873197089566277727DF01CB015ACFA1
:100D6E005A93AA8530CF0A930395E889EA935A934A
:100D7E0008955E2FEC85EA93AF81B8858827992771
:100D8E0049DF1E2E0895E095E1215E2BDBCF0A93FD
:100D9E000395E889EA93EE85EA93E985FA8531961B
:100DAE00E987FA873197D7CFEA934A93AD8509CC75
:100DBE0098DFA881B9816AD00895A881B981089574
:100DCE0069D0E091C301F091C4010895F8010F5F5D
:100DDE001F4F04900895E091C301F091C401319624
:100DEE00E4910895EA93E091C201EA93089589DFB0
:100DFE008BDFA9E01DCCA981BA81ED91A983BA83BD
:100E0E001E2FE0300895109639F080ED97E001978F
:100E1E00F1F7A8951197C9F70895EE230E2EEA2F34
:100E2E0019F0EE0F0A94E9F70895EE230E2EEA2F2D
:100E3E0019F0E6950A94E9F70895FA9FF02DEB9FC5
:100E4E00F00DEA9FE02DF10D0895ED91FC911197B3
:100E5E000895E199FECFFF93FFB7F894AEBBBFBBE9
:100E6E00E09AEDB3FFBFFF910895E19B02C0A895F4
:100E7E00FCCF9FB7F894AEBBBFBBE09A8DB3E8171B
:100E8E0019F0EDBBE29AE19A9FBF089500240A166D
:100E9E000B0608955A934A933A932A931A930A93F8
:100EAE0008955D814C813B812A81198108810895C5
:00000001FF
