:100000000C943E000C9400000C9400000C94000032
:100010000C9400000C9400000C9400000C94000060
:100020000C9400000C9400000C9400000C94000050
:100030000C9400000C9400000C9400000C94000040
:100040000C9400000C9400000C9400000C94000030
:100050000C9400001027E80364000A00010000105F
:1000600000011000010041540D0A000080C005008D
:1000700060016600020065016C000000F894EE2744
:10008000ECBBF1E0FBBFEBBFE5BF8DE0A2E0BB271F
:10009000ED938A95E9F780E094E0A0E6ED9301976F
:1000A000E9F7EEE6F0E085919591009761F0A59172
:1000B000B59105901590BF01F00105900D92019743
:1000C000E1F7FB01F0CFEFE5EDBFE4E0EEBFC0E606
:1000D000D1E00C946B00E0E0EABBEBBBE7BBE8BB14
:1000E000E4BBE5BBEFEFE1BBE0E0E2BBE3BFE2BFB7
:1000F000ECBFEFBDEEBDEDBDECBDE7BDE6BDEBBDBC
:10010000EABDE9BDE8BDE2BDE5BDE4BDE3BDE9BFD3
:10011000E5BFE4BFEBB9E8E1EAB9E6E8E0BDE0E05D
:10012000E0BDECE0E9B9E0E8E8B9E0E0E0BFE6B95D
:10013000EDB9E6BFA8E060D0A0EABFE00E9456019A
:10014000A0E6B1E00E9435010E942A01AE2F3DD009
:10015000FBCFFFCFAA93E5B3EF70AE2FE881E07F2E
:10016000EA2BE5BB8DE08A95F1F7AA9A8DE08A9596
:10017000F1F7AA988DE08A95F1F70C943301AA93D0
:10018000A881E8DFE881E295E883A881E3DF85E8DC
:100190008A95F1F70C943301AA93E881F0E0EB59CA
:1001A000FE4FE081A981AE0FEADF59804880229698
:1001B0000895A2E00E944801ACE0E1DFA1E00E94C6
:1001C0004801E0E04E2E5E2E0895AA93A881AA3041
:1001D00011F0571450F0E0E0EA934394A42DDCDFD3
:1001E000A881AA3011F40C9433015394A89AA881E1
:1001F000C6DFA8980C943301AA93E4B3E06FE4BB84
:10020000A29AA09AA19AAA98A898A9987880E88119
:10021000E058E0936701E881E054E0936801A4E1CD
:10022000B0E00E9456010E944E010E944E010E94C1
:100230004E01A0E28FDF88EC90E00197F1F7A8E291
:100240009EDFA4E09CDFA5E89ADFA6E098DFB1DF9F
:100250000C9433015F9BFECFECB10895AA935D9B94
:10026000FECFE881ECB921960895BA93AA931A9328
:10027000A981BA81ED91A983BA831E2FE03019F0CC
:10028000A12FECDFF5CFAAE0E9DF188123960895CE
:100290000E94BF00A3E0B0E00C945601A0E30E94CE
:1002A000AA0088EC90E00197F1F70895109639F0D4
:1002B00080ED97E00197F1F7A8951197C9F7089598
:00000001FF
