:040000000C943D011E
:100004000C9400000C9400000C9400000C9400006C
:100014000C9400000C9400000C9400000C9400005C
:100024000C9400000C9400000C9400000C9400004C
:100034000C9400000C9400000C9400000C9400003C
:100044000C9400000C9400000C9400000C9400002C
:1000540005072060000000000000005F00000007AA
:10006400000700147F147F14242A7F2A1223130804
:10007400646236495522500005030000001C2241E9
:10008400000041221C00082A1C2A0808083E08080F
:100094000050300000080808080800303000002034
:1000A400100804023E5149453E00427F400042612F
:1000B4005149462141454B311814127F10274545BB
:1000C40045393C4A494930017109050336494949D2
:1000D40036064949291E003636000000563600000F
:1000E40000081422411414141414412214080002A8
:1000F40001510906324979413E7E1111117E7F4931
:100104004949363E414141227F4141221C7F4949B0
:1001140049417F090901013E414151327F080808E4
:100124007F00417F41002040413F017F081422416C
:100134007F404040407F0204027F7F0408107F3EDE
:100144004141413E7F090909063E4151215E7F0933
:10015400192946464949493101017F01013F40407F
:10016400403F1F2040201F7F2018207F6314081465
:10017400630304780403615149454300007F41410E
:10018400020408102041417F0000040201020440DF
:1001940040404040000102040020545454787F48F9
:1001A4004444383844444420384444487F38545400
:1001B4005418087E090102081454543C7F080404AE
:1001C4007800447D40002040443D00007F102844D6
:1001D40000417F40007C041804787C0804047838CB
:1001E400444444387C14141408081414187C7C08FF
:1001F4000404084854545420043F4440203C4040E4
:10020400207C1C2040201C3C4030403C44281028CA
:10021400440C5050503C4464544C44000836410053
:1002240000007F0000004136080002010204027F42
:100234004141417F000103070F1F3F7FFF0010274B
:10024400E80364000A00010000100001100001002E
:1002540041542B554152543F0D0A000001002D4ECC
:10026400414E00494E4600000B006001540201005B
:10027400820360020000F894EE27ECBBF1E0FBBFC0
:10028400EBBFE5BF8DE0A2E0BB27ED938A95E9F7CC
:1002940080E094E0A0E6ED930197E9F7ECE6F2E064
:1002A40085919591009761F0A591B5910590159070
:1002B400BF01F00105900D920197E1F7FB01F0CF2A
:1002C400EFE5EDBFE4E0EEBFC0E6D1E00C946A01D7
:1002D4002897E0E0EABBEBBBE7BBE8BBE4BBE5BBCC
:1002E400EFEFE1BBE0E0E2BBE3BFE2BFECBFEFBD99
:1002F400EEBDEDBDECBDE7BDE6BDEBBDEABDE9BDC0
:10030400E8BDE2BDE5BDE4BDE3BDE9BFE5BFE4BFD3
:10031400EBB9E8E1EAB9E6E8E0BDE0E0E0BDECE035
:10032400E9B9E0E8E8B9E0E0E0BFE6B9EDB9E6BF75
:10033400E4E5F0E0E883F983E0E0EA83EB83EC832F
:10034400ED83EE81EC7FEE83E37EEC60EE83EF8160
:10035400E078E263EF83DE016FD0A8E8B3E10E94A6
:100364000D07A0E6B1E00E9404060E94F905AE2F35
:100374000E948A05FACFFFCF0895AA931A93AB98E7
:1003840018E0FADFE981E07811F0A89A01C0A89892
:10039400E981EE0FE983F0DFA99AEEDFA998115005
:1003A40081F7AB9A18810C942F06AA93AA98A88176
:1003B400E4DF0C940206AA93AA9AA881DEDF0C94C7
:1003C4000206AA931A93E981E695E695E6951E2F0F
:1003D400E4E5E19FF001DF01EA81F0E0EA0FFB1FB1
:1003E400E0938801F0938901E12F18810C9476063B
:1003F400AA93E981E068AE2FD8DFE981EA93A98165
:10040400E0DFE064AE2FD1DF0C942F06AA93E981DC
:10041400EA93A981EDDFE0918801F0918901E65723
:10042400FE4FE0810C942F06AA930E949706A881A0
:10043400A083C1DF0C940206BA93AA930E945607C4
:10044400A39AAB9AA19AA998A09AA29AA49AAC98B2
:10045400AAE0B0E00E940D07AC9AEC81FD813097D0
:1004640021F1E681E3701E2FEC81FD81E681E695A2
:10047400E695E7700E2FEC81FD81E781EF773E2F43
:10048400AC81BD810E942F07E0936F01F09370014E
:1004940012960E942F07E0938401F0938501AC81AA
:1004A400BD8114960E942F070DC010E003E032E3D3
:1004B400E0E0F0E0E0936F01F0937001E0938401D9
:1004C400F0938501E0938601F0938701A1E26DDF4B
:1004D400E12FE460AE2F69DFE02FE061AE2F65DF2E
:1004E400E32FE068AE2F61DFA0E25FDFA1E022D05E
:1004F400E1E0E0936B01E0E0E0936C01E1E0E09384
:100504007101E0937201E0937301EFEFE0937401E2
:10051400E1E0E0937B01ECE7F1E0FA93EA93EFEF9B
:10052400EA93A8E0B0E00E9416060FD0E1E00E9432
:100534005D0760C0AA93E881E03011F0ECE001C0EF
:10054400E8E0AE2F32DF0C9402060E94560730E03A
:10055400E0916C01E03009F03FEFE0E0EA93A0E0C5
:1005640047DF08EF11E0F80101501040309719F00F
:10057400A32F5ADFF8CFE0E0EA93A0E02BD30E9448
:100584005D070C949506AA931A93ED81EA93AD81C5
:100594003DDF1E2FE981E73011F0E83039F4EB81BB
:1005A400EA93AA810E943106EB8308C0E33021F468
:1005B400EB81E095EB8302C0E03021F4EA81E09521
:1005C4001E2302C0E23029F4EA81AB81EA231E2B08
:1005D4000EC0E13029F4EA81AB81EA231E2707C06B
:1005E400E43029F4EA81E095AB81EA2B1E23A12FA4
:1005F4001BDF188126960895AA9323970E94540717
:10060400A889A43548F4AF85A03330F4AE85A03072
:1006140019F0AD85A03009F4CCC1EE85E887A8892E
:10062400BB27EE85F0E0AE0FBF1FA535E0E0BE07A7
:1006340020F0A889E4E5EA1BEE872D85AF85BB276A
:10064400ED85F0E0AE0FBF1FD19720F0AF85E0E35A
:10065400EA1BED87A985A63009F05BC0EC85E13083
:1006640009F4A7C1E33039F4E0918601F0918701E0
:10067400309709F49EC10885ED85E695E695E695E3
:100684003E2FE22FE77019F4AD852A17E9F0A02F69
:10069400BB27E32FF0E00E942707AA85BB850E94B1
:1006A400A206269526952695532F5F935F5FE22F2A
:1006B400AF91EA1748F0102FE12F1150E03019F0F4
:1006C4000E94A706F9CFF1CFAE850A1711F1EE8586
:1006D400AA85BB85F0E00E94A206ED85E77009F0CB
:1006E4003F5F20E02F932F5FE32FAF91AE1788F485
:1006F4001E851F931F5FE02FAF91AE1718F40E9461
:10070400A706F7CFEE85AE81BF81F0E00E94A20676
:10071400E9CFEF85E7703E2FED85E03009F449C15C
:10072400EA85FB85EE83FF8310E00889303009F009
:1007340063C0AD85A83008F45AC0E985E03011F0F3
:10074400E33009F402C0E73009F402C0E83009F4E8
:1007540002C0E93009F402C0EA3021F40A93A889FE
:1007640047DE04C0E63011F40E94B4061F931F5FF5
:10077400EE85AF91AE17A0F5A985A63051F40E947D
:10078400B806FA93EA930E949706A0810E9478061D
:1007940026C0E985E93011F450E00EC0EA3011F4C6
:1007A4005FEF0AC00E94B8060E94C1065E2FE98569
:1007B400E73011F0E83021F40E94C7065E2F06C02E
:1007C400E33011F4509502C0E03019F4A52FF3DDA5
:1007D40006C00E94CB06EFEFEA93AD85D4DEC6CF08
:1007E400EF85E85FEF87ED85E850ED87D9C05D853B
:1007F40020E0E0E0ED877EC0E32FAD85AE0FA930A9
:1008040020F42D85E0E0ED8703C0E8E0E31B2E2F04
:100814003A93A22F0E9426064E2FE985E63011F561
:100824000E94B4061F931F5FEE85AF91AE17C8F404
:100834000E949706E081E423AE2FE32F0E941F0756
:100844000E94D106E32FA42F0E941F07E095E12107
:100854005E2B0E94B806FA93EA93A52F0E947806AD
:10086400E1CF2CC0E93011F450E003C0EA30A9F420
:100874005FEF0E94C706AE2FE32F0E9417075E2F7B
:100884001F931F5FEE85AF91AE1730F40E94CB0625
:100894004A93A0E078DEF4CF11C01F931F5FEE856A
:1008A400AF91AE1758F40E94DC06AE2FE32F0E94DE
:1008B4001707EA934A93AD8566DEEFCFED85E03006
:1008C40009F477C0AD85A83028F4ED85E21B5E2FCE
:1008D400E0E003C0532FED85E850ED8710E0EF858D
:1008E400E85FEF87E8E0E31B2E2F0889EA85FB85A4
:1008F400EE83FF83E52FF0E0E85CFD4F4491E9854A
:10090400E63011F50E94B4061F931F5FEE85AF9188
:10091400AE17C8F40E949706E081E423AE2FE22FBD
:100924000E9417070E94D106E22FA42F0E941707E6
:10093400E095E1215E2B0E94B806FA93EA93A52F75
:100944000E947806E1CF2CC0E93011F450E003C0D6
:10095400EA30A9F45FEF0E94C706AE2FE22F0E948F
:100964001F075E2F1F931F5FEE85AF91AE1730F404
:100974000E94CB064A93A0E006DEF4CF11C01F9379
:100984001F5FEE85AF91AE1758F40E94DC06AE2FC0
:10099400E22F0E941F07EA934A93AD85F4DDEFCF5F
:1009A400E885AA85BB85F0E0EA0FFB1FEA87FB8791
:1009B400B3CE0E945B07619608950E94E90624F075
:1009C400E0E0F0E00C942F06A881B981A435E0E0C2
:1009D400BE0724F0E3E5F0E00C942F06E881F981EA
:1009E4000C942F060E94E90624F0E0E0F0E00C9459
:1009F4002F06A881B981D09724F0EFE2F0E00C949F
:100A04002F06E881F9810C942F06BA93AA932397B1
:100A14000E94F0068F01002E012A19F4E0E0F0E0B4
:100A24005FC00E94F7060F820E94F7060E820E94A2
:100A3400F7060886EB85A885EA1718F4E0E0F0E0ED
:100A44004FC0F8010F5F1F4F5491A885BB27EE27B5
:100A5400A50FBE1FEB85F0E0EA17FB0718F0E0E0F6
:100A6400F0E03EC0EE81E695E695E6954E2FEE81E8
:100A7400E77009F04F5FEF81E030A1F0A985BA85F6
:100A8400EC93A885EB85EA1BF0E0DF01EF81F0E051
:100A94000E942707DF01E42FF0E00E942707E00F00
:100AA400F11F1EC09801E52FF0E00E0F1F1FA8854F
:100AB400AF5FA887A150EB85AE1760F4F9012F5FF3
:100AC4003F4FA491B0E0E42FF0E00E9427070E0FFF
:100AD4001F1FEDCFF901E491A985BA85EC93F801C4
:100AE4000E945B072C960895E0E0E0936D01A091CD
:100AF4006E01BB270E94FC06F0E0AE0FBF1FE09121
:100B04007201F0E0AE0FBF1F6DDFE0936E01089538
:100B1400AA9321970E94F006309709F455C0AF813B
:100B2400AA3009F44FC0EF81EA93DE0117966DDF16
:100B3400AF01309709F44AC0E0917101AE81EA0F28
:100B44003E2FA0916D01BB27F0E0EA0FFB1F8F0140
:100B54000535E0E01E0718F0032F1127C5DFE091EB
:100B64006D01EA93E0916E01EA93E885EA930E94AD
:100B7400FC06EA93E1E0EA935A934A93A7E03CDD4A
:100B8400E0916D01AE81EA0FEA93E0916E01EA9380
:100B9400E0917101EA930E94FC060E940307E09130
:100BA4006D01EA93A0916E010E94FC06EA0FEA939C
:100BB4003A93E09172010E940307E4E5F0E0E01744
:100BC400F10711F491DF02C000936D010E945B07ED
:100BD40028960895AA93A981BB27EFDEE0936D01BF
:100BE400A881BB27FFDEE0936E010C942F065F9B68
:100BF400FECFECB10895AA935D9BFECFE881ECB9DA
:100C040021960895BA93AA931A93A981BA81ED9172
:100C1400A983BA831E2FE03019F0A12FECDFF5CFA2
:100C2400AAE0E9DF188160C0BA93AA93B981A881C8
:100C3400109631F0FC81EB816A8161931197E9F799
:100C4400EB81FC8125960895AA93E881F0E0E85CA5
:100C5400FD4FA491E9810E94170722960895AA9353
:100C64001A93E981E73011F0EA3019F410916B011D
:100C740009C0E93019F410916C0104C0E830A1F402
:100C840010917B01E0916C01E03049F0103019F0D3
:100C9400EFEF188129C0EA81E095188125C0103052
:100CA40019F4E0E0188120C0EA8118811DC0BA93CC
:100CB400AA93EA81E13021F4E881F981E49114C036
:100CC400E23029F4A881B9810E9433070DC0E330D2
:100CD40041F4A881B981E0918401F09185010995DD
:100CE40003C0A881B981EC9123960895AA93EB815E
:100CF400E03029F4E881A981BA81EC9314C0E23090
:100D040031F4E881A981BA810E943F070CC0E33025
:100D140051F4E981FA81FA93EA93AA81E091860178
:100D2400F0918701099524960895A8E8B1E0ED9122
:100D3400FD913196FE93EE933197E657FE4F089559
:100D4400EA0FFB1FEE83FF830895EC85EA93EF819E
:100D5400F8853196EF83F8873197FA93EA93A0E008
:100D64000C9478060A93A8890C94E301EC85EA9321
:100D7400EF81F8853196EF83F887319708956627D8
:100D84007727DF01CB010C9459065A93AA850C945A
:100D940031060A930395E889EA935A9308955E2FDE
:100DA400EC85EA93AF81B885882799270E94590674
:100DB4001E2E08950A930395E889EA93EE85EA9333
:100DC400E985FA853196E987FA873197D8CFBA93BE
:100DD400AA93A881B9810E94500708950E945407DC
:100DE400E0916F01F09170010895F8010F5F1F4FBA
:100DF40004900895E0916F01F09170013196E491AF
:100E04000895EA93E0E0EA93E0E0F0E0FA93EA93ED
:100E1400A9E00C94FE02109639F080ED97E001975A
:100E2400F1F7A8951197C9F70895EE230E2EEA2F2E
:100E340019F0EE0F0A94E9F70895EE230E2EEA2F27
:100E440019F0E6950A94E9F70895FA9FF02DEB9FBF
:100E5400F00DEA9FE02DF10D0895ED91FC911197AD
:100E64000895E199FECFFF93FFB7F894AEBBBFBBE3
:100E7400E09AEDB3FFBFFF910895E19B02C0A895EE
:100E8400FCCF9FB7F894AEBBBFBBE09A8DB3E81715
:100E940019F0EDBBE29AE19A9FBF089500240A1667
:100EA4000B0608955A934A933A932A931A930A93F2
:100EB40008955D814C813B812A81198108810895BF
:00000001FF
