:060000000C942A000C9490
:1000060000000C9400000C9400000C9400000C946A
:1000160000000C9400000C9400000C9400000C945A
:1000260000000C9400000C9400000C9400000C944A
:1000360000000C9400000C9400000C9400000C943A
:1000460000000C9400000C9400000C940000F8943E
:10005600EE27ECBBF1E0FBBFEBBFE5BFF8E1F1BD7E
:10006600E1BD8DE0A2E0BB27ED938A95E9F780E03C
:1000760094E0A0E6ED930197E9F7EFE5EDBFE4E044
:10008600EEBFC0E6D1E00C948600E881F981309796
:1000960011F4E3E035C0A881B981119711F4EFE9B5
:1000A6002FC0A881B981129711F4E5E229C0A88171
:1000B600B981139711F4EDE023C0A881B981149793
:1000C60011F4E9E91DC0A881B981159711F4E9E495
:1000D60017C0A881B981169711F4E1E411C0A8816F
:1000E600B981179711F4EFE10BC0A881B981189770
:1000F60011F4E1E005C0A881B981199711F4E9E08E
:10010600E5BB22960895E0E0EBBBEABBE8BBE7BBA4
:10011600EFEFE5BBE4BBE0E0E2BBEFEFE1BBE0E025
:10012600E3BFE2BFECBFEFBDEEBDEDBDECBDE7BD8D
:10013600E6BDEBBDEABDE9BDE8BDE2BDE5BDE4BD9A
:10014600E3BDE5BFE4BFE9BFEAB9E0E8E8B9E0E04E
:10015600E0BFE0E4E7B9E4E8E6B9E0E0EDB9E6BF20
:10016600939AE0E0F0E0FA93EA938FDF9398929AFD
:10017600E1E0F0E0FA93EA9388DF9298F1CFFFCFBF
:00000001FF
