:0C0000000C9445010C9400000C940000CE
:10000C000C9400000C9400000C9400000C94000064
:10001C000C9400000C9400000C9400000C94000054
:10002C000C9400000C9400000C9400000C94000044
:10003C000C9400000C9400000C9400000C94000034
:10004C000C9400000C9400000507206000000000D8
:10005C000000005F00000007000700147F147F14ED
:10006C00242A7F2A12231308646236495522500031
:10007C0005030000001C2241000041221C00082A3C
:10008C001C2A0808083E0808005030000008080820
:10009C000808003030000020100804023E51494589
:1000AC003E00427F400042615149462141454B315F
:1000BC001814127F1027454545393C4A49493001EF
:1000CC00710905033649494936064949291E003646
:1000DC003600000056360000000814224114141497
:1000EC0014144122140800020151090632497941C5
:1000FC003E7E1111117E7F494949363E41414122D4
:10010C007F4141221C7F494949417F090901013E38
:10011C00414151327F0808087F00417F4100204057
:10012C00413F017F081422417F404040407F020440
:10013C00027F7F0408107F3E4141413E7F0909093F
:10014C00063E4151215E7F091929464649494931EC
:10015C0001017F01013F4040403F1F2040201F7F95
:10016C002018207F6314081463030478040361517E
:10017C0049454300007F4141020408102041417F62
:10018C00000004020102044040404040000102040F
:10019C000020545454787F48444438384444442014
:1001AC00384444487F3854545418087E09010208D6
:1001BC001454543C7F0804047800447D40002040D3
:1001CC00443D00007F10284400417F40007C04180F
:1001DC0004787C0804047838444444387C1414149F
:1001EC0008081414187C7C0804040848545454203F
:1001FC00043F4440203C4040207C1C2040201C3CC0
:10020C004030403C44281028440C5050503C44642E
:10021C00544C44000836410000007F000000413679
:10022C00080002010204027F4141417F00010307E3
:10023C000F1F3F7FFF001027E80364000A00010036
:10024C000010000110000100000044697374616E1D
:10025C0063653A00636D000001002D4E414E00496C
:10026C004E4600000200040054020A0060015602CF
:10027C0003006A0160020100840364020000F89428
:10028C00EE27ECBBF1E0FBBFEBBFE5BF8DE0A2E0DE
:10029C00BB27ED938A95E9F780E094E0A0E6ED9317
:1002AC000197E9F7E0E7F2E085919591009761F00D
:1002BC00A591B59105901590BF01F00105900D9297
:1002CC000197E1F7FB01F0CFEFE5EDBFE4E0EEBF06
:1002DC00C0E6D1E00C949E01AA930E948507AA81E6
:1002EC000E94B907A9810E94B907A8810E94B90789
:1002FC000E9494070C94D806AA931A93EB81EF5F93
:10030C001E2F0E948507AB810E94B907AA810E940B
:10031C00B9070E948507A12F0E94B907A9810E94E5
:10032C009E071E2F0E949407E12F18810C94F7064C
:10033C002897E0E0EABBEBBBEFEFE7BBE0E0E8BB04
:10034C00E4BBE5BBEFEFE1BBE0E0E2BBE3BFE2BF48
:10035C00ECBFEFBDEEBDEDBDECBDE7BDE6BDEBBD4D
:10036C00EABDE9BDE8BDE2BDE5BDE4BDE3BDE9BF65
:10037C00E5BFE4BFEBB9E8E1EAB9E6E8E0BDE0E0EF
:10038C00E0BDE3E3E9B9E0E8E8B9E0E4E7B9E3E8C4
:10039C00E6B9E0E0E0BFEDB9E6BF0E948007E4E516
:1003AC00F0E0E883F983E0E0EA83EB83EC83ED8310
:1003BC00EE81EC7FEE83E37EEC60EE83EF81E07800
:1003CC00E263EF83DE0195D0E0EEEA93E0E0EA939E
:1003DC00A1E582DFE0EEEA93E2E0EA93A0E08CDFB5
:1003EC009E2EEAE0EA93E0E0EA93A0E6B1E00E94F8
:1003FC005606EDE00E94F906E4E6F0E00E94FF06E6
:10040C00E4E10E94F906EAE0F0E00E94FF06EBE16D
:10041C000E94F906EAE0F0E00E940F08E05DAE2FC2
:10042C000E944D06E1E2EA93E4E1EA93AAE6B1E028
:10043C000E945606C9CFFFCF0895AA931A93AB9882
:10044C0018E0FADFE981E07811F0A89A01C0A898C9
:10045C00E981EE0FE983F0DFA99AEEDFA99811503C
:10046C0081F7AB9A18810C949106AA93AA98A8814B
:10047C00E4DFC6C0AA93AA9AA881DFDFC1C0AA9301
:10048C001A93E981E695E695E6951E2FE4E5E19F42
:10049C00F001DF01EA81F0E0EA0FFB1FE0938A0133
:1004AC00F0938B01E12F18810C94D806AA93E98163
:1004BC00E068AE2FDADFE981EA93A981E0DFE0643E
:1004CC00AE2FD3DF0C949106AA93E981EA93A9810C
:1004DC00EDDFE0918A01F0918B01E457FE4FE08152
:1004EC000C949106AA930E940A07A881A083C2DFEC
:1004FC0087C0BA93AA930E945208A39AAB9AA19A66
:10050C00A998A09AA29AA49AAC98AAE0B0E00E94EA
:10051C00D107AC9AEC81FD81309721F1E681E37033
:10052C001E2FEC81FD81E681E695E695E7700E2F96
:10053C00EC81FD81E781EF773E2FAC81BD810E947C
:10054C002B08E0937101F093720112960E942B0814
:10055C00E0938601F0938701AC81BD8114960E94D3
:10056C002B080DC010E003E032E3E0E0F0E0E09394
:10057C007101F0937201E0938601F0938701E0938F
:10058C008801F0938901A1E270DFE12FE460AE2FC6
:10059C006CDFE02FE061AE2F68DFE32FE068AE2F59
:1005AC0064DFA0E262DFA1E022D0E1E0E0936D0124
:1005BC00E0E0E0936E01E1E0E0937301E0937401FD
:1005CC00E0937501EFEFE0937601E1E0E0937D01BC
:1005DC00EEE7F1E0FA93EA93EFEFEA93A8E0B0E0EC
:1005EC000E9478060FD0E1E00E94590860C0AA93DF
:1005FC00E881E03011F0ECE001C0E8E0AE2F35DF2F
:10060C00219608950E94520830E0E0916E01E0308E
:10061C0009F03FEFE0E0EA93A0E048DF08EF11E0DB
:10062C00F80101501040309719F0A32F5BDFF8CF81
:10063C00E0E0EA93A0E049D30E9459080C94F70635
:10064C00AA931A93ED81EA93AD813EDF1E2FE981C7
:10065C00E73011F0E83039F4EB81EA93AA810E947B
:10066C009306EB8308C0E33021F4EB81E095EB8338
:10067C0002C0E03021F4EA81E0951E2302C0E23092
:10068C0029F4EA81AB81EA231E2B0EC0E13029F458
:10069C00EA81AB81EA231E2707C0E43029F4EA8102
:1006AC00E095AB81EA2B1E23A12F1CDF1881269627
:1006BC000895AA9323970E945008A889A43548F45A
:1006CC00AF85A03330F4AE85A03019F0AD85A030E5
:1006DC0009F4CCC1EE85E887A889BB27EE85F0E04C
:1006EC00AE0FBF1FA535E0E0BE0720F0A889E4E5FA
:1006FC00EA1BEE872D85AF85BB27ED85F0E0AE0FAD
:10070C00BF1FD19720F0AF85E0E3EA1BED87A985E9
:10071C00A63009F05BC0EC85E13009F4A7C1E330E9
:10072C0039F4E0918801F0918901309709F49EC168
:10073C000885ED85E695E695E6953E2FE22FE77068
:10074C0019F4AD852A17E9F0A02FBB27E32FF0E0B1
:10075C000E94EF07AA85BB850E9415072695269552
:10076C002695532F5F935F5FE22FAF91EA1748F006
:10077C00102FE12F1150E03019F00E941A07F9CF19
:10078C00F1CFAE850A1711F1EE85AA85BB85F0E095
:10079C000E941507ED85E77009F03F5F20E02F936D
:1007AC002F5FE32FAF91AE1788F41E851F931F5F49
:1007BC00E02FAF91AE1718F40E941A07F7CFEE8511
:1007CC00AE81BF81F0E00E941507E9CFEF85E7709D
:1007DC003E2FED85E03009F449C1EA85FB85EE83B7
:1007EC00FF8310E00889303009F063C0AD85A83074
:1007FC0008F45AC0E985E03011F0E33009F402C086
:10080C00E73009F402C0E83009F402C0E93009F419
:10081C0002C0EA3021F40A93A88948DE04C0E6300D
:10082C0011F40E9427071F931F5FEE85AF91AE173F
:10083C00A0F5A985A63051F40E942B07FA93EA93F0
:10084C000E940A07A0810E94DA0626C0E985E930D9
:10085C0011F450E00EC0EA3011F45FEF0AC00E94B0
:10086C002B070E9434075E2FE985E73011F0E83042
:10087C0021F40E943A075E2F06C0E33011F4509524
:10088C0002C0E03019F4A52FF5DD06C00E943E072A
:10089C00EFEFEA93AD85D4DEC6CFEF85E85FEF8747
:1008AC00ED85E850ED87D9C05D8520E0E0E0ED876F
:1008BC007EC0E32FAD85AE0FA93020F42D85E0E08E
:1008CC00ED8703C0E8E0E31B2E2F3A93A22F0E9482
:1008DC0088064E2FE985E63011F50E9427071F93F5
:1008EC001F5FEE85AF91AE17C8F40E940A07E08136
:1008FC00E423AE2FE32F0E94E7070E944407E32F67
:10090C00A42F0E94E707E095E1215E2B0E942B07A4
:10091C00FA93EA93A52F0E94DA06E1CF2CC0E930B6
:10092C0011F450E003C0EA30A9F45FEF0E943A07DB
:10093C00AE2FE32F0E94DF075E2F1F931F5FEE8504
:10094C00AF91AE1730F40E943E074A93A0E078DED8
:10095C00F4CF11C01F931F5FEE85AF91AE1758F403
:10096C000E944F07AE2FE32F0E94DF07EA934A93B2
:10097C00AD8566DEEFCFED85E03009F477C0AD854F
:10098C00A83028F4ED85E21B5E2FE0E003C0532F66
:10099C00ED85E850ED8710E0EF85E85FEF87E8E044
:1009AC00E31B2E2F0889EA85FB85EE83FF83E52F59
:1009BC00F0E0E85CFD4F4491E985E63011F50E94CA
:1009CC0027071F931F5FEE85AF91AE17C8F40E94E7
:1009DC000A07E081E423AE2FE22F0E94DF070E947A
:1009EC004407E22FA42F0E94DF07E095E1215E2B44
:1009FC000E942B07FA93EA93A52F0E94DA06E1CF07
:100A0C002CC0E93011F450E003C0EA30A9F45FEFD8
:100A1C000E943A07AE2FE22F0E94E7075E2F1F932A
:100A2C001F5FEE85AF91AE1730F40E943E074A93DC
:100A3C00A0E006DEF4CF11C01F931F5FEE85AF91CF
:100A4C00AE1758F40E944F07AE2FE22F0E94E70713
:100A5C00EA934A93AD85F4DDEFCFE885AA85BB8593
:100A6C00F0E0EA0FFB1FEA87FB87B3CE0E94570822
:100A7C00619608950E945C0724F0E0E0F0E00C948D
:100A8C009106A881B981A435E0E0BE0724F0E3E526
:100A9C00F0E00C949106E881F9810C9491060E9487
:100AAC005C0724F0E0E0F0E00C949106A881B98199
:100ABC00D09724F0EFE2F0E00C949106E881F981F4
:100ACC000C949106BA93AA9323970E9463078F0103
:100ADC00002E012A19F4E0E0F0E05FC00E946A07E2
:100AEC000F820E946A070E820E946A070886EB85B5
:100AFC00A885EA1718F4E0E0F0E04FC0F8010F5FAA
:100B0C001F4F5491A885BB27EE27A50FBE1FEB8561
:100B1C00F0E0EA17FB0718F0E0E0F0E03EC0EE81F1
:100B2C00E695E695E6954E2FEE81E77009F04F5F5E
:100B3C00EF81E030A1F0A985BA85EC93A885EB850F
:100B4C00EA1BF0E0DF01EF81F0E00E94EF07DF012C
:100B5C00E42FF0E00E94EF07E00FF11F1EC0980198
:100B6C00E52FF0E00E0F1F1FA885AF5FA887A150DF
:100B7C00EB85AE1760F4F9012F5F3F4FA491B0E005
:100B8C00E42FF0E00E94EF070E0F1F1FEDCFF901CD
:100B9C00E491A985BA85EC93F8010E9457082C962C
:100BAC000895E0E0E0936F01A0917001BB270E94D3
:100BBC006F07F0E0AE0FBF1FE0917401F0E0AE0FD5
:100BCC00BF1F6DDFE09370010895AA9321970E94D7
:100BDC006307309709F455C0AF81AA3009F44FC0B0
:100BEC00EF81EA93DE0117966DDFAF01309709F4C0
:100BFC004AC0E0917301AE81EA0F3E2FA0916F01C4
:100C0C00BB27F0E0EA0FFB1F8F010535E0E01E0764
:100C1C0018F0032F1127C5DFE0916F01EA93E091E3
:100C2C007001EA93E885EA930E946F07EA93E1E08A
:100C3C00EA935A934A93A7E03CDDE0916F01AE81B1
:100C4C00EA0FEA93E0917001EA93E0917301EA9361
:100C5C000E946F070E947607E0916F01EA93A091C2
:100C6C0070010E946F07EA0FEA933A93E0917401C6
:100C7C000E947607E4E5F0E0E017F10711F491DF4C
:100C8C0002C000936F010E94570828960895AA93FA
:100C9C00EA81EA93AA8119D0A88197DF0C94D8062F
:100CAC00BA93AA931A93EC81EA93AC810ED0A981E2
:100CBC00BA81ED91A983BA831E2FE03019F0A12FD0
:100CCC0084DFF5CF18810C948606AA93A981BB27E3
:100CDC00D1DEE0936F01A881BB27E1DEE0937001C8
:100CEC000C949106BA93AA93B981A881109631F00D
:100CFC00FC81EB816A8161931197E9F7EB81FC81AF
:100D0C0025960895AA93E881F0E0E85CFD4FA49144
:100D1C00E9810E94DF0722960895AA931A93E9812C
:100D2C00E73011F0EA3019F410916D0109C0E93087
:100D3C0019F410916E0104C0E830A1F410917D01FA
:100D4C00E0916E01E03049F0103019F0EFEF1881AE
:100D5C0029C0EA81E095188125C0103019F4E0E033
:100D6C00188120C0EA8118811DC0BA93AA93EA8128
:100D7C00E13021F4E881F981E49114C0E23029F4E6
:100D8C00A881B9810E942F080DC0E33041F4A881DD
:100D9C00B981E0918601F0918701099503C0A88182
:100DAC00B981EC9123960895AA93EB81E03029F454
:100DBC00E881A981BA81EC9314C0E23031F4E88166
:100DCC00A981BA810E943B080CC0E33051F4E9813F
:100DDC00FA81FA93EA93AA81E0918801F091890152
:100DEC00099524960895EA93E4E1EA93A92DB0E0DD
:100DFC0008950E940A08DF01EAE0F0E00E940F0863
:100E0C00E05DAE2F0C944D06AAE8B1E0ED91FD919A
:100E1C003196FE93EE933197E457FE4F0895EA0F07
:100E2C00FB1FEE83FF830895EC85EA93EF81F88531
:100E3C003196EF83F8873197FA93EA93A0E00C94FC
:100E4C00DA060A93A8890C944502EC85EA93EF81A3
:100E5C00F8853196EF83F8873197089566277727C1
:100E6C00DF01CB010C94BB065A93AA850C94930614
:100E7C000A930395E889EA935A9308955E2FEC85BB
:100E8C00EA93AF81B885882799270E94BB061E2E4E
:100E9C0008950A930395E889EA93EE85EA93E98528
:100EAC00FA853196E987FA873197D8CFBA93AA9306
:100EBC00A881B9810E944C0808950E945008E091C5
:100ECC007101F09172010895F8010F5F1F4F0490AA
:100EDC000895E0917101F09172013196E4910895B9
:100EEC00EA93E0E0EA93E0E0F0E0FA93EA93A9E019
:100EFC000C945F03979896988F9A8E9815C08E983D
:100F0C008F98EE270000869B0895879B089504D048
:100F1C008E9A02D08F9AE1E06DE007C08E9A8F9A7C
:100F2C0003D08F98F9DF8E986BE16A95F1F70895ED
:100F3C0078E08F98F1DF879BFECFEEDF889486995F
:100F4C0008948F9AF1DFEE1F7A9599F77A2F772311
:100F5C0011F48E9801C08E9ADFDF8F98E5DF8F9A9F
:100F6C00DBDF8E98D9CF78E0AA0F10F48E9801C0F1
:100F7C008E9ADADF8F98D0DF879BFECFCDDF8F9AEA
:100F8C007A9591F78E98C8DF8F98CEDFE1E086993D
:100F9C00EE278F9AC1CF109639F080ED97E001972C
:100FAC00F1F7A8951197C9F70895F195E195F040DF
:100FBC000895EE230E2EEA2F19F0EE0F0A94E9F79E
:100FCC000895EE230E2EEA2F19F0E6950A94E9F710
:100FDC000895FA9FF02DEB9FF00DEA9FE02DF10D97
:100FEC0008950024112490E1AA0FBB1F001C111CB2
:100FFC000E1A1F0A18F40E0E1F1E01C0A1609A953E
:10100C0099F7FD01D001089512D0EBDF0EF4CDDF7E
:10101C000895E894B7FF04C0A095B0951196689414
:10102C00F7FDC3DFDEDFFD010EF4BFDF0895E894AA
:10103C00F7FF02C0BADF6894B7FF06C0A095B09561
:10104C00119600F8039400FA0895ED91FC91119714
:10105C000895E199FECFFF93FFB7F894AEBBBFBBE9
:10106C00E09AEDB3FFBFFF910895E19B02C0A895F4
:10107C00FCCF9FB7F894AEBBBFBBE09A8DB3E8171B
:10108C0019F0EDBBE29AE19A9FBF089500240A166D
:10109C000B0608955A934A933A932A931A930A93F8
:1010AC0008955D814C813B812A81198108810895C5
:00000001FF
