:060000000C9437000C9483
:1000060000000C9400000C9400000C9400000C946A
:1000160000000C9400000C9400000C9400000C945A
:1000260000000C9400000C9400000C9400000C944A
:1000360000000C9400000C9400000C9400000C943A
:1000460000000C9400000C9400000C9400000000CA
:10005600FF0080C002000600540001006401560043
:1000660002006A0158000000F894EE27ECBBF1E0AC
:10007600FBBFEBBFE5BF8DE0A2E0BB27ED938A9502
:10008600E9F780E094E0A0E6ED930197E9F7EAE569
:10009600F0E085919591009761F0A591B591059055
:1000A6001590BF01F00105900D920197E1F7FB0154
:1000B600F0CFEFE5EDBFE4E0EEBFC0E6D1E00C9493
:1000C6002303AA93E881E064E7B98BE18A95F1F707
:1000D600369A349BFECF349AE4B1F5B12196089551
:1000E600AA931A930E944E05A0EC0E948205A9814C
:1000F6000E9482050E944E05A1EC0E948205A0E0A6
:100106000E9467051E2F0E945D05E12F18810C9441
:100116001A04BA93AA93A881B981A030E1E0BE0778
:1001260024F0EFEFF0E0E883F983AA81BB81A030E9
:10013600E1E0BE0724F0EFEFF0E0EA83FB83AE8157
:10014600BF81A030E1E0BE0724F0EFEFF0E0EE83E0
:10015600FF83AC81BD81A030E1E0BE0724F0EFEF64
:10016600F0E0EC83FD83A881B981A130EFEFBE07F3
:1001760024F4E1E0FFEFE883F983AA81BB81A13093
:10018600EFEFBE0724F4E1E0FFEFEA83FB83AE81E5
:10019600BF81A130EFEFBE0724F4E1E0FFEFEE836D
:1001A600FF83AC81BD81A130EFEFBE0724F4E1E00F
:1001B600FFEFEC83FD83AF81AA2322F0C29AC49895
:1001C600EE8107C0AF81AA232AF4C298C49AEE81B1
:1001D600E195ECBFAD81AA232AF0909A9198EC8123
:1001E600FD8109C0AD81AA2342F49098919AEC81D1
:1001F600FD810E94A405F9BDE8BDAB81AA232AF0C2
:10020600929A9398EA81FB8109C0AB81AA2342F4B2
:100216009298939AEA81FB810E94A405FBBDEABDF0
:10022600A981AA2322F0969AAB98E88107C0A981F2
:10023600AA232AF49698AB9AE881E195E3BD28961D
:100246000895EFEFF3E02F0166247724E0E1F0E074
:100256006E167F0694F5D301E8E0F0E00E94730481
:1002660011F4C79801C0C79AD301E4E0F0E00E94F8
:10027600730411F4C69801C0C69AD301E2E0F0E017
:100286000E94730411F4DF9801C0DF9AF301A1E024
:10029600B0E00E94DB05E03011F4DE9801C0DE9A82
:1002A600A0E00FDFE415F50520F44301A0E009DF27
:1002B6002F01F30131963F01C9CFE0E00E947B0494
:1002C600D4010E947E04D4010E948A04ADE30E94F8
:1002D6002804D201E8EEF3E00E949104D2010E94C4
:1002E6009504D2010E947E04D2010E948A040895D8
:1002F600A1E0F6DEF0E0A0916801B0916901EA1B89
:10030600FB0B0E949804A0916701AA2322F40E9485
:100316009D040E9498040E94A204A138E0E0BE0752
:1003260034F00E949D04EF5FF0400E9498040E9402
:10033600A204A038EFEFBE0734F40E949D04E150FA
:10034600FF4F0E949804A0916701AA238AF0E8E073
:100356000E947B04ABE20E9428040E94A2040E9431
:1003660095040E94A2040E947E040E94A20414C066
:10037600A0916701AA23C2F4E8E00E947B04ADE2E3
:100386000E9428040E94A7040E9495040E94A704C4
:100396000E947E040E94A704EAE0F0E00E94CD05D8
:1003A600E05DAE2F0E9428040E949D04AFEFBFEFD0
:1003B6000E94B0050E949804A5E083DEE0936001E8
:1003C600F0936101E0E00E94AC040E94AF040E9439
:1003D60095040E94AF040E947E040E94AF040E940E
:1003E6008A04A4E06EDE6F01E4E00E94AC04D6014C
:1003F6000E949504D6010E947E04D6010E948A04BA
:10040600A3E05FDE5F01E8E00E94AC04D5010E9434
:100416009504D5010E947E04D5010E948A04F50147
:10042600EC19FD09E0936201F09363010895E4EF8E
:10043600F1E04E165F060CF0F9C0082C092829F4E5
:100446000E94B4040E94BE04E5C0E1E0F0E0E815B5
:10045600F90569F40E94B4040E949D0430960E9436
:10046600BE04FA93EA930E94A2041096DDC0E2E06D
:10047600F0E0E815F90559F40E94CA040E94CF0479
:100486000E94BE040E94D7040E94E104CBC0E3E0B0
:10049600F0E0E815F90529F40E94E5040E94E90454
:1004A600C1C0E4E0F0E0E815F90559F40E94EF0454
:1004B600BF01DF010E94CF040E94F6040E94E104FE
:1004C600B1C0E5E0F0E0E815F90559F40E94EF0443
:1004D6000E9400050E9406050E949D040E94CA040F
:1004E600A1C0E6E0F0E0E815F90569F40E94EF0422
:1004F6000F010E940005D0010E94CF040E9406054C
:100506000E9409058BC0E7E0F0E0E815F90551F413
:100516000E94EF040E9400050E940F050E94A2049B
:10052600109682C0E8E0F0E0E815F90569F40E944B
:10053600EF04BF010E9400050E9412050E940605F5
:10054600DB010E9414056AC0E9E0F0E0E815F90550
:1005560029F40E94E5040E94E90464C0EAE0F0E0A0
:10056600E815F90559F40E94EF04BF01DF010E9466
:10057600CF040E94F6040E94E10454C0EBE0F0E0D0
:10058600E815F90559F40E94EF040E9400050E943F
:1005960006050E949D040E94CA0444C0ECE0F0E0F7
:1005A600E815F90569F40E94EF040F010E940005A1
:1005B600D0010E94CF040E9406050E9409052EC0A4
:1005C600EDE0F0E0E815F90551F40E94EF040E9411
:1005D60000050E940F050E94A204109625C0EEE0B9
:1005E600F0E0E815F90569F40E94EF04BF010E94E6
:1005F60000050E9412050E940605DB010E941405F3
:100606000DC0EFE0F0E0E815F90579F40E940F055A
:1006160091D13096FA93EA930E94EF04A091660175
:10062600B0916701AE0FBF1F74DD09C00E941905A6
:100636000E9419050E941905A0E0B0E06ADD089540
:10064600E0ECEABBE0E0EBBBEFEFE7BBE0E0E8BBEA
:10065600E8E0E4BBE0E0E5BBEFEFE1BBE0E0E2BBF6
:10066600EBE6E3BFE0E0E2BFECBFE1EAEFBDEBE0C3
:10067600EEBDE0E0EDBDECBDE7BDE6BDEBBDEABD20
:10068600E9BDE8BDE2BDECE6E5BDE0E0E4BDE3BD05
:10069600E9BFE5BFE4BFEAB9E0E8E8B9E0E4E7B9F5
:1006A600E3E8E6B9E0E0E0BFEDB9E6BF0E94490540
:1006B600A0E1EAD0A8EBBBE00E949A05A1E010DD1C
:1006C600F0E0E0936801F0936901B5D1E4EFF1E061
:1006D6004E165F060CF053C0EAEFF0E0EC15FD0590
:1006E6002CF5A9D1E0E9F1E0EC15FD055CF474D137
:1006F600DF0197D1BF0181D192D1FA93EA938FD1CD
:100706009ED112C0E8E0F0E0E815F9052CF4EFE020
:10071600F0E0E815F9050CF402C089DE06C086D1C2
:1007260085D184D1A0E0B0E0F4DCD6CFEAEFF0E0EA
:10073600EA15FB0514F57FD1E0E9F1E0EA15FB05C2
:100746004CF464D1BF01FBD0EA0FFB1F2DD12CD195
:1007560076D111C00024081409042CF4E8E0F0E076
:100766008E169F060CF002C062DE06C05FD15ED117
:100776005DD1A0E0B0E0CDDCD9CF59DE27C0ECD00A
:10078600A83CE0E0BE07A4F402D160D1EA1BFB0B53
:1007960034D161D1EA1BFB0B30D15DD1EA0FFB1FCF
:1007A6002CD1E0916401F091650159D1C8D00BC0FC
:1007B600C1D055D1FA93EA9359D158D1BBD0A09163
:1007C6006201B0916301AE0FBF1FA3DC7ECFFFCFE6
:1007D600AA93E5B3EF70AE2FE881E07FEA2BE5BB85
:1007E6008DE08A95F1F7AA9A8DE08A95F1F7AA9895
:1007F6008DE08A95F1F772C0AA93A881E9DFE881B6
:10080600E295E883A881E4DF85E88A95F1F766C07A
:10081600AA93E881F0E0E659FE4FE081A981AE0F88
:10082600EBDFE981E0936E01E881E0936F012296A8
:100836000895A2E01FD1ACE0DFDFA1E01BD1E0E02C
:10084600E0936F01E0936E010895AA93A881AA3000
:1008560031F0E0917001A0916E01AE1758F0E0E022
:10086600EA93A0916F01AF5FA0936F01D1DFA881DA
:10087600AA30A1F1E0916E01EF5FE0936E01A89AB4
:10088600A881BADFA8982AC0AA93E4B3E06FE4BBB4
:10089600A29AA09AA19AAA98A898A998E881E09302
:1008A6007001E058E0936C01E881E054E0936D013B
:1008B600A4E1B0E00E949A05E2D0E1D0E0D0A0E247
:1008C60087DF88EC90E00197F1F7A8E295DFA4E0D6
:1008D60093DFA5E891DFA6E08FDFABDF21960895D1
:1008E6000E94C805A1E0B0E00E94DB05E030089553
:1008F600EA93A0E08DCFEAE0F0E00E94C805DF01B0
:10090600EAE0F0E00E94CD05E05DAE2F9ECFEAE082
:10091600F0E00E94CD05E05DAE2F97CF0E94C8059E
:10092600DF01F5CFE4E6F0E0F9CFE0936601F0935E
:1009360067010895E0916601F09167010895A0911D
:100946006601B09167010895F5DF0E94A405DF01F5
:100956000895EA93A1E05CCFA0916001B091610196
:100966000895E8DFA0916401B0916501EA0FFB1FCD
:10097600FA93EA930895FA93EA93E0916401F09169
:1009860065010E94A405DBDFEA0FFB1F0895A09115
:100996006401B09165010895E2E0F0E00E94C805A7
:1009A600CEDFEA0FFB1F0895FA93EA93E091640104
:1009B600F09165010E94A405DF01EECFFA93EA9358
:1009C600B9DFE5CFB7DF30960F01D5CFFA93EA93BB
:1009D6001A920A92AFDFDBCFE0916401F0916501D4
:1009E6000E94A4050895FA93EA93FB01A8DFEA0F93
:1009F600FB1FFA93EA93CBDFCFCFA1DFEA0FFB1FF2
:100A0600FA93EA930895FA93EA93ABCFC0DFE2E054
:100A1600F0E00E94C80508958DDF3096F4CFB7DF69
:100A2600BBCFE2E0F0E00E94C8050895E0E0F0E008
:100A3600FA93EA9308950E9424010C947B01FA9399
:100A4600EA93FB017CDFAE0FBF1F0895E0916201C0
:100A5600F09163010895FADF0E94A40598CFA09152
:100A66006201B0916301EA0FFB1F0895EFDF0E9458
:100A7600A405C3CFC1DEA3E0B0E00C949A05A0E3C1
:100A8600A7DE88EC90E00197F1F70895C098C19829
:100A9600B89AB99815C0B998B898EE270000B19BD6
:100AA6000895B09B089504D0B99A02D0B89AE1E0AF
:100AB6006DE007C0B99AB89A03D0B898F9DFB9982B
:100AC6006BE16A95F1F7089578E0B898F1DFB09B8D
:100AD600FECFEEDF8894B1990894B89AF1DFEE1F45
:100AE6007A9599F77A2F772311F4B99801C0B99AB4
:100AF600DFDFB898E5DFB89ADBDFB998D9CF78E0C1
:100B0600AA0F10F4B99801C0B99ADADFB898D0DF05
:100B1600B09BFECFCDDFB89A7A9591F7B998C8DF2A
:100B2600B898CEDFE1E0B199EE27B89AC1CF10961A
:100B360039F080ED97E00197F1F7A8951197C9F77D
:100B46000895F195E195F0400895FA9FF02DEB9FF9
:100B5600F00DEA9FE02DF10D089534D0F6DF0EF486
:100B6600F0DF08950024112490E1AA0FBB1F001C9A
:100B7600111C0E1A1F0A18F40E0E1F1E01C0A160CA
:100B86009A9599F7FD01D00108951CD0EBDF0EF47C
:100B9600D8DF0895E894B7FF04C0A095B0951196E4
:100BA6006894F7FDCEDFDEDFFD010EF4CADF08959F
:100BB600E894F7FF02C0C5DF6894EA23FB230EF42E
:100BC600C0DF0895E894F7FF02C0BBDF6894B7FF63
:100BD60006C0A095B095119600F8039400FA089502
:00000001FF
