:060000000C9458000C9462
:1000060000000C9400000C9400000C9400000C946A
:1000160000000C9400000C9400000C9400000C945A
:1000260000000C9400000C9400000C9400000C944A
:1000360000000C9400000C9400000C9400000C943A
:1000460000000C9400000C9400000C9400000C942A
:1000560000000C9400000C9400000C9400000C941A
:1000660000000C9400000C9400000C9400000C940A
:1000760000000C94A6000C9400000C9400000C9454
:1000860000000C9400001027E80364000A00010039
:100096000010000110000100000080C002000A00EC
:1000A6009E0002006205A0000000F894EE27ECBB5B
:1000B600F1E0F5BFE5BFE0936C00F8E1F1BDE1BD0D
:1000C6008DE0A2E0BB27ED938A95E9F780E090E109
:1000D600A0E0B1E0ED930197E9F7E2EAF0E085915F
:1000E6009591009761F0A591B59105901590BF0186
:1000F600F00105900D920197E1F7FB01F0CFEFEFCC
:10010600EDBFE0E1EEBFC0E0D5E00C947E061A93A9
:100116000E94E609E0ECEA930E941A0AE981EA9352
:100126000E941A0A0E94E609E1ECEA930E941A0A62
:10013600E0E0EA930E94FF091E2F0E94F509E12FD5
:100146001881229608950A921A92FA926A937A93DD
:100156008A939A93AA93BA93EA93FA93EFB7EA9398
:100166001A930A9310919B0000919C00A12FB0E076
:10017600ECE1F0E0EA23FB23309789F4E72DF0E089
:10018600E050FB4F00837394E8E0E71509F4772409
:100196009394E8E0E91519F49924689420F801335A
:1001A60051F40E94A508E1E3EA930E943A08E1E0CF
:1001B600F0E05F0174C0023351F40E94A508E2E347
:1001C600EA930E943A08E2E0F0E05F0168C0033378
:1001D60051F40E94A508E3E3EA930E943A08E3E09B
:1001E600F0E05F015CC0043351F40E94A508E4E32B
:1001F600EA930E943A08E4E0F0E05F0150C005335C
:1002060051F40E94A508E5E3EA930E943A08E5E066
:10021600F0E05F0144C0063351F40E94A508E6E30E
:10022600EA930E943A08E6E0F0E05F0138C007333F
:1002360051F40E94A508E7E3EA930E943A08E7E032
:10024600F0E05F012CC0083351F40E94A508E8E3F2
:10025600EA930E943A08E8E0F0E05F0120C0093323
:1002660051F40E94A508E9E3EA930E943A08E9E0FE
:10027600F0E05F0114C00F3651F40E94A508EFE6C6
:10028600EA930E943A08EAE0F0E05F0108C00E94A3
:10029600A508EEE6EA930E943A08AA24BB2409912F
:1002A6001991E991EFBFF991E991B991A9919991C4
:1002B600899179916991F990199009901895E09131
:1002C6009B00F0E0E072D9F3E881E0939C0015C052
:1002D6000E94AB08E064E7B985E28A95F1F70E94CF
:1002E600AE08E064E6B90E94AE08E071E1F30E9450
:1002F600AE08E061E6B9E4B1F5B121960895F89447
:10030600A895AE81BF81A130EFEFBE0724F4E1E0EE
:10031600FFEFEE83FF83AC81BD81A130EFEFBE0717
:1003260024F4E1E0FFEFEC83FD83A881B981A130DD
:10033600EFEFBE0724F4E1E0FFEFE883F983AA813B
:10034600BB81A130EFEFBE0724F4E1E0FFEFEA83C3
:10035600FB83AE81BF81A030E1E0BE0724F0EFEF62
:10036600F0E0EE83FF83AC81BD81A030E1E0BE0703
:1003760024F0EFEFF0E0EC83FD83A881B981A03093
:10038600E1E0BE0724F0EFEFF0E0E883F983AA810D
:10039600BB81A030E1E0BE0724F0EFEFF0E0EA8396
:1003A600FB83AF81AA2332F09798EE81FF81E3BDEC
:1003B600A89508C0AF81AA232AF4979AEE81FF81F7
:1003C600E3BDA895AD81AA233AF09698EC81FD810C
:1003D600F9BDE8BDA89509C0AD81AA2332F4969A65
:1003E600EC81FD81F9BDE8BDA895A981AA2332F06B
:1003F6009498E881F981E1BFA89508C0A981AA234C
:100406002AF4949AE881F981E1BFA895AB81AA23E1
:100416003AF09598EA81FB81FBBDEABDA89509C033
:10042600AB81AA2332F4959AEA81FB81FBBDEABD32
:10043600A895789428960895F894A895E5E0EA9307
:1004460047DFE0930A05F0930B05E4E0EA9340DF0B
:10045600E0930805F0930905E3E0EA9339DF6F01BD
:10046600EDE00E94B1080E94B6080E94BB080E94F7
:10047600B6080E94C8080E94B6080E94D508E8E09F
:100486000E94B108D6010E94BB08D6010E94C80886
:10049600D6010E94D508F6010E94B608EA0FFB1F96
:1004A600E0930E05F0930F05E0910805F09109051C
:1004B600EC19FD09E0930C05F0930D050E94DD088B
:1004C600E4ECFFEFEA17FB0734F40E94DD08A035E1
:1004D600E0E0BE070CF003C0E0E0F0E019C00E94C7
:1004E600DD08A135E0E0BE075CF00E94E2080E944C
:1004F600E708A0E0B0E080EA9FE30E94EC080CC0A9
:100506000E94DD08A43CEFEFBE0734F40E94E20827
:10051600E0930C05F0930D0578940895F894A8954A
:10052600E0E0F0E0E0933205F09333050E94F50831
:10053600509714F00C940E03A8950E94F508E8E075
:10054600F0E00E94FA0811F4DB9801C0DB9A0E94E1
:10055600F508E4E0F0E00E94FA0811F4DA9801C028
:10056600DA9A0E94F508E2E0F0E00E94FA0811F437
:10057600D99801C0D99A0E94F508E2E0F0E00E94FD
:10058600680AE03011F4D89801C0D89A0E9403098D
:100596000E940809EA0FFB1FFF93EF93E7E0EA9337
:1005A60097DEAF91BF91ED93FC930E940D09EA0F80
:1005B600FB1FFF93EF93E6E0EA930E946B01AF9176
:1005C600BF91ED93FC930E9403090E9408090E94C3
:1005D60013090E9418090E941D0934F40E94030998
:1005E600E0933005F09331050E940D090E9413092E
:1005F6000E9424090E941D0934F40E940309E09315
:100606005405F0935505A2E3B5E0ED91FD913196C1
:10061600FE93EE938BCF0E9418090E942D09E438B1
:10062600A3E0FA0724F40E943209109709F423C0C4
:100636000E9418090E9413090E943209AA0FBB1FC3
:10064600AE5EBA4F0E94840A0E0E1F1E0E94370924
:1006560031970E9408090E942D09D0010E943C0989
:100666001CF4E9E0F0E002C00E944E09E093600548
:10067600F09361052FC00E9418090E942D09E538E4
:10068600A3E0FA074CF0EFEFF3E0E0935E05F0939A
:100696005F05EBE0F0E01AC00E9437093097D1F40D
:1006A600E0911205F0911305A0911005B091110586
:1006B600AE0FBF1FE0912E05F0912F050E943C0959
:1006C6001CF4E9E0F0E002C00E944E09E0936005E8
:1006D600F0936105E0E00E945C090E9432090E94E5
:1006E600C8080E9432090E94D508EDE3EA930E94E9
:1006F6003A080E9461090E9466090E9461090E94E7
:10070600BB080E9461090E94C8080E9461090E94F4
:10071600D508EBE00E94B108E0916005F091610513
:10072600F096EA930E943A08D5010E94D508E8E0BF
:100736000E945C090E946C090E94D5080E947109FA
:100746000E94D5080E9476090E94D508E0E00E9422
:10075600B108A0915405B09155050E94C808A09112
:100766005405B09155050E94D508EDE3EA930E9421
:100776003A080E9424090E942D09DF010E94660999
:100786000E9424090E942D09DF010E94BB080E94D5
:1007960024090E942D09DF010E94C8080E9424092D
:1007A6000E942D09DF010E94D508A0914E05B09147
:1007B6004F05A039E1E0BE07C4F0A0914C05B09109
:1007C6004D05A039E1E0BE0784F0A0915205B09135
:1007D6005305A039E1E0BE0744F0A0915005B09161
:1007E6005105A039E1E0BE077CF40E947B0961F463
:1007F6000E946C09109741F40E947109109721F428
:100806000E947609109709F007C0E1E0F0E0E09356
:100816005805F093590594C0A0913405B09135055B
:10082600A039E1E0BE07C4F0A0913605B0913705C6
:10083600A039E1E0BE0784F0A0913805B0913905F2
:10084600A039E1E0BE0744F0A0913A05B0913B051E
:10085600A039E1E0BE077CF40E947B0961F40E94A6
:100866006C09109741F40E947109109721F40E94B7
:100876007609109709F007C0E1E0F0E0E09356052D
:10088600F09357055DC0A0914805B0914905A03980
:10089600E1E0BE0784F0A0914605B0914705A03976
:1008A600E1E0BE0744F0A0914405B0914505A039AA
:1008B600E1E0BE077CF40E947609109759F40E9485
:1008C6007B0941F40E947109109721F40E946C097A
:1008D600109709F007C0E1E0F0E0E0935A05F093C5
:1008E6005B052EC0A0913C05B0913D05A039E1E025
:1008F600BE0784F0A0913E05B0913F05A039E1E026
:10090600BE0744F0A0914005B0914105A039E1E051
:10091600BE077CF40E947609109759F40E947B0961
:1009260041F40E947109109721F40E946C091097F6
:1009360009F006C0E1E0F0E0E0935C05F0935D05A8
:100946000895A8950E943709309729F40E948109D5
:100956000E948709C9C00E943209119739F40E9482
:1009660081090E948D090E949009C3C00E94320924
:10097600129751F40E948109F201EF5FF0400E9444
:1009860087090E949509B5C00E943209139769F438
:10099600F201E058FF4F0E948709FA93EA93F201A9
:1009A600E058F0400E949509A4C00E9432091497AD
:1009B60039F40E948D090E9490090E94950999C0F8
:1009C6000E943209159751F4F201E058F0400E9456
:1009D60087090E949B090E9495098BC00E943209D3
:1009E600169741F40E94A1090E94A709F201E1505D
:1009F600FF4F7FC00E943209179759F40E94A10940
:100A0600F201E058F0400E94A709F201E058FF4FBA
:100A160070C00E943209189751F4F201EF5FF0405E
:100A26000E9490090E94A709F201309662C00E94B6
:100A36003209199739F40E948D090E9490090E9483
:100A4600950957C00E9432091A9759F4F201E058E5
:100A5600F0400E9487090E94A709F201E058FF4F63
:100A660048C00E9432091B9741F40E94A1090E94C6
:100A7600A709F201E150FF4F3CC00E9432091C97C2
:100A860051F4F201EF5FF0400E9490090E94A7091D
:100A9600F20130962EC00E9432091D9759F4F201D8
:100AA600EF5FF0400E949B090E94A709F201E058FF
:100AB600F0401FC00E9432091E9759F4F201EF5F01
:100AC600F0400E949B090E94A709F201E058F040FD
:100AD60010C00E9432091F9781F40E94A1090E944A
:100AE6008109F201E150FF4FFA93EA93F201EF5FB9
:100AF600F040FA93EA930E94820108950E94AA099F
:100B0600A639E0E0BE07ECF40E94DD08E1E0FFEF65
:100B16000E94AF090E94E208EF5FF0400E94B6090A
:100B26000E94E208E150FF4FE419F509FA93EA93AF
:100B36000E94DD08EFEFF0E00E94AF090E948201FB
:100B46007AC00E94AA09AD32E1E0BE075CF00E94BD
:100B5600DD08E0EBFFEFEA17FB0724F40E94DD084F
:100B660098970CF01AC00E94E208FF960E94B609F8
:100B76000E94DD08EFE3F0E00E94AF090E94DD0865
:100B8600E1ECFFEF0E94AF090E94E208EF53F0404C
:100B96000E94B6090E9482014EC00E94AA09AD3287
:100BA600E1E0BE075CF00E94DD08A43CEFEFBE0763
:100BB60024F00E94DD0899970CF001C01CC00E9429
:100BC600E2080E94E708AAE9B9E989E99FE30E94D9
:100BD600EC080E94E2080E943F0AE40DF51D0F0191
:100BE6000E94BB090E94BB09FA93EA931A920A92E1
:100BF6000E94820120C0D201E2E0F0E00E94630A76
:100C06003096FA93EA93FA93EA93FA93EA93FA936D
:100C1600EA930E9482010E94C209AA16BB061CF032
:100C26000E94C70931F40E94AA09A93CE0E0BE0768
:100C36000CF401C086DEA89508950E9471091197EB
:100C4600B1F00E946C09119791F00E9476091197F4
:100C560071F0A0915C05B0915D05119741F00E947D
:100C660018090E942D09E438A3E0FA070CF039C0F0
:100C76000E94C209119711F4E1E32FC00E94C20934
:100C8600129711F4E2E329C00E94C209139711F4E6
:100C9600E3E323C00E94C209149711F4E4E31DC0E4
:100CA6000E94C209159711F4E5E317C00E94C20914
:100CB600169711F4E6E311C00E94C209179711F4C2
:100CC600E7E30BC00E94C209189711F4E8E305C0D8
:100CD6000E94C209199721F4E9E3EA930E9462018E
:100CE60008C00E94CC0929F0EFE6EA930E9462014F
:100CF600A895A8950895A895E0E0EBBBEFE6EABBBA
:100D0600E0E0E8BBE0EFE7BBE0E0E5BBE4BBE2BB6D
:100D1600E0EFE1BBE0E0E3B9E2B9E0936200E09323
:100D26006100E0936500E0936400E0BFECE6E3BF9A
:100D3600E0E0E2BFE1BFE1EAEFBDEBE0EEBDE0E0FF
:100D4600EDBDECBDE7BDE6BDEBBDEABDE9BDE8BD69
:100D5600E0937900E0937800EBE6E5BDE0E0E4BDE2
:100D6600E3BDE0938B00E0938A00E0938900E09373
:100D76008800E0938100E0938000E0938700E09391
:100D86008600E0938500E0938400E0938300E0937F
:100D96008200E0936A00EABFE9BFE7BFE0937D0007
:100DA600E0939B00E8E9E0939A00E6E0E0939D007B
:100DB600E0E0E0939800E7E4E0939900E0E8E8B922
:100DC600E0E0E0BDE0E4E7B9E4E8E6B90E94E10965
:100DD600E0E1EA930E946B08E8E1E1BDE8E0E1BDED
:100DE6007894A0E0CC99A1E0A13079F4E1E0EA930F
:100DF6000E948A00A0E0B0E0F0E00E94980AE8EEC7
:100E0600F3E0FA93EA930E94330AE1E0EA930E9440
:100E16008A000E2E1124A0E0B0E00E94880AD001BC
:100E2600AE1BBF0B2D01ECE00E945C0900244014B0
:100E360050040CF42201E0E8F0E0E415F50524F492
:100E4600EFEFF0E04E1A5F0AE0E8FFEF4E165F069E
:100E560024F4F201E150FF4F2F0100244014500406
:100E660084F0A895EBE00E945C09EBE2EA930E940D
:100E76003A08D2010E94BB08D2010E94C808D201DA
:100E860016C0002440145004D4F4A895EBE00E9448
:100E96005C09EDE2EA930E943A080E94D1090E9499
:100EA600BB080E94D1090E94C8080E94D109EAE045
:100EB600F0E00E94680AF096EA930E943A08EEEC87
:100EC600FFEFE415F5052CF4E2E3F0E04E165F06BD
:100ED6000CF00AC0F2010E943F0A0E94E708A0E057
:100EE600B0E080E190E409C0F2010E943F0A0E944E
:100EF600E708A0E0B0E080EE9FE30E94450B0E9469
:100F0600E00A2F010E9491020E941F0296DEA89518
:100F16000E9418090E942D09E438A3E0FA07B4F4E8
:100F260000240A140B0489F00E94C209AA15BB0505
:100F36001CF40E94CC0949F40E94C209AA15BB05FB
:100F46001CF40E94C70909F401C001C003C0F9DC02
:100F5600A8951FC00E94CC0941F00E9418090E9462
:100F66002D09E538A3E0FA071CF0C8DDA89511C0E5
:100F76000E94C209AA16BB061CF00E94C70949F4C2
:100F86000E94AA09A93CE0E0BE0714F0DADC01C021
:100F9600B5DD3BCFFFCFFFE0FA95F1F70895A4B397
:100FA600AF70A4BBA99AA898F6DFAA9AF4DFA3B3F8
:100FB600AA98F1DFAA9AEFDFAA98A7FDF5CF0895C0
:100FC600A07FAB2BA5BBAA9A0E94CE07AA980E9427
:100FD600CE070895A998A4B3A76FA4BBB5B3BF70F5
:100FE600A881EEDFA881A295EBDFA99A0C94A3084D
:100FF600AA9A0E94CE07E3B3AA980E94CE07E07F82
:1010060008950E94CE07F4DFAE2FF2DFA998E2958D
:10101600EA2B08950E94D2070E94AB08EE59FA4FB8
:10102600E081F0E0DF01E981F0E0EA0FFB1FEA93DF
:101036000E94ED078980E881E0936605229608956F
:101046000E94D207E2E0EA930E94ED070E94D207CF
:10105600ECE0EA930E94ED070E94D207E1E0EA93F2
:101066000E94ED07E0E0E09366058E2E0895EF936B
:10107600FF93A8816894AA3031F0E8948394E091B4
:101086006705E81560F4E0916605EF5FE093660595
:10109600E0E0EA93E0916605EA93BCDF2EF07FDF9D
:1010A600A89AA881AA9396DFFF91EF910C94A308C2
:1010B600AA27BB271197F1F70895A998A4B3A76F9C
:1010C600A4BBB5B3BF70A8810E94E307A99A38C034
:1010D600AA98A898E881E09367050E94AB08E058B3
:1010E600FF4FE09364050E94AB08E054FF4FE09386
:1010F60065050E94D6090E94D6090E94D609D8DF46
:10110600E0E2EA93DADFD4DFE8E20E94DC09E4E019
:101116000E94DC09E5E80E94DC09A4B3AF70A4BB19
:10112600A99A0E940408E53011F0E0E009C00E9487
:10113600D207E6E0EA930E94ED070E942308E1E069
:1011460021960895ECE0EA93E1E0EA930C940D0809
:10115600E881F0E00895E6B1F0E00895EA93E1E071
:10116600EA930C940D08A0910805B091090508951D
:10117600E4E6F0E00E94630ADF01EAE0F0E00E94A4
:10118600680AF096EA930C943A08EAE0F0E00E94C6
:10119600630ADF01EAE0F0E00E94680AF096EA934B
:1011A6000C943A08EAE0F0E00E94680AF096EA93A6
:1011B6000C943A08A0910C05B0910D050895E091A4
:1011C6000C05F0910D0508950E944B0A0E94170B1D
:1011D60008950E94450BACE0B5E00E94E00AED934D
:1011E600FC930895A0913205B091330508950E94AD
:1011F600630ADF01E2E0F0E00E94680AE030089549
:10120600E0913205F09133050895A0E1B5E0EE0FC7
:10121600FF1F0895F5DFA4E3B5E0EE0FFF1F089565
:10122600AE0FBF1F0D901C900895E0913005F09110
:101236003105EBCFAE0FBF1F0E94840A0E161F06A4
:101246000895E0915405F0915505A4E3B5E0EE0F3D
:10125600FF1F0895AE0FBF1F0E94840A0895A09134
:101266003005B09131050895E0913005F0913105D2
:101276000895AE0FBF1FE3E0F0E00E94630AE0931B
:101286005E05F0935F05A0915E05B0915F05A436FB
:10129600E0E0BE070895A0915E05B0915F05E4E623
:1012A600F0E00E94630ADF01EAE0F0E00E94680ACB
:1012B6000895EA93E0E0EA930C940D08A0915E0588
:1012C600B0915F050895E8EEF3E00E94630ADF013E
:1012D60069CFA0915805B09159050895A09156057A
:1012E600B09157050895A0915A05B0915B050895F0
:1012F600A0915C05B0915D0510970895F201E1504B
:10130600FF4FFA93EA930895FA93EA93F201EF5F97
:10131600F0400895F2013096F7CFFA93EA93F2017E
:1013260030960895FA93EA93F201E150FF4F08953B
:10133600FA93EA93F201E058FF4F0895F201EF5F46
:10134600F040FA93EA930895FA93EA93D7CFA091DF
:101356000A05B0910B050895EA1BFB0BE40DF51D7C
:10136600FA93EA930895E40DF51DFA93EA93089526
:10137600FA93EA93F2011EDFEA0FFB1F0895A0918C
:101386006005B09161050895E9E0F0E0EA15FB0516
:101396000895EAE0F0E0EA15FB050895F2010E94DF
:1013A6003F0ADF0108950E945B08E0E3EA930C948C
:1013B6006008EA930E94ED070C945B089098919858
:1013C600889A899815C089988898EE270000819B8D
:1013D6000895809B089504D0899A02D0889AE1E006
:1013E60062E107C0899A889A03D08898F9DF8998BC
:1013F60065E26A95F1F7089578E08898F1DF809BB9
:10140600FECFEEDF889481990894889AF1DFEE1F6B
:101416007A9599F77991772311F4899801C0899A79
:10142600DFDF8898E5DF889ADBDF8998D9CFE991F5
:1014360078E0EE0F10F4899801C0899AD9DF889870
:10144600CFDF809BFECFCCDF889A7A9591F789987B
:10145600C7DF8898CDDFE1E08199EE27889A089565
:10146600E991F991309639F08DEC9AE00197F1F710
:10147600A8953197C9F70895F195E195F04008953B
:10148600F09560957095E195FF4F6F4F7F4F0895EA
:101496006F2F660F660B762F08950024112490E1B6
:1014A600AA0FBB1F001C111C0E1A1F0A18F40E0EE1
:1014B6001F1E01C0A1609A9599F7FD01D0010895FC
:1014C60012D0EBDF0EF4D8DF0895E894B7FF04C01E
:1014D600A095B09511966894F7FDCEDFDEDFFD018D
:1014E6000EF4CADF0895E894F7FF02C0C5DF6894DA
:1014F600B7FF06C0A095B095119600F8039400FAC0
:101506000895ED91FC9111970895119602D0FE2F42
:101516001197E199FECFFF93FFB7F894AEBBBFBB1F
:10152600E09AEDB3FFBFFF91089507D01196EF93B0
:10153600EF2F03D0EF9111970895E19B02C0A89574
:10154600FCCF9FB7F894AEBBBFBBE09A8DB3E8174C
:1015560019F0EDBBE29AE19A9FBF0895552342F434
:10156600503811F4E0FF04C03196691F791F6BF003
:1015760050E8572711F45F9373C05F3F31F0660F51
:10158600000C57956795752F08955F9300200AF014
:1015960073C06CC050E8192E1522880F991F952725
:1015A600550F879550E8072E0522660F771F75277A
:1015B600550F67950895689401C0E8945F93F2DF2C
:1015C600703818F07F3F08F44BC056E1571BAAF459
:1015D600519558300EF4593030F0EFEFFFEF6FEFC2
:1015E6007FE777F91AC077275523B9F0EE0FFF1F6B
:1015F600661F771F5A95D1F710C07727583028F005
:10160600EF2FF62F672F5850F9CF552331F07695E7
:101616006795F795E7955A95D1F700200AF430DFDC
:101626005F910895689401C0E894309760407040D7
:10163600B1F0002426F0772312F4009421DF172E50
:101646007EE1112032F07A95EE0FFF1F661F111C06
:10165600F9CFEF2FF62F612D5F938ADF5F91089503
:10166600EE27FF27662777275F910895EFEFFFEFB5
:101676006FE77FEF5F910895EFEFFFEF6FE77FE78B
:101686005F9108955F9386DF703851F3903841F388
:1016960001240894791F23F41CF300203AF3ECCFBD
:1016A6000F921F932F933F934F931127222799272A
:1016B600689FA0018F9F302D410D591F6B9F300DE4
:1016C600411D591F8E9F27D0BF9F25D06A9F23D0CB
:1016D600BE9F1DD0AF9F1BD0AE9F110D291F391F76
:1016E600491F591FE32FF42F652F522F4F913F911A
:1016F6002F911F910F9066232AF0550FEE1FFF1FA3
:10170600661F02C073954BF229DF5F910895100D95
:10171600211D391F02C0200D311D491F591F089573
:00000001FF
