:0C0000000C9458000C9400000C940000BC
:10000C000C9400000C9400000C9400000C94000064
:10001C000C9400000C9400000C9400000C94000054
:10002C000C9400000C9400000C9400000C94000044
:10003C000C9400000C9400000C9400000C94000034
:10004C000C9400000C9400000C9400000C94000024
:10005C000C9400000C9400000C9400000C94000014
:10006C000C9400000C9400000C9400000C94A6005E
:10007C000C9400000C9400000C9400000C940000F4
:10008C001027E80364000A000100001000011000B2
:10009C000100000080C002000A009E0002005C0506
:1000AC00A0000000F894EE27ECBBF1E0F5BFE5BF33
:1000BC00E0936C00F8E1F1BDE1BD8DE0A2E0BB275F
:1000CC00ED938A95E9F780E090E1A0E0B1E0ED9343
:1000DC000197E9F7E2EAF0E085919591009761F0DC
:1000EC00A591B59105901590BF01F00105900D9269
:1000FC000197E1F7FB01F0CFEFEFEDBFE0E1EEBFD1
:10010C00C0E0D5E00C945C031A930E946005E0EC0F
:10011C00EA930E949405E981EA930E9494050E9457
:10012C006005E1ECEA930E949405E0E0EA930E94FA
:10013C0079051E2F0E946F05E12F18810C9457042E
:10014C00AA93BA93EA93FA93EFB7EA931A930A93A2
:10015C0010919B0000919C00A12FB0E0ECE1F0E02D
:10016C00EA23FB23309789F4E72DF0E0E050FB4FB6
:10017C0000837394E8E0E71509F477249394E8E09E
:10018C00E91519F49924689420F809911991E991C9
:10019C00EFBFF991E991B991A99118950E94DB04EF
:1001AC00E064E7B985E28A95F1F70E94DE04E06429
:1001BC00E6B90E94DE04E071E1F30E94DE04E06126
:1001CC00E6B9E4B1F5B10C94D904F894A895AE81D4
:1001DC00BF81A130EFEFBE0724F4E1E0FFEFEE8327
:1001EC00FF83AC81BD81A130EFEFBE0724F4E1E0C9
:1001FC00FFEFEC83FD83A881B981A130EFEFBE073F
:10020C0024F4E1E0FFEFE883F983AA81BB81A130FC
:10021C00EFEFBE0724F4E1E0FFEFEA83FB83AE814E
:10022C00BF81A030E1E0BE0724F0EFEFF0E0EE83F9
:10023C00FF83AC81BD81A030E1E0BE0724F0EFEF7D
:10024C00F0E0EC83FD83A881B981A030E1E0BE072A
:10025C0024F0EFEFF0E0E883F983AA81BB81A030B2
:10026C00E1E0BE0724F0EFEFF0E0EA83FB83AF811F
:10027C00AA2312F0979804C0AF81AA2322F4979A6C
:10028C00EE81FF81E3BDAD81AA2312F0969804C0E4
:10029C00AD81AA232AF4969AEC81FD81F9BDE8BDC3
:1002AC00A981AA2312F0949804C0A981AA2322F44C
:1002BC00949AE881F981E1BFAB81AA2312F0959859
:1002CC0004C0AB81AA232AF4959AEA81FB81FBBD79
:1002DC00EABDA895789428960895F894E0E0F0E0AB
:1002EC00E0933205F09333050E94E104509714F02B
:1002FC000C94D201A8950E94E104E8E0F0E00E9481
:10030C00E60411F4DB9801C0DB9A0E94E104E4E0FE
:10031C00F0E00E94E60411F4DA9801C0DA9A0E9427
:10032C00E104E2E0F0E00E94E60411F4D99801C087
:10033C00D99A0E94E104E2E0F0E00E94E705E03087
:10034C0011F4D89801C0D89A0E94EF04EA0FFB1F51
:10035C00FF93EF93E0E0EA9321DFAF91BF91ED9330
:10036C00FC930E94EF04AE0FBF1F0D901C900E94D7
:10037C00F8040E161F0644F4E0913205F091330593
:10038C00E0933005F0933105A2E3B5E0ED91FD91DA
:10039C003196FE93EE93A8CFE0E0EA93EA930E94A5
:1003AC0043040E9405050E940C050E9405050E944D
:1003BC001705EDE3EA930E9470040E94F804DF0134
:1003CC00E8EEF3E00E940C050E94F804DF01E4E67D
:1003DC00F0E00E940C050E94F804DF01EAE0F0E076
:1003EC000E940C050E94F804DF01EAE0F0E00E9494
:1003FC001705A895A0913405B0913505A039E1E019
:10040C00BE07C4F0A0913605B0913705AC32E1E0DF
:10041C00BE0784F0A0913805B0913905AC32E1E00B
:10042C00BE0744F0A0913A05B0913B05A039E1E03C
:10043C00BE0734F4E1E0F0E0E0935405F093550589
:10044C00A0914C05B0914D05A039E1E0BE07C4F078
:10045C00A0914E05B0914F05AC32E1E0BE0784F09F
:10046C00A0915005B0915105AC32E1E0BE0744F0CB
:10047C00A0915205B0915305A039E1E0BE0734F4C8
:10048C00E1E0F0E0E0935605F09357057894089579
:10049C00A895A0910C05B0910D050E940207ACF433
:1004AC00E0910C05F0910D050E94CA050E9486068C
:1004BC00A0E0B0E080EC9FE30E94B406ACE0B5E0B5
:1004CC000E944F06ED93FC930EC0A0910D05AA233C
:1004DC0052F4E0910C05F0910D050E94C505E093D6
:1004EC000C05F0930D050E941D05109741F00E941C
:1004FC001D05119721F00E941D051F9729F40E94DC
:10050C0022050E942805C7C00E941D05119749F4B9
:10051C000E942205F20130960E9428050E942E05A9
:10052C00BFC00E941D05129751F40E942205F201D2
:10053C00EF5FF0400E9428050E943305B1C00E9475
:10054C001D05139751F4F201E058FF4F0E94280546
:10055C000E9439050E943305A3C00E941D05149703
:10056C0049F4F20130960E9428050E942E050E9443
:10057C00330596C00E941D05159741F4F201E05811
:10058C00F0400E9428050E943F058AC00E941D056C
:10059C00169731F40E944505F201E150FF4F80C0DF
:1005AC000E941D05179759F4F201EF5FF0400E946D
:1005BC0039050E944D05F201E058FF4F71C00E94B1
:1005CC001D05189751F4F201EF5FF0400E942E05C3
:1005DC000E944D05F201309663C00E941D051997CB
:1005EC0041F4F201E058F0400E9428050E943F05BA
:1005FC0057C00E941D051A9731F40E944505F2015F
:10060C00E150FF4F4DC00E941D051B9759F4F2019C
:10061C00EF5FF0400E9439050E944D05F201E05851
:10062C00FF4F3EC00E941D051C9751F4F201EF5F75
:10063C00F0400E942E050E944D05F201309630C00C
:10064C000E941D051D9771F4F201EF5FF040FA93C3
:10065C00EA93F201E058FF4F0E944D05F201E05879
:10066C00F0401EC00E941D051E9749F4F201EF5F79
:10067C00F0400E944D05F201E150FF4F0CC00E946A
:10068C001D051F9789F4F201E058F0400E944D05BA
:10069C00F201E058FF4FFA93EA93F201EF5FF0405A
:1006AC00FA93EA930E94EB00A8950895E0E0EBBB67
:1006BC00EFE6EABBE0E0E8BBE0EFE7BBE0E0E5BB80
:1006CC00E4BBE2BBE0EFE1BBE0E0E3B9E2B9E0930D
:1006DC006200E0936100E0936500E0936400E0BF8A
:1006EC00ECE6E3BFE0E0E2BFE1BFE1EAEFBDEBE047
:1006FC00EEBDE0E0EDBDECBDE7BDE6BDEBBDEABD9A
:10070C00E9BDE8BDE0937900E0937800EBE6E5BD48
:10071C00E0E0E4BDE3BDE0938B00E0938A00E0935E
:10072C008900E0938800E0938100E0938000E093DF
:10073C008700E0938600E0938500E0938400E093CB
:10074C008300E0938200E0936A00EABFE9BFE7BF51
:10075C00E0937D00E0939B00E8E9E0939A00E6E0EB
:10076C00E0939D00E0E0E0939800E7E4E0939900CB
:10077C00E0E8E8B9E0E0E0BDE0E4E7B9E4E8E6B9D8
:10078C000E945B05E0E1EA930E94A104E8E1E1BD6F
:10079C00E8E0E1BD7894A0E0CC99A1E0A13079F437
:1007AC00E1E0EA930E948A00A0E0B0E0F0E00E9451
:1007BC000706E8EEF3E0FA93EA930E94AD050E9477
:1007CC0073010E94F804E438A3E0FA071CF460DE1D
:1007DC00A89512C00E94F804E538A3E0FA0764F06B
:1007EC00F20130960E942E050E942E050E942E05C5
:1007FC00FA93EA930E94EB00E2CFFFCFFFE0FA9569
:10080C00F1F70895A4B3AF70A4BBA99AA898F6DF2A
:10081C00AA9AF4DFA3B3AA98F1DFAA9AEFDFAA98F9
:10082C00A7FDF5CF0895A07FAB2BA5BBAA9A0E947C
:10083C000404AA980E9404040895A998A4B3A76F6D
:10084C00A4BBB5B3BF70A881EEDFA881A295EBDF86
:10085C00A99A0C94D904AA9A0E940404E3B3AA9806
:10086C000E940404E07F08950E940404F4DFAE2F7C
:10087C00F2DFA998E295EA2B08950E9408040E94E1
:10088C00DB04E45AFA4FE081F0E0DF01E981F0E0AB
:10089C00EA0FFB1FEA930E9423048980E881E0930E
:1008AC006005229608950E940804E2E0EA930E94F3
:1008BC0023040E940804ECE0EA930E9423040E94A3
:1008CC000804E1E0EA930E942304E0E0E093600571
:1008DC008E2E0895EF93FF93A8816894AA3031F07F
:1008EC00E8948394E0916105E81560F4E09160056B
:1008FC00EF5FE0936005E0E0EA93E0916005EA9336
:10090C00BCDF2EF07FDFA89AA881AA9396DFFF9117
:10091C00EF910C94D904AA27BB271197F1F70895EE
:10092C00A998A4B3A76FA4BBB5B3BF70A8810E944C
:10093C001904A99A38C0AA98A898E881E09361058F
:10094C000E94DB04E058FF4FE0935E050E94DB043D
:10095C00E054FF4FE0935F050E9450050E94500544
:10096C000E945005D8DFE0E2EA93DADFD4DFE8E258
:10097C000E945605E4E00E945605E5E80E945605E3
:10098C00A4B3AF70A4BBA99A0E943A04E53011F04D
:10099C00E0E009C00E940804E6E0EA930E94230408
:1009AC000E945904E1E021960895E881F0E0089551
:1009BC00E6B1F0E00895A0913205B09133050895A9
:1009CC000E94E205DF01E2E0F0E00E94E705E03082
:1009DC000895E0913205F0913305A0E1B5E0EE0FFA
:1009EC00FF1F0895E0913005F0913105A0E1B5E0CD
:1009FC00EE0FFF1FAE0FBF1F0E9403060895A091BC
:100A0C003005B0913105EAE0F0E008950E94E2056E
:100A1C00DF01EAE0F0E00E94E705F096EA930C941F
:100A2C0070040E94E705F096EA930C947004A09170
:100A3C003005B09131050895F201E150FF4FFA9362
:100A4C00EA930895FA93EA93F201EF5FF040089568
:100A5C00FA93EA93F20130960895FA93EA93F2012D
:100A6C00E150FF4F0895FA93EA93F201E058F040F9
:100A7C000895FA93EA93F201E058FF4FEECFF2019A
:100A8C00EF5FF040FA93EA93FA93EA93D5CFFA9397
:100A9C00EA93D2CF0E949104E0E3EA930C9496047B
:100AAC00EA930E9423040C94910490989198889A4C
:100ABC00899815C089988898EE270000819B089525
:100ACC00809B089504D0899A02D0889AE1E062E173
:100ADC0007C0899A889A03D08898F9DF899865E2CB
:100AEC006A95F1F7089578E08898F1DF809BFECF46
:100AFC00EEDF889481990894889AF1DFEE1F7A953D
:100B0C0099F77991772311F4899801C0899ADFDFDD
:100B1C008898E5DF889ADBDF8998D9CFE99178E06E
:100B2C00EE0F10F4899801C0899AD9DF8898CFDF2D
:100B3C00809BFECFCCDF889A7A9591F78998C7DF96
:100B4C008898CDDFE1E08199EE27889A0895E991A4
:100B5C00F991309639F08DEC9AE00197F1F7A89560
:100B6C003197C9F70895F195E195F0400895F09506
:100B7C0060957095E195FF4F6F4F7F4F0895EE0F85
:100B8C00FF1FEE0FFF1F08956F2F660F660B762F5A
:100B9C0008950024112490E1AA0FBB1F001C111C06
:100BAC000E1A1F0A18F40E0E1F1E01C0A1609A9592
:100BBC0099F7FD01D001089512D0EBDF0EF4D3DFCD
:100BCC000895E894B7FF04C0A095B0951196689469
:100BDC00F7FDC9DFDEDFFD010EF4C5DF0895E894F3
:100BEC00F7FF02C0C0DF6894B7FF06C0A095B095B0
:100BFC00119600F8039400FA0895ED91FC91119769
:100C0C00089507D01196EF93EF2F03D0EF91119722
:100C1C000895E19B02C0A895FCCF9FB7F894AEBB9A
:100C2C00BFBBE09A8DB3E81719F0EDBBE29AE19ADD
:100C3C009FBF0895552342F4503811F4E0FF04C0CF
:100C4C003196691F791F6BF050E8572711F45F93A9
:100C5C0073C05F3F31F0660F000C57956795752F89
:100C6C0008955F9300200AF073C06CC050E8192EF1
:100C7C001522880F991F9527550F879550E8072E39
:100C8C000522660F771F7527550F67950895689491
:100C9C0001C0E8945F93F2DF703818F07F3F08F4DE
:100CAC004BC056E1571BAAF4519558300EF45930ED
:100CBC0030F0EFEFFFEF6FEF7FE777F91AC0772790
:100CCC005523B9F0EE0FFF1F661F771F5A95D1F70A
:100CDC0010C07727583028F0EF2FF62F672F585079
:100CEC00F9CF552331F076956795F795E7955A9599
:100CFC00D1F700200AF43BDF5F910895689401C09E
:100D0C00E894309760407040B1F0002426F07723CF
:100D1C0012F400942CDF172E7EE1112032F07A951C
:100D2C00EE0FFF1F661F111CF9CFEF2FF62F612D51
:100D3C005F938ADF5F910895EE27FF276627772759
:100D4C005F910895EFEFFFEF6FE77FEF5F910895ED
:100D5C00EFEFFFEF6FE77FE75F9108955F9386DF1B
:100D6C00703851F3903841F301240894791F23F41F
:100D7C001CF300203AF3ECCF0F921F932F933F9369
:100D8C004F93112722279927689FA0018F9F302D01
:100D9C00410D591F6B9F300D411D591F8E9F27D040
:100DAC00BF9F25D06A9F23D0BE9F1DD0AF9F1BD065
:100DBC00AE9F110D291F391F491F591FE32FF42F07
:100DCC00652F522F4F913F912F911F910F906623BA
:100DDC002AF0550FEE1FFF1F661F02C073954BF2D2
:100DEC0029DF5F910895100D211D391F02C0200DC0
:100DFC00311D491F591F089500240A160B0608952A
:00000001FF
