:040000000C94580004
:100004000C9400000C9400000C9400000C9400006C
:100014000C9400000C9400000C9400000C9400005C
:100024000C9400000C9400000C9400000C9400004C
:100034000C9400000C9400000C9400000C9400003C
:100044000C9400000C9400000C9400000C9400002C
:100054000C9400000C9400000C9400000C9400001C
:100064000C9400000C9400000C9400000C9400000C
:100074000C9400000C94A6000C9400000C94000056
:100084000C9400000C9400001027E80364000A009C
:1000940001000010000110000100000080C00200F7
:1000A4000A009E0002006405A0000000F894EE27F8
:1000B400ECBBF1E0F5BFE5BFE0936C00F8E1F1BD06
:1000C400E1BD8DE0A2E0BB27ED938A95E9F780E0DE
:1000D40090E1A0E0B1E0ED930197E9F7E2EAF0E006
:1000E40085919591009761F0A591B5910590159032
:1000F400BF01F00105900D920197E1F7FB01F0CFEC
:10010400EFEFEDBFE0E1EEBFC0E0D5E00C943406C4
:100114001A930E948C0BE0ECEA930E94C00BE981D5
:10012400EA930E94C00B0E948C0BE1ECEA930E94BC
:10013400C00BE0E0EA930E94A50B1E2F0E949B0BCC
:10014400E12F1881229608950A921A92FA926A93DC
:100154007A938A939A93AA93BA93EA93FA93EFB70A
:10016400EA931A930A9310919B0000919C00A12F8B
:10017400B0E0ECE1F0E0EA23FB23309789F4E72DCB
:10018400F0E0E050FB4F00837394E8E0E71509F4D6
:1001940077249394E8E0E91519F49924689420F8F5
:1001A400023351F40E947109E2E3EA930E940609C2
:1001B400E2E0F0E05F0120C0013351F40E947109D4
:1001C400E1E3EA930E940609E1E0F0E05F0114C074
:1001D400033351F40E947109E3E3EA930E94060990
:1001E400E3E0F0E05F0108C00E947109EEE6EA93E3
:1001F4000E940609AA24BB2409911991E991EFBF31
:10020400F991E991B991A99199918991799169911A
:10021400F990199009901895E0919B00F0E0E07234
:10022400D9F3E881E0939C0015C00E947709E0644B
:10023400E7B985E28A95F1F70E947A09E064E6B9A4
:100244000E947A09E071E1F30E947A09E061E6B95B
:10025400E4B1F5B121960895F894A895AE81BF81D3
:10026400A130EFEFBE0724F4E1E0FFEFEE83FF835C
:10027400AC81BD81A130EFEFBE0724F4E1E0FFEFD4
:10028400EC83FD83A881B981A130EFEFBE0724F48C
:10029400E1E0FFEFE883F983AA81BB81A130EFEFAE
:1002A400BE0724F4E1E0FFEFEA83FB83AE81BF8164
:1002B400A030E1E0BE0724F0EFEFF0E0EE83FF832F
:1002C400AC81BD81A030E1E0BE0724F0EFEFF0E0A7
:1002D400EC83FD83A881B981A030E1E0BE0724F05E
:1002E400EFEFF0E0E883F983AA81BB81A030E1E07D
:1002F400BE0724F0EFEFF0E0EA83FB83AF81AA238B
:1003040012F0979804C0AF81AA2322F4979AEE8141
:10031400FF81E3BDAD81AA2312F0969804C0AD819C
:10032400AA232AF4969AEC81FD81F9BDE8BDA9813E
:10033400AA2312F0949804C0A981AA2322F4949ABF
:10034400E881F981E1BFAB81AA2312F0959804C03A
:10035400AB81AA232AF4959AEA81FB81FBBDEABD0D
:10036400A895789428960895F894A895E5E0EA93DA
:100374005CDFE0930A05F0930B05E4E0EA9355DFB4
:10038400E0930805F0930905E3E0EA934EDF6F017B
:10039400EDE00E947D090E9482090E9487090E9463
:1003A40082090E9494090E9482090E94A1090E9464
:1003B400AB090E94B0090E9487090E94B0090E94FB
:1003C40094090E94B0090E94A1090E947D09D601E6
:1003D4000E948709D6010E949409D6010E94B5099A
:1003E400A895E0910805F0910905EC19FD090E9412
:1003F400BD09F6010E948209EA0FFB1FE0930E0576
:10040400F0930F050E948209AC19BD090E94C2092C
:100414000E94C709E0EBFFEFEA17FB0734F40E94E0
:10042400CD09A035E0E0BE070CF004C0E0E0F0E048
:100434000E94BD090E94D2093CF40E94D609A0E0A2
:10044400B0E080EC9FE30AC0A0910D05AA2372F4EA
:100454000E94D609ADECBCEC8CE49FE30E94F80C3E
:10046400ACE0B5E00E94930CED93FC93789408956E
:10047400F894E0E0F0E0E0933205F09333050E9455
:10048400DF09509714F00C94BD02A8950E94DF096F
:10049400E8E0F0E00E94E40911F4DB9801C0DB9A83
:1004A4000E94DF09E4E0F0E00E94E40911F4DA9824
:1004B40001C0DA9A0E94DF090E94C209DF01E2E06A
:1004C400F0E00E941B0CE03011F4D99801C0D99AD5
:1004D4000E94DF09E2E0F0E00E941B0CE03011F41E
:1004E400D89801C0D89A0E94ED090E94F209EA0F37
:1004F400FB1FFF93EF93E7E0EA9397DEAF91BF9181
:10050400ED93FC930E94F709EA0FFB1FFF93EF930F
:10051400E6E0EA938ADEAF91BF91ED93FC930E94EB
:10052400ED090E94F209AE0FBF1F0D901C900E94AE
:10053400FD090E94020A34F40E94ED09E09330059B
:10054400F09331050E94F709AE0FBF1F0D901C9068
:100554000E94090A0E94020A34F40E94ED09E09301
:100564005405F0935505A2E3B5E0ED91FD91319664
:10057400FE93EE9384CF0E94120AE0911205F0914B
:100584001305EA0FFB1F0E94170AAE0FBF1FE3E01B
:10059400F0E00E94160CE0935E05F0935F05E0E046
:1005A4000E94AB090E941C0A0E9494090E941C0A22
:1005B4000E94B509EDE3EA930E9406090E94FD0931
:1005C4000E94210A0E94270A0E94FD090E94210A12
:1005D4000E9487090E94FD090E94210A0E94940931
:1005E4000E94FD090E94210A0E94B509A895E0E035
:1005F4000E947D09A0915405B09155050E9494096B
:10060400A0915405B09155050E94B509EDE3EA9314
:100614000E9406090E94090A0E94210A0E94270AD0
:100624000E94090A0E94210A0E9487090E94090A5D
:100634000E94210A0E9494090E94090A0E94210A28
:100644000E94B5090E942D0A4CF00E94350A34F02C
:100654000E943D0A1CF00E94450AA4F40E944D0A1F
:100664004CF00E94550A34F00E945D0A1CF00E946E
:10067400650A44F40E946D0A109721F40E94720ADC
:10068400109709F042C00E94FD090E94770AE438DD
:10069400A3E0FA07B4F50E941C0A1C9724F00E94F8
:1006A4001C0A50974CF0A0913105AA2322F00E9415
:1006B4001C0A15970CF025C00E947C0A109709F5B6
:1006C400A0914405B0914505A039E1E0BE07C4F00E
:1006D400A0914605B0914705A039E1E0BE0784F03A
:1006E400A0914805B0914905A039E1E0BE0744F066
:1006F400A0914A05B0914B05A039E1E0BE070CF486
:1007040001C003C00E94810AA8950E944D0A4CF0C2
:100714000E94550A34F00E945D0A1CF00E94650A8A
:1007240024F4E1E0F0E00E94880A0E942D0A4CF0D3
:100734000E94350A34F00E943D0A1CF00E94450ACA
:1007440024F4E1E0F0E00E948D0A0E947C0A1197F3
:1007540031F0A0915C05B0915D05119749F40E94B8
:100764006D0A119721F00E94720A119709F401C0D1
:1007740002C00E94920A0E946D0A119721F40E94FD
:10078400720A119709F016C00E94990A0E948D0AF4
:100794000E941C0A149724F00E941C0A1D970CF056
:1007A40007C0E1E0F0E0E0935C05F0935D0502C072
:1007B4000E94810A0895F894A895E1E0EA930E94C2
:1007C4008A000E2E1124A0E0B0E00E943B0CD00160
:1007D400AE1BBF0B2D01ECE00E94AB0900244014BA
:1007E40050040CF42201E0E8F0E0E415F50524F4EB
:1007F400EFEFF0E04E1A5F0AE0E8FFEF4E165F06F7
:1008040024F4F201E150FF4F2F010024401450045E
:1008140084F0A895EBE00E94AB09EBE2EA930E9416
:100824000609D2010E948709D2010E949409D201CB
:1008340016C0002440145004D4F4A895EBE00E94A0
:10084400AB09EDE2EA930E9406090E949F0A0E9406
:1008540087090E949F0A0E9494090E949F0AEAE065
:10086400F0E00E941B0CF096EA930E940609E8ED62
:10087400FFEFE415F5052CF4EAE0F0E04E165F0610
:100884000CF006C0F2010E94E50BEE0FFF1F03C03F
:10089400F2010E94E50B2F01A895789408950E9417
:1008A400B009AE3BE0E0BE071CF40E94A40A52C0AB
:1008B4000E94CC0A34F00E94CD09AA3BEFEFBE0798
:1008C4000CF00BC00E94D10A0E94E30A0E94E30AC2
:1008D4000E94D10A0E942E013DC00E94CC0A34F02D
:1008E4000E94CD09A734E0E0BE070CF423C00E94A7
:1008F400E30A0E94D10A0E94D10A0E94E30A0E94DC
:100904002E010E94FD090E94770AFC977CF40E9444
:10091400170ADC9754F00E94120ADC9734F0A09175
:100924001205B0911305DC970CF401C002C0AA248F
:10093400BB2410C00E94F50A0E94F50A0E94F50A21
:100944000E94F50A0E942E01E0E0F0E0E0935C05CD
:10095400F0935D050895A895E0913005F091310577
:100964003097E9F40E94FA0A8CF40E94D2091CF42C
:100974000E94020B05C00E94D20934F00E94130B9E
:10098400FA93EA930E942E01A89508C00E94230BB3
:100994000E94290B0E94290B0E942F0BF1C00E9478
:1009A4001C0A1197E9F40E94FA0A8CF40E94D209F5
:1009B4001CF40E94020B05C00E94D20934F00E946C
:1009C400130BFA93EA930E942E01A89508C00E9483
:1009D400230B0E94F50A0E94330B0E942E01D0C003
:1009E4000E941C0A129739F40E94390B0E943D0B95
:1009F4000E942E01C5C00E941C0A139749F40E944C
:100A0400F50A0E94330B0E94230B0E942E01B8C0EA
:100A14000E941C0A149749F40E94F50A0E94330BA1
:100A24000E94230B0E942E01ABC00E941C0A159742
:100A340051F4F201E058F0400E94290B0E94450B4A
:100A44000E942E019DC00E941C0A169761F4F201B7
:100A5400EF5FF0400E944D0B0E94230B0E94230B7A
:100A64000E942E018DC00E941C0A179759F4F201AE
:100A7400EF5FF0400E943D0BF201E058FF4F0E94EF
:100A84002F0B7EC00E941C0A189739F40E94390B60
:100A94000E943D0B0E942E0173C00E941C0A1997EC
:100AA40051F4F201E058F0400E94290B0E94450BDA
:100AB4000E942E0165C00E941C0A1A9749F40E94E4
:100AC400F50A0E94330B0E94230B0E942E0158C08A
:100AD4000E941C0A1B9759F4F201EF5FF0400E9438
:100AE4003D0BF201E058FF4F0E942F0B49C00E94BA
:100AF4001C0A1C9749F40E94330B0E94230B0E948A
:100B0400F50A0E942E013CC00E941C0A1D9739F46C
:100B14000E94520B0E94390B0E942F0B31C00E947D
:100B24001C0A1E9779F4F201EF5FF040FA93EA93FE
:100B34000E94230B0E94230BF201EF5FF0400E94FE
:100B44002F0B1EC00E941C0A1F97D1F40E94FA0AA0
:100B540084F40E94D2091CF40E94020B05C00E9476
:100B6400D20934F00E94130BFA93EA930E942E01E7
:100B7400A8950E94520B0E94390B0E942F0BA89536
:100B840008950E948209AB3FE0E0BE072CF0E4E642
:100B9400F0E0CE16DF060CF00EC00E941C0A0E9484
:100BA400460D24F40E941C0A189724F00E941C0A83
:100BB400109709F401C008C0A895E1E0F0E0E093C3
:100BC4006005F093610521C0ECE2F1E0EC15FD0550
:100BD40034F40E948209AE36E0E0BE070CF00DC08A
:100BE4000E941C0A189724F00E941C0A509724F0B3
:100BF4000E941C0A109709F401C007C0A895E1E0FF
:100C0400F0E0E0936205F09363050895A091600518
:100C1400B09161051197D1F0A0916205B09163057F
:100C24001197A1F00E94FD090E94770AFC9734F401
:100C3400A0915E05B0915F05DC9744F00E946D0AB7
:100C4400119721F00E94720A119731F4E2E3EA93BA
:100C54000E940E01A89505C0E1E3EA930E940E01EB
:100C6400A8950895E0E0EBBBEFE6EABBE0E0E8BB63
:100C7400E0EFE7BBE0E0E5BBE4BBE2BBE0EFE1BBF8
:100C8400E0E0E3B9E2B9E0936200E0936100E0934D
:100C94006500E0936400E0BFECE6E3BFE0E0E2BFA0
:100CA400E1BFE1EAEFBDEBE0EEBDE0E0EDBDECBDA0
:100CB400E7BDE6BDEBBDEABDE9BDE8BDE093790063
:100CC400E0937800EBE6E5BDE0E0E4BDE3BDE0934E
:100CD4008B00E0938A00E0938900E0938800E0931E
:100CE4008100E0938000E0938700E0938600E09326
:100CF4008500E0938400E0938300E0938200E09316
:100D04006A00EABFE9BFE7BFE0937D00E0939B0080
:100D1400E8E9E0939A00E6E0E0939D00E0E0E093E8
:100D24009800E7E4E0939900E0E8E8B9E0E0E0BD8A
:100D3400E0E4E7B9E4E8E6B90E94870BE0E1EA936E
:100D44000E943709E8E1E1BDE8E0E1BD7894A0E064
:100D5400CC99A1E0A13079F4E1E0EA930E948A0001
:100D6400A0E0B0E0F0E00E944B0CE8EEF3E0FA9370
:100D7400EA930E94D90BA8950E94580B02DF46DF24
:100D84000E94FD090E94770AE438A3E0FA0754F4AC
:100D9400E1E0F0E0EA15FB0521F000240A140B045D
:100DA40009F401C003C0D7DDA8950FC00E94FD0956
:100DB4000E94770AE538A3E0FA072CF4E2E0F0E0B9
:100DC400EA15FB0511F40E9451040E94720A11975E
:100DD40039F0A0916205B0916305119709F059C0EB
:100DE4000E94450A5CF4D2010E94C20930960E9416
:100DF4004D0B0E944D0B0E942E01A8950E943D0AA6
:100E04005CF4D2010E94C20930960E944D0B0E94EC
:100E14004D0B0E942E01A8950E942D0A1CF00E94E1
:100E2400350A6CF40E941C0A189724F00E941C0ACC
:100E3400509724F00E941C0A109709F401C00CC0BA
:100E44000E945E0B0E94660B0E94660B0E94700B50
:100E54000E942F0BA89519C00E941C0A0E94460DDF
:100E640024F40E941C0A18970CF00FC0E0E0F0E094
:100E74000E948D0AE0E0F0E0E0936205F0936305E0
:100E84000E943A020E94AD04A895A8950E94580BAE
:100E94009CCF0E946D0A119739F0A0916005B09122
:100EA4006105119709F056C00E94650A5CF4D201ED
:100EB4000E94C20930960E944D0B0E944D0B0E9465
:100EC4002E01A8950E945D0A5CF4D2010E94C20919
:100ED40030960E944D0B0E944D0B0E942E01A89546
:100EE4000E944D0A1CF00E94550A54F4A091310549
:100EF400AA2322F00E941C0A19970CF001C001C019
:100F040011C0D201AF5FB040E4E0F0E00E94160CE3
:100F14000E94700B0E94700B0E94660B0E942F0BA4
:100F2400A89514C00E941C0A199724F00E941C0A58
:100F340050970CF00BC00E94990AE0936005F0935F
:100F440061050E943A020E94AD04A895A8950E94EA
:100F5400580B9FCF0E947C0A119711F00C944A08F9
:100F64000E94B009AE3BE0E0BE0724F40E94A40A4C
:100F7400A89588C00E94CC0A5CF00E94CD09DD9738
:100F840034F40E94CD09A43CEFEFBE070CF401C079
:100F940023C00E94CD09E3E0F0E00E94FE0B0E9412
:100FA400C709EFEFF0E0EA1BFB0B0E94730BE15063
:100FB400FF4F0E94730BEF5FF040E40DF51DFA93B1
:100FC400EA930E94CD09E1E0FFEFEA1BFB0BE40D7D
:100FD400F51D0E942F0B56C00E94B009A13AE0E013
:100FE400BE0734F00E94CD09AA3BEFEFBE070CF018
:100FF4000BC00E94D10A0E94E30A0E94E30A0E94E5
:10100400D10A0E942E013EC00E94B009A13AE0E03C
:10101400BE0734F00E94CD09A734E0E0BE070CF40B
:1010240023C00E94E30A0E94D10A0E94D10A0E94AE
:10103400E30A0E942E010E94FD090E94770AFC9790
:101044007CF40E94170ADC9754F00E94120ADC9781
:1010540034F0A0911205B0911305DC970CF401C093
:1010640002C0AA24BB240EC00E94F50A0E94F50AFD
:101074000E94F50A0E94F50A0E942E01AA24BB24AC
:101084000E94920A0E94B6010E94DD03A89562CFD5
:101094000E94B009AD32E1E0BE0714F40C94970845
:1010A400A0913C05B0913D05A039E1E0BE07C4F034
:1010B400A0913E05B0913F05A039E1E0BE0784F060
:1010C400A0914005B0914105A039E1E0BE0744F08C
:1010D400A0914205B0914305A039E1E0BE0724F593
:1010E4000E94230B0E94290B0E94290B0E942F0BA4
:1010F400EEE1F0E0FA93EA930E94D90B0E941C0AF5
:10110400149724F00E941C0A1D970CF00DC00E9435
:10111400F50A0E94F50A0E94F50A0E94F50A0E9447
:101124002E010E943A02EACFA895A89525CEFFCFBA
:10113400FFE0FA95F1F70895A4B3AF70A4BBA99AA0
:10114400A898F6DFAA9AF4DFA3B3AA98F1DFAA9AC3
:10115400EFDFAA98A7FDF5CF0895A07FAB2BA5BB21
:10116400AA9A0E949A08AA980E949A080895A9988F
:10117400A4B3A76FA4BBB5B3BF70A881EEDFA881E9
:10118400A295EBDFA99A0C946F09AA9A0E949A0877
:10119400E3B3AA980E949A08E07F08950E949A08EF
:1011A400F4DFAE2FF2DFA998E295EA2B08950E94AE
:1011B4009E080E947709EC59FA4FE081F0E0DF01C4
:1011C400E981F0E0EA0FFB1FEA930E94B9088980E5
:1011D400E881E0936805229608950E949E08E2E063
:1011E400EA930E94B9080E949E08ECE0EA930E94E8
:1011F400B9080E949E08E1E0EA930E94B908E0E081
:10120400E09368058E2E0895EF93FF93A881689468
:10121400AA3031F0E8948394E0916905E81560F40C
:10122400E0916805EF5FE0936805E0E0EA93E09100
:101234006805EA93BCDF2EF07FDFA89AA881AA9301
:1012440096DFFF91EF910C946F09AA27BB271197A2
:10125400F1F70895A998A4B3A76FA4BBB5B3BF7061
:10126400A8810E94AF08A99A38C0AA98A898E881D2
:10127400E09369050E947709E058FF4FE093660503
:101284000E947709E054FF4FE09367050E947C0BAE
:101294000E947C0B0E947C0BD8DFE0E2EA93DADF49
:1012A400D4DFE8E20E94820BE4E00E94820BE5E8CE
:1012B4000E94820BA4B3AF70A4BBA99A0E94D00869
:1012C400E53011F0E0E009C00E949E08E6E0EA93F0
:1012D4000E94B9080E94EF08E1E021960895ECE02D
:1012E400EA93E1E0EA930C94D908E881F0E00895E8
:1012F400E6B1F0E00895EA93E1E0EA930C94D908AA
:10130400A0910805B09109050895E4E6F0E00E9473
:10131400160CDF01EAE0F0E00E941B0CF096EA9361
:101324000C940609EAE0F0E00E94160CDF01EAE002
:10133400F0E00E941B0CF096EA930C940609EAE094
:10134400F0E00E941B0CF096EA930E940609E8E084
:101354000895EA93E0E0EA930C94D908A0910A0571
:10136400B0910B050895EAE0F0E00E941B0CF096A2
:10137400EA930C940609E0930C05F0930D05089587
:10138400E2E0F0E00E94160C0895F5DFA0910C0550
:10139400B0910D050895A0910C05B0910D05089527
:1013A400FADF0E94460D0895E0910C05F0910D05B9
:1013B4000E94F10B0E94CA0C0895A0913205B091CD
:1013C400330508950E94160CDF01E2E0F0E00E946C
:1013D4001B0CE0300895E0913205F0913305089537
:1013E400A0E1B5E0EE0FFF1F0895F5DFA4E3B5E03B
:1013F400EE0FFF1F0895E0913005F0913105F0CF15
:10140400AE0FBF1F0E94370C0E161F060895E09101
:101414005405F0915505A4E3B5E0EE0FFF1F0895C0
:10142400A0912E05B0912F050895A0911005B091BB
:1014340011050895A0913005B09131050895AE0FBE
:10144400BF1F0E94370CDF010895E8EEF3E00E940D
:10145400160CDF0188CFA0914C05B0914D05A03941
:10146400E1E0BE070895A0914E05B0914F05A03963
:10147400E1E0BE070895A0915005B0915105A0394F
:10148400E1E0BE070895A0915205B0915305A0393B
:10149400E1E0BE070895A0913405B0913505A03967
:1014A400E1E0BE070895A0913605B0913705A03953
:1014B400E1E0BE070895A0913805B0913905A0393F
:1014C400E1E0BE070895A0913A05B0913B05A0392B
:1014D400E1E0BE070895A0915605B091570508951F
:1014E400A0915805B09159050895AE0FBF1F0E94F1
:1014F400370C0895A0915A05B0915B050895E1E079
:10150400F0E0E0935A05F0935B050895E0935605E7
:10151400F09357050895E0935805F09359050895FD
:10152400E0E0F0E0E0935A05F0935B050895E0E015
:10153400F0E0ECDFE0E0F0E00895F2010E94E50B5A
:10154400DF01089528DFE0E8FFEFEA1BFB0BE40D61
:10155400F51DFA93EA93E0910C05F0910D05EF5F08
:10156400F040E40DF51DFA93EA93E0910C05F09137
:101574000D05E058FF4FE419F509FA93EA930BDFE0
:10158400EFEFF0E0EA1BFB0BE40DF51DFA93EA9391
:101594000C942E01E3DEAF3BE0E0BE070895F201B8
:1015A400E150FF4F0E94F10B0E94CA0CA0E0B0E092
:1015B40080E09FE30E94F80C0E94930CFA93EA9354
:1015C4000895F201EF5FF0400E94F10B0E94CA0CF3
:1015D400A0E0B0E080E09FE30E94F80C0E94930C2E
:1015E400FA93EA930895F2013096FA93EA930895F0
:1015F400A0915E05B0915F05A639E0E0BE070895AD
:10160400E0E4FFEFFFEFFA93EA93EFEFF0E0FA93F1
:10161400EA93E0ECF0E0FA93EA93E1E0FFEFFFEF06
:101624000895EFEFF0E0FA93EA93E0E8FFEFFA931E
:10163400EA93E1E0FFEFFFEFFA93EA93E0E8F0E0EA
:101644000895F201E150FF4FFA93EA930895FA9353
:10165400EA93F201EF5FF0400895FA93EA930C9451
:101664002E01F201EF5FF040FA93EA93BCCFF2014E
:10167400E058FF4FECCFFA93EA93F201E058F040C0
:10168400FA93EA93DECFFA93EA93F201E058FF4F1C
:10169400FA93EA93D6CFFA93EA93FA93EA930895E6
:1016A400F201E058F040FA93EA93CBCF0E94DD03B5
:1016B4000E943A020C94B601D201A150BF4FE4E05B
:1016C400F0E00E94160C0895FA93EA93D201AF5FFA
:1016D400B040E4E0F0E00E94160C0895FA93EA9317
:1016E400EBCFE40DF51DFA93EA93E0910C05F0912C
:1016F4000D0508950E942709E0E3EA930C942C0950
:10170400EA930E94B9080C94270990989198889AB2
:10171400899815C089988898EE270000819B0895C0
:10172400809B089504D0899A02D0889AE1E062E10E
:1017340007C0899A889A03D08898F9DF899865E266
:101744006A95F1F7089578E08898F1DF809BFECFE1
:10175400EEDF889481990894889AF1DFEE1F7A95D8
:1017640099F77991772311F4899801C0899ADFDF79
:101774008898E5DF889ADBDF8998D9CFE99178E00A
:10178400EE0F10F4899801C0899AD9DF8898CFDFC9
:10179400809BFECFCCDF889A7A9591F78998C7DF32
:1017A4008898CDDFE1E08199EE27889A0895E99140
:1017B400F991309639F08DEC9AE00197F1F7A895FC
:1017C4003197C9F70895F195E195F0400895F095A2
:1017D40060957095E195FF4F6F4F7F4F08956F2F80
:1017E400660F660B762F0895FA9FF02DEB9FF00D90
:1017F400EA9FE02DF10D08952AD0F6DF0EF4E3DF21
:1018040008950024112490E1AA0FBB1F001C111C91
:101814000E1A1F0A18F40E0E1F1E01C0A1609A951D
:1018240099F7FD01D001089512D0EBDF0EF4CBDF60
:101834000895E894B7FF04C0A095B09511966894F4
:10184400F7FDC1DFDEDFFD010EF4BDDF0895E8948E
:10185400F7FF02C0B8DF6894B7FF06C0A095B09543
:10186400119600F8039400FA0895ED91FC911197F4
:101874000895119602D0FE2F1197E199FECFFF93A0
:10188400FFB7F894AEBBBFBBE09AEDB3FFBFFF91C7
:10189400089507D01196EF93EF2F03D0EF9111978E
:1018A4000895E19B02C0A895FCCF9FB7F894AEBB06
:1018B400BFBBE09A8DB3E81719F0EDBBE29AE19A49
:1018C4009FBF0895552342F4503811F4E0FF04C03B
:1018D4003196691F791F6BF050E8572711F45F9315
:1018E40073C05F3F31F0660F000C57956795752FF5
:1018F40008955F9300200AF073C06CC050E8192E5D
:101904001522880F991F9527550F879550E8072EA4
:101914000522660F771F7527550F679508956894FC
:1019240001C0E8945F93F2DF703818F07F3F08F449
:101934004BC056E1571BAAF4519558300EF4593058
:1019440030F0EFEFFFEF6FEF7FE777F91AC07727FB
:101954005523B9F0EE0FFF1F661F771F5A95D1F775
:1019640010C07727583028F0EF2FF62F672F5850E4
:10197400F9CF552331F076956795F795E7955A9504
:10198400D1F700200AF423DF5F910895689401C021
:10199400E894309760407040B1F0002426F077233B
:1019A40012F4009414DF172E7EE1112032F07A95A0
:1019B400EE0FFF1F661F111CF9CFEF2FF62F612DBD
:1019C4005F938ADF5F910895EE27FF2766277727C5
:1019D4005F910895EFEFFFEF6FE77FEF5F91089559
:1019E400EFEFFFEF6FE77FE75F9108955F9386DF87
:1019F400703851F3903841F301240894791F23F48B
:101A04001CF300203AF3ECCF0F921F932F933F93D4
:101A14004F93112722279927689FA0018F9F302D6C
:101A2400410D591F6B9F300D411D591F8E9F27D0AB
:101A3400BF9F25D06A9F23D0BE9F1DD0AF9F1BD0D0
:101A4400AE9F110D291F391F491F591FE32FF42F72
:101A5400652F522F4F913F912F911F910F90662325
:101A64002AF0550FEE1FFF1F661F02C073954BF23D
:101A740029DF5F910895100D211D391F02C0200D2B
:101A8400311D491F591F089500240A160B06089595
:00000001FF
