:060000000C9440000C947A
:1000060000000C9400000C9400000C9400000C946A
:1000160000000C9400000C9400000C9400000C945A
:1000260000000C9400000C9400000C9400000C944A
:1000360000000C9400000C9400000C9400000C943A
:1000460000000C9400000C9400000C940000102793
:10005600E80364000A00010000100001100001001E
:100066000000000000000000000080C00A0004003C
:1000760066000200700170000000F894EE27ECBBE9
:10008600F1E0FBBFEBBFE5BF8DE0A2E0BB27ED9340
:100096008A95E9F780E094E0A0E6ED930197E9F709
:1000A600E2E7F0E085919591009761F0A591B59111
:1000B60005901590BF01F00105900D920197E1F7AB
:1000C600FB01F0CFEFE5EDBFE4E0EEBFC0E6D1E027
:1000D6000C946D00E0E0EABBEBBBEFEFE7BBE0E0C2
:1000E600E8BBE8E0E4BBE0E0E5BBEFEFE1BBE0E066
:1000F600E2BBE3BFE2BFECBFEFBDEEBDEDBDECBDC5
:10010600E7BDE6BDEBBDEABDE9BDE8BDE2BDE5BDC7
:10011600E4BDE3BDE9BFE5BFE4BFEBB9E8E1EAB999
:10012600E6E8E0BDE0E0E0BDE3E3E9B9E0E8E8B930
:10013600E0E0E0BFE6B9EDB9E6BFA0E152D1EEE1FD
:10014600F0E0E0936401F09365010E9423021197A9
:100156000CF0DDC0C89B06C0E1E0F0E0E09366016C
:10016600F0936701C99B06C0E1E0F0E0E093680107
:10017600F0936901CA9B06C0E1E0F0E0E0936A01F2
:10018600F0936B01CB9B06C0E1E0F0E0E0936C01DD
:10019600F0936D01CC9B06C0E1E0F0E0E0936E01C8
:1001A600F0936F01A0916601B0916701119719F460
:1001B600F20131962F01A0916801B0916901119762
:1001C60019F4F30131963F01A0916A01B0916B01D8
:1001D600119719F4F40131964F01A0916C01B09179
:1001E6006D01119719F4F50131965F01A0916E0129
:1001F600B0916F01119739F4A0E6B1E0ED91FD9150
:100206003196FE93EE930E942802DC9764F0A2E6F4
:10021600B1E0ED91FD913196FE93EE93E0E0E0932F
:100226006001E09361010E942D024E165F0644F0C4
:10023600E0E0E0936601E0936701979A4424552431
:100246000E942D026E167F0644F0E0E0E0936801FE
:10025600E0936901979A662477240E942D028E16F0
:100266009F0644F0E0E0E0936A01E0936B01979A01
:10027600882499240E942D02AE16BF0644F0E0E0C1
:10028600E0936C01E0936D01979AAA24BB24A8EE33
:10029600B3E00E945902E5E0EA93A0E064D00E9430
:1002A60023020E9432020E9423020E943F02AAE316
:1002B60079D00E9428020E9432020E9428020E94DF
:1002C6003F02E0E00E944702D2010E943202D201C0
:1002D6000E943F02E4E00E944702D3010E943202DC
:1002E600D3010E943F02E8E00E944702D4010E9427
:1002F6003202D4010E943F02ECE00E944702D5017F
:100306000E943202D5010E943F0297981ECF979A0B
:10031600A4EFB1E00E9459029798A4EFB1E00E94C1
:100326005902F5CFFFCFAA93E5B3EF70AE2FE88160
:10033600E07FEA2BE5BB8DE08A95F1F7AA9A8DE07E
:100346008A95F1F7AA988DE08A95F1F777C0AA9376
:10035600A881E9DFE881E295E883A881E4DF85E802
:100366008A95F1F76BC0AA93E881F0E0E059FE4F59
:10037600E081A981AE0FEBDFE981E0937401E881AA
:10038600E093750122960895A2E00E944B02ACE02C
:10039600DEDFA1E00E944B02E0E0E0937501E0930E
:1003A60074010895AA93A881AA3031F0E0917601EC
:1003B600A0917401AE1758F0E0E0EA93A0917501A0
:1003C600AF5FA0937501CFDFA881AA30B9F1E091A4
:1003D6007401EF5FE0937401A89AA881B8DFA8982A
:1003E6002DC0AA93E4B3E06FE4BBA29AA09AA19AA7
:1003F600AA98A898A998E881E0937601E058E09336
:100406007201E881E054E0937301A4E1B0E00E9438
:1004160059020E9451020E9451020E945102A0E21A
:1004260082DF88EC90E00197F1F7A8E290DFA4E084
:100436008EDFA5E88CDFA6E08ADFA6DF2196089589
:10044600A0916201B09163010895A0916001B091FD
:1004560061010895E0916401F09165010895EAE073
:10046600F0E00E947A02DF01EAE0F0E00E947F02FB
:10047600E05DAE2F0C94D501EAE0F0E00E947F0229
:10048600E05DAE2F0C94D501EA93A1E00C94B60181
:100496000E94AA01A3E0B0E00C945902A0E30E94D6
:1004A600960188EC90E00197F1F70895109639F0DF
:1004B60080ED97E00197F1F7A8951197C9F7089590
:1004C600F195E195F04008950024112490E1AA0FDA
:1004D600BB1F001C111C0E1A1F0A18F40E0E1F1E3D
:1004E60001C0A1609A9599F7FD01D001089512D037
:1004F600EBDF0EF4E5DF0895E894B7FF04C0A0959E
:10050600B09511966894F7FDDBDFDEDFFD010EF492
:10051600D7DF0895E894F7FF02C0D2DF6894B7FFEB
:1005260006C0A095B095119600F8039400FA0895B8
:00000001FF
