:0600000017C0FECFFDCF8A
:10000600FCCFFBCFFACFF9CFF8CFF7CFF6CFF5CFAE
:10001600F4CFF3CFF2CFF1CFF0CFEFCFEECFEDCFDE
:1000260000000200040026000000F894EE27ECBB56
:10003600F1E0FBBFEBBFE5BF8DE0A2E0BB27ED9390
:100046008A95E9F780E094E0A0E6ED930197E9F759
:10005600E8E2F0E085919591009761F0A591B59160
:1000660005901590BF01F00105900D920197E1F7FB
:10007600FB01F0CFEFE5EDBFE4E0EEBFC0E6D1E077
:1000860000C0EFEFE7BBE0E0E8BBEFE7E4BBE0E092
:10009600E5BBEFEFE1BBE0E0E2BBE3BFE2BFEFBDF4
:1000A600EEBDEDBDECBDE7BDE6BDEBBDEABDE9BD10
:1000B600E8BDE2BDE5BDE4BDE3BDE9BFE5BFEAB924
:1000C600E0E8E8B9E0E0E0BFE6B9EDB9E6BF442410
:1000D600552434D0CCF4929A36D09298919A33D053
:1000E6009198909A30D09098AD9A2DD0AD98AC9AC0
:1000F6002AD0AC98AB9A27D0AB98AA9A24D0AA98C3
:10010600F20131962F01E5CF4424552417D0A4F4EB
:10011600929A919A909AAD9AAC9AAB9AAA9A13D05F
:10012600929891989098AD98AC98AB98AA980BD065
:10013600F20131962F01EACFCACFFFCFE5E0F0E01A
:100146004E165F060895A4E6B0E000C0109639F09A
:1001560080EA9FE00197F1F7A8951197C9F70895EE
:00000001FF
