:0E0000000C9432000C9400000C9400000C9440
:10000E0000000C9400000C9400000C9400000C9462
:10001E0000000C9400000C9400000C9400000C9452
:10002E0000000C9400000C9400000C9400000C9442
:10003E0000000C9400000C9400000C9400000C9432
:10004E0000000C94000046444D58000080C0020091
:10005E0060015A000000F894EE27ECBBF1E0FBBF04
:10006E00EBBFE5BF8DE0A2E0BB27ED938A95E9F7E4
:10007E0080E094E0A0E6ED930197E9F7ECE5F0E07F
:10008E0085919591009761F0A591B5910590159088
:10009E00BF01F00105900D920197E1F7FB01F0CF42
:1000AE00EFE5EDBFE4E0EEBFC0E6D1E00C947B00DF
:1000BE00BA93AA931A930E94B301A2EA0E94E7018F
:1000CE00AA810E94E701A9810E94E7010E94B30163
:1000DE00A3EA0E94E701A0E00E94CC011E2F0E941D
:1000EE00C201E12F0C945601E0E0EABBEBBBE7BB8B
:1000FE00E8BBE4BBE5BBEFEFE1BBE0E0E2BBE3BF97
:10010E00E2BFECBFEFBDEEBDEDBDECBDE7BDE6BDA4
:10011E00EBBDEABDE9BDE8BDE2BDE5BDE4BDE3BDB5
:10012E00E9BFE5BFE4BFEAB9E0E8E8B9E0E0E0BF67
:10013E00E6B9EDB9E6BF0E94AE01A0E10E946A01E8
:10014E00A1E5B0E0B5DF4E2E5524E0E0EA93A0E045
:10015E000E940901D201E4E6F0E00E9497010E949C
:10016E0097010E941B02E05DAE2F0E942C01E0E081
:10017E00EA93A1E00E940901A4E5B0E00E944601C5
:10018E00DFCFFFCFFFE0FA95F1F70895A4B3AF707C
:10019E00A4BBA99AA898F6DFAA9AF4DFA3B3AA98EB
:1001AE00F1DFAA9AEFDFAA98A7FDF5CF0895A07FF9
:1001BE00AB2BA5BBAA9A0E94C900AA980E94C9009F
:1001CE000895AA93A998A4B3A76FA4BBB5B3BF70A3
:1001DE00A881EDDFA881A295EADFA99A0C9495017A
:1001EE00AA9A0E94C900E3B3AA980E94C900E07FB0
:1001FE0008950E94C900F4DFAE2FF2DFA998E295B0
:10020E00EA2B0895AA930E94CD00E881F0E0E05A0F
:10021E00FE4FE081A981AE0F0E94E80079806880D0
:10022E00229608950E94CD00A2E00E94E8000E944E
:10023E00CD00ACE00E94E8000E94CD00A1E00E943B
:10024E00E800E0E06E2E7E2E0895AA93EF93FF93C2
:10025E00A8816894AA3019F0E894791430F0639468
:10026E00E0E0EA93A62DCEDF36F073948FDFA89AE6
:10027E00A8810E94E800FF91EF910C949501BA932A
:10028E00AA931A93E981FA813196E983FA83319719
:10029E00E4911E2FE03019F0A12FD7DFF3CF188194
:1002AE0023960895AA27BB271197F1F70895AA93CD
:1002BE00A998A4B3A76FA4BBB5B3BF70A8810E94C1
:1002CE00DE00A99A2BC0AA93AA98A8989880E881D4
:1002DE00E058E0936201E881E054E09363012FD08F
:1002EE002ED02DD0DFDFA0E2E2DFDCDFA8E22BD0C4
:1002FE00A4E029D0A5E827D0A4B3AF70A4BBA99AD7
:10030E000E940001E53011F0E0E008C00E94CD002F
:10031E00A6E00E94E8000E941901E1E021960895EE
:10032E000E941602DF01EAE0F0E00E941B02E05D8F
:10033E00AE2F0E942C01D201EAE0F0E008950E9457
:10034E005901A0E3B4CF0E94E8000C945901C09863
:10035E00C198B89AB99815C0B998B898EE27000008
:10036E00B19B0895B09B089504D0B99A02D0B89A63
:10037E00E1E06DE007C0B99AB89A03D0B898F9DFFA
:10038E00B9986BE16A95F1F7089578E0B898F1DFC6
:10039E00B09BFECFEEDF8894B1990894B89AF1DF46
:1003AE00EE1F7A9599F77A2F772311F4B99801C039
:1003BE00B99ADFDFB898E5DFB89ADBDFB998D9CF05
:1003CE0078E0AA0F10F4B99801C0B99ADADFB8989C
:1003DE00D0DFB09BFECFCDDFB89A7A9591F7B99862
:1003EE00C8DFB898CEDFE1E0B199EE27B89AC1CF59
:1003FE00F195E195F04008950024112490E1AA0FA3
:10040E00BB1F001C111C0E1A1F0A18F40E0E1F1E05
:10041E0001C0A1609A9599F7FD01D001089512D0FF
:10042E00EBDF0EF4E5DF0895E894B7FF04C0A09566
:10043E00B09511966894F7FDDBDFDEDFFD010EF45B
:10044E00D7DF0895E894F7FF02C0D2DF6894B7FFB4
:10045E0006C0A095B095119600F8039400FA089581
:00000001FF
