:020000000C945E
:1000020037000C9400000C9400000C9400000C9437
:1000120000000C9400000C9400000C9400000C945E
:1000220000000C9400000C9400000C9400000C944E
:1000320000000C9400000C9400000C9400000C943E
:1000420000000C94CC010C9400000C9400000C9461
:100052000000000080C007000100020054000200FE
:10006200670156000100620158000000F894EE2773
:10007200ECBBF1E0FBBFEBBFE5BF8DE0A2E0BB272D
:10008200ED938A95E9F780E094E0A0E6ED9301977D
:10009200E9F7EAE5F0E085919591009761F0A59185
:1000A200B59105901590BF01F00105900D92019751
:1000B200E1F7FB01F0CFEFE5EDBFE4E0EEBFC0E614
:1000C200D1E00C947E00AA93E0916201E03011F03D
:1000D200E0E004C1E881E03011F0E0E0FFC0A0916F
:1000E2006101E1E00E945A03F9C0AA93E881E0307D
:1000F20011F4E1E0F3C0E0E0F1C0E1E5E093650175
:10010200E5E5E0936601E0E0EABBEBBBE7BBE8BBF9
:10011200E4BBE5BBEFEFE1BBE0E0E2BBE3BFE2BF84
:10012200ECBFEFBDEEBDEDBDECBDE7BDE6BDEBBD89
:10013200EABDE9BDE8BDE2BDE5BDE4BDE3BDE9BFA1
:10014200E5BFE4BFEAB9E0E8E8B9E0E0E0BFE6B95C
:10015200EDB9EA93E1E5EA93E3E6F1E0FA93EA9393
:10016200E1E0EA93E4E6F1E0FA93EA93E4E6F0E010
:10017200FA93EA93A6E7B0E00E949A01A1E0B0E008
:100182000E947101A0E17ED07894909A8BE18A95C9
:10019200F1F7909844245524CA9BFECFCA9B05C010
:1001A200F20131962F013197F9CFD201E6E1F0E069
:1001B2000E9472032F01E0E0EA93A0E036D0D20160
:1001C200E8EEF3E00E943103E4E6F0E00E9431033E
:1001D200EAE0F0E00E943103EAE0F0E00E947703F7
:1001E200E05DAE2F3BD0D1CFFFCFAA93E5B3EF7046
:1001F200AE2FE881E07FEA2BE5BB8DE08A95F1F72F
:10020200AA9A8DE08A95F1F7AA988DE08A95F1F77E
:1002120065C0AA93A881E9DFE881E295E883A88115
:10022200E4DF85E88A95F1F759C0AA93E881F0E006
:10023200E959FE4FE081A981AE0FEBDF798068803A
:1002420022960895A2E00E943E03ACE0E2DFA1E024
:100252000E943E03E0E06E2E7E2E0895AA93A881AE
:10026200AA3011F0791440F0E0E0EA936394A62DED
:10027200DCDFA881AA3091F17394D89AA881C9DFF2
:10028200D8982CC0AA93E4B3E06FE4BBA29AD09AA8
:10029200D19AAA98D898D9989880E881E058E093A2
:1002A2006901E881E054E0936A01A4E1B0E00E94B0
:1002B2004C030E9444030E9444030E944403A0E2B0
:1002C20094DF88EC90E00197F1F7A8E2A2DFA4E0C6
:1002D200A0DFA5E89EDFA6E09CDFB4DF21960895AB
:1002E200BA93AA931A93689421F8E7E0E093620123
:1002F200E0E0E0937301E0937401E0937501E09311
:100302007601A99AA89AE6BFE1B1EC7FE1B9E98149
:10031200FA81A0EABFE00E945F031E2F183008F0A6
:10032200185010B9E6B7E078E564E6BF1881239665
:100332000895BA93AA93689421F8E7E0E0936201E2
:10034200EF81F885E0936F01F0937001EE81E09305
:100352007201EC81FD81E0936C01F0936D01EA8101
:10036200FB81E0937301F0937401E881F981E093DA
:100372007501F0937601A99AA89AEA85E03011F006
:10038200E1E002C0E985EE0FE2B9E6B7E078E564A4
:10039200E6BF2B9608950A921A92FA926A937A937A
:1003A2008A939A93AA93BA93EA93FA93EFB7EA934A
:1003B2000E949303109161010091600130916E01DE
:1003C20020916201E12FA0916F01B0917001F0E0E4
:1003D200EA0FFB1FAF01E1B1E87FE83011F420E042
:1003E20002C0E03119F4E0916B0110C0E83111F064
:1003F200E83221F5031780F4E02F0F5FA0916C0122
:10040200B0916D01F0E0AE0FBF1FEC91E3B9E6B71A
:10041200EF70E068E6BF11C0E09171011E1760F451
:10042200E0916B01E160E0936B01E89420F8E6B79C
:10043200EF70E06AE6BFFBC033C0F9C0E03529F4D3
:10044200E3B1DA01EC931F5F02C0E03471F4E09192
:100452007101E1501E1720F0E6B7EF70E06803C0AB
:10046200E6B7EF70E06CE6BFE2C0E83529F4E3B12D
:10047200DA01EC931F5F02C0E03209F402C0E033FC
:1004820009F402C0E83469F4203051F420FE03C0BC
:10049200031728F005C0E09171011E1708F424E04B
:1004A200C0C0E83329F422E0E6B7EF70E068BCC0D0
:1004B200E83611F0E83711F422E005C0E03611F019
:1004C200E03791F420E010E0E89420F8E091720126
:1004D200E03029F421E0E6B7EF70E06803C0E6B748
:1004E200EF70E06CE6BFA3C0E03811F0E03929F507
:1004F20020FE02C021E095C0E3B1DA01EC931F5F58
:10050200E09172011E17B0F4E0917301F091740151
:10051200309711F426E085C0A0E0E0917301F091DC
:1005220074010995E03029F0E6B7EF70E06CE6BFA0
:100532007EC002C0689420F802C0E83809F402C004
:10054200E83929F4E6B7EF70E068E6BF70C0E03A38
:10055200A9F4E6B7EF70E06CE6BF689421F8E09189
:100562007301F0917401309739F0A1E0E0917301C9
:10057200F0917401099501C026E059C0E03B11F4E5
:1005820022E002C0E83AB9F4E0917501F0917601F7
:10059200309759F0A0E0E0917501F091760109954C
:1005A2003E2FE03011F020E002C026E03AC000E029
:1005B200E89420F802C0E83BE1F420FE02C021E00A
:1005C20030C0E02F0F5FA0916C01B0916D01F0E09F
:1005D200AE0FBF1FEC91E3B9031720F4E6B7EF703B
:1005E200E06C05C0689420F8E6B7EF70E068E6BFFB
:1005F2001EC0E03C11F0E83C89F4E6B7EF70E06C15
:10060200E6BFE0917501F0917601309731F0A1E0FB
:10061200E0917501F0917601099507C0E03039F457
:1006220023E0E6B7EF70E06DE6BF689421F810931F
:100632006101009360012093620130936E010E9478
:100642009A032696E991EFBFF991E991B991A9919F
:100652009991899179916991F990199009901895D8
:100662000E947203DF01EAE0F0E00E947703E05D9E
:10067200AE2F0E942F01D20108950E940A01A3E029
:10068200B0E00C944C03A0E30E94F60088EC90E0EA
:100692000197F1F70895109639F080ED97E00197F0
:1006A200F1F7A8951197C9F70895F195E195F040F2
:1006B2000895AE17E1E008F0EE2708950024112412
:1006C20090E1AA0FBB1F001C111C0E1A1F0A18F47E
:1006D2000E0E1F1E01C0A1609A9599F7FD01D0016F
:1006E200089512D0EBDF0EF4E0DF0895E894B7FF2F
:1006F20004C0A095B09511966894F7FDD6DFDEDFB1
:10070200FD010EF4D2DF0895E894F7FF02C0CDDFB9
:100712006894B7FF06C0A095B095119600F80394AF
:1007220000FA08955A934A933A932A931A930A9392
:1007320008955D814C813B812A8119810881089548
:00000001FF
