:060000000C942F000C948B
:1000060000000C9400000C9400000C9400000C946A
:1000160000000C9400000C9400000C9400000C945A
:1000260000000C9400000C9400000C9400000C944A
:1000360000000C9400000C9400000C9400000C943A
:1000460000000C9400000C9400000C9400000000CA
:100056000200040054000000F894EE27ECBBF1E027
:10006600FBBFEBBFE5BF8DE0A2E0BB27ED938A9512
:10007600E9F780E094E0A0E6ED930197E9F7E6E57D
:10008600F0E085919591009761F0A591B591059065
:100096001590BF01F00105900D920197E1F7FB0164
:1000A600F0CFEFE5EDBFE4E0EEBFC0E6D1E00C94A3
:1000B6005C00E0E0EABBEBBBE7BBE8BBE4BBE5BB4F
:1000C600EFEFE1BBE0E0E2BBE3BFE2BFECBFEFBDB9
:1000D600EEBDEDBDECBDE7BDE6BDEBBDEABDE9BDE0
:1000E600E8BDE2BDECE6E5BDE0E0E4BDE3BDE9BFA9
:1000F600E5BFE4BFEAB9E0E8E8B9E0E0E0BFE6B9A9
:10010600EDB9E6BFC89B0AC01DD026D025D02DD09C
:1001160035D03DD045D0909A43D012C0CF9B0CC06D
:1001260090983ED0909833D029D01FD040D0909A46
:100136003ED008D035D004C0909891989298939864
:10014600E1CFFFCF909A919892989398A1E0B0E072
:100156000E94E100909A0895919A92989398A1E04E
:10016600B0E00E94E10090980895919A929A93982F
:10017600A1E0B0E00E94E100909808959198929ACB
:100186009398A1E0B0E00E94E100909808959198BC
:10019600929A939AA1E0B0E00E94E10090980895A7
:1001A60091989298939AA1E0B0E00C94E100919A0C
:1001B60092989398A1E0B0E00C94E100109639F083
:1001C60080ED97E00197F1F7A8951197C9F7089583
:00000001FF
