:060000001BC0FECFFDCF86
:10000600FCCFFBCFFACFF9CFF8CFF7CFF6CFF5CFAE
:10001600F4CFF3CFF2CFF1CFF0CFEFCFEECFEDCFDE
:100026001027E80364000A00010000100001100018
:100036000100F894EE27ECBBF1E0FBBFEBBFE5BF98
:10004600F8E1F1BDE1BD8DE0A2E0BB27ED938A9515
:10005600E9F780E094E0A0E6ED930197E9F7EFE594
:10006600EDBFE4E0EEBFC0E6D1E054C0BA93AA9378
:10007600AA81BB81AF3FE0E0BE0714F0AED007C057
:10008600AA81BB81ADD0EA17FB071CF0A9D0EA8391
:10009600FB83A881B981AF3FE0E0BE0714F09DD095
:1000A60007C0A881B9819CD0EA17FB071CF098D03D
:1000B600E883F983AA81BB819FD02CF4C59AC098A6
:1000C600EA81FB810CC0AB81AA2332F4C598C09AA1
:1000D600EA81FB818DD003C0C59AC09A7ED0FBBD54
:1000E600EABDA881B98188D02CF4C69AC798E88160
:1000F600F9810CC0A981AA2332F4C698C79AE8816F
:10010600F98176D003C0C69AC79A67D0F9BDE8BD13
:1001160024960895EF97EF97EF972B9700E010E05E
:10012600E0E0E8BBEFEFE7BBE0E0E5BBE4BBE2BB4A
:10013600EFEFE1BBE0E0E3BFE2BFE1EAEFBDEBE0FA
:10014600EEBDE0E0EDBDECBDE7BDE6BDEBBDEABD55
:10015600E9BDE8BDE2BDE5BDE4BDE3BDE5BFE9BF80
:10016600EBB9E8E1EAB9E6E8E0BDE0E0E0BDE3E3EB
:10017600E9B9E0E8E8B9E0E0E0BFE6B9EDB9E6BF25
:1001860028D0E883A881A63421F4E4E6F0E02BD059
:100196001DC0A881A23519F4E4E6F0E013C0A881D9
:1001A600AC3421F4E0E0F0E01ED010C0A881A23407
:1001B60021F4E4E6F0E017D009C0A881A33539F4AC
:1001C600E0E0F0E0FA93EA93A0E0B0E04FDFD8CFAA
:1001D600FFCF5F9BFECFECB10895EFEFF0E00895FF
:1001E600E1E0FFEF0895FA93EA93ACE9BFEF0895D3
:1001F600F195E195F040089500240A160B0608953E
:00000001FF
